{
	"contracts/1_AirlineTickets.sol": {
		"AirlineTicket": {
			"abi": [
				{
					"inputs": [
						{
							"internalType": "address",
							"name": "initialOwner",
							"type": "address"
						}
					],
					"stateMutability": "nonpayable",
					"type": "constructor"
				},
				{
					"inputs": [
						{
							"internalType": "address",
							"name": "owner",
							"type": "address"
						}
					],
					"name": "OwnableInvalidOwner",
					"type": "error"
				},
				{
					"inputs": [
						{
							"internalType": "address",
							"name": "account",
							"type": "address"
						}
					],
					"name": "OwnableUnauthorizedAccount",
					"type": "error"
				},
				{
					"anonymous": false,
					"inputs": [
						{
							"indexed": true,
							"internalType": "uint256",
							"name": "flightId",
							"type": "uint256"
						},
						{
							"indexed": false,
							"internalType": "string",
							"name": "flightNumber",
							"type": "string"
						}
					],
					"name": "FlightCreated",
					"type": "event"
				},
				{
					"anonymous": false,
					"inputs": [
						{
							"indexed": true,
							"internalType": "address",
							"name": "previousOwner",
							"type": "address"
						},
						{
							"indexed": true,
							"internalType": "address",
							"name": "newOwner",
							"type": "address"
						}
					],
					"name": "OwnershipTransferred",
					"type": "event"
				},
				{
					"anonymous": false,
					"inputs": [
						{
							"indexed": true,
							"internalType": "uint256",
							"name": "flightId",
							"type": "uint256"
						},
						{
							"indexed": true,
							"internalType": "address",
							"name": "passenger",
							"type": "address"
						}
					],
					"name": "TicketPurchased",
					"type": "event"
				},
				{
					"inputs": [
						{
							"internalType": "string",
							"name": "flightNumber",
							"type": "string"
						},
						{
							"internalType": "uint256",
							"name": "departureTime",
							"type": "uint256"
						},
						{
							"internalType": "string",
							"name": "source",
							"type": "string"
						},
						{
							"internalType": "string",
							"name": "destination",
							"type": "string"
						},
						{
							"internalType": "uint256",
							"name": "price",
							"type": "uint256"
						},
						{
							"internalType": "uint256",
							"name": "availableSeats",
							"type": "uint256"
						}
					],
					"name": "createFlight",
					"outputs": [
						{
							"internalType": "uint256",
							"name": "",
							"type": "uint256"
						}
					],
					"stateMutability": "nonpayable",
					"type": "function"
				},
				{
					"inputs": [
						{
							"internalType": "uint256",
							"name": "",
							"type": "uint256"
						}
					],
					"name": "flightDetails",
					"outputs": [
						{
							"internalType": "string",
							"name": "flightNumber",
							"type": "string"
						},
						{
							"internalType": "uint256",
							"name": "departureTime",
							"type": "uint256"
						},
						{
							"internalType": "string",
							"name": "source",
							"type": "string"
						},
						{
							"internalType": "string",
							"name": "destination",
							"type": "string"
						},
						{
							"internalType": "uint256",
							"name": "availableSeats",
							"type": "uint256"
						},
						{
							"internalType": "uint256",
							"name": "price",
							"type": "uint256"
						},
						{
							"internalType": "bool",
							"name": "isActive",
							"type": "bool"
						}
					],
					"stateMutability": "view",
					"type": "function"
				},
				{
					"inputs": [
						{
							"internalType": "uint256",
							"name": "flightId",
							"type": "uint256"
						}
					],
					"name": "getFlightDetails",
					"outputs": [
						{
							"components": [
								{
									"internalType": "string",
									"name": "flightNumber",
									"type": "string"
								},
								{
									"internalType": "uint256",
									"name": "departureTime",
									"type": "uint256"
								},
								{
									"internalType": "string",
									"name": "source",
									"type": "string"
								},
								{
									"internalType": "string",
									"name": "destination",
									"type": "string"
								},
								{
									"internalType": "uint256",
									"name": "availableSeats",
									"type": "uint256"
								},
								{
									"internalType": "uint256",
									"name": "price",
									"type": "uint256"
								},
								{
									"internalType": "bool",
									"name": "isActive",
									"type": "bool"
								}
							],
							"internalType": "struct AirlineTicket.Flight",
							"name": "",
							"type": "tuple"
						}
					],
					"stateMutability": "view",
					"type": "function"
				},
				{
					"inputs": [],
					"name": "owner",
					"outputs": [
						{
							"internalType": "address",
							"name": "",
							"type": "address"
						}
					],
					"stateMutability": "view",
					"type": "function"
				},
				{
					"inputs": [
						{
							"internalType": "uint256",
							"name": "flightId",
							"type": "uint256"
						},
						{
							"internalType": "uint256",
							"name": "ticketsCount",
							"type": "uint256"
						}
					],
					"name": "purchaseTicket",
					"outputs": [],
					"stateMutability": "payable",
					"type": "function"
				},
				{
					"inputs": [],
					"name": "renounceOwnership",
					"outputs": [],
					"stateMutability": "nonpayable",
					"type": "function"
				},
				{
					"inputs": [
						{
							"internalType": "address",
							"name": "newOwner",
							"type": "address"
						}
					],
					"name": "transferOwnership",
					"outputs": [],
					"stateMutability": "nonpayable",
					"type": "function"
				}
			],
			"devdoc": {
				"errors": {
					"OwnableInvalidOwner(address)": [
						{
							"details": "The owner is not a valid owner account. (eg. `address(0)`)"
						}
					],
					"OwnableUnauthorizedAccount(address)": [
						{
							"details": "The caller account is not authorized to perform an operation."
						}
					]
				},
				"kind": "dev",
				"methods": {
					"owner()": {
						"details": "Returns the address of the current owner."
					},
					"renounceOwnership()": {
						"details": "Leaves the contract without owner. It will not be possible to call `onlyOwner` functions. Can only be called by the current owner. NOTE: Renouncing ownership will leave the contract without an owner, thereby disabling any functionality that is only available to the owner."
					},
					"transferOwnership(address)": {
						"details": "Transfers ownership of the contract to a new account (`newOwner`). Can only be called by the current owner."
					}
				},
				"version": 1
			},
			"evm": {
				"assembly": "    /* \"contracts/1_AirlineTickets.sol\":116:2295  contract AirlineTicket is Ownable {... */\n  mstore(0x40, 0x80)\n    /* \"contracts/1_AirlineTickets.sol\":423:424  0 */\n  0x00\n    /* \"contracts/1_AirlineTickets.sol\":385:424  uint256 private totalFlightsCreated = 0 */\n  0x01\n  sstore\n    /* \"contracts/1_AirlineTickets.sol\":488:547  constructor (address initialOwner) Ownable(initialOwner) {} */\n  callvalue\n  dup1\n  iszero\n  tag_1\n  jumpi\n  0x00\n  dup1\n  revert\ntag_1:\n  pop\n  mload(0x40)\n  sub(codesize, bytecodeSize)\n  dup1\n  bytecodeSize\n  dup4\n  codecopy\n  dup2\n  dup2\n  add\n  0x40\n  mstore\n  dup2\n  add\n  swap1\n  tag_2\n  swap2\n  swap1\n  tag_3\n  jump\t// in\ntag_2:\n    /* \"contracts/1_AirlineTickets.sol\":531:543  initialOwner */\n  dup1\n    /* \"@openzeppelin/contracts/access/Ownable.sol\":1297:1298  0 */\n  0x00\n    /* \"@openzeppelin/contracts/access/Ownable.sol\":1273:1299  initialOwner == address(0) */\n  0xffffffffffffffffffffffffffffffffffffffff\n  and\n    /* \"@openzeppelin/contracts/access/Ownable.sol\":1273:1285  initialOwner */\n  dup2\n    /* \"@openzeppelin/contracts/access/Ownable.sol\":1273:1299  initialOwner == address(0) */\n  0xffffffffffffffffffffffffffffffffffffffff\n  and\n  sub\n    /* \"@openzeppelin/contracts/access/Ownable.sol\":1269:1364  if (initialOwner == address(0)) {... */\n  tag_7\n  jumpi\n    /* \"@openzeppelin/contracts/access/Ownable.sol\":1350:1351  0 */\n  0x00\n    /* \"@openzeppelin/contracts/access/Ownable.sol\":1322:1353  OwnableInvalidOwner(address(0)) */\n  mload(0x40)\n  0x1e4fbdf700000000000000000000000000000000000000000000000000000000\n  dup2\n  mstore\n  0x04\n  add\n  tag_8\n  swap2\n  swap1\n  tag_9\n  jump\t// in\ntag_8:\n  mload(0x40)\n  dup1\n  swap2\n  sub\n  swap1\n  revert\n    /* \"@openzeppelin/contracts/access/Ownable.sol\":1269:1364  if (initialOwner == address(0)) {... */\ntag_7:\n    /* \"@openzeppelin/contracts/access/Ownable.sol\":1373:1405  _transferOwnership(initialOwner) */\n  tag_10\n    /* \"@openzeppelin/contracts/access/Ownable.sol\":1392:1404  initialOwner */\n  dup2\n    /* \"@openzeppelin/contracts/access/Ownable.sol\":1373:1391  _transferOwnership */\n  shl(0x20, tag_11)\n    /* \"@openzeppelin/contracts/access/Ownable.sol\":1373:1405  _transferOwnership(initialOwner) */\n  0x20\n  shr\n  jump\t// in\ntag_10:\n    /* \"@openzeppelin/contracts/access/Ownable.sol\":1225:1412  constructor(address initialOwner) {... */\n  pop\n    /* \"contracts/1_AirlineTickets.sol\":488:547  constructor (address initialOwner) Ownable(initialOwner) {} */\n  pop\n    /* \"contracts/1_AirlineTickets.sol\":116:2295  contract AirlineTicket is Ownable {... */\n  jump(tag_13)\n    /* \"@openzeppelin/contracts/access/Ownable.sol\":2912:3099  function _transferOwnership(address newOwner) internal virtual {... */\ntag_11:\n    /* \"@openzeppelin/contracts/access/Ownable.sol\":2985:3001  address oldOwner */\n  0x00\n    /* \"@openzeppelin/contracts/access/Ownable.sol\":3004:3010  _owner */\n  dup1\n  0x00\n  swap1\n  sload\n  swap1\n  0x0100\n  exp\n  swap1\n  div\n  0xffffffffffffffffffffffffffffffffffffffff\n  and\n    /* \"@openzeppelin/contracts/access/Ownable.sol\":2985:3010  address oldOwner = _owner */\n  swap1\n  pop\n    /* \"@openzeppelin/contracts/access/Ownable.sol\":3029:3037  newOwner */\n  dup2\n    /* \"@openzeppelin/contracts/access/Ownable.sol\":3020:3026  _owner */\n  0x00\n  dup1\n    /* \"@openzeppelin/contracts/access/Ownable.sol\":3020:3037  _owner = newOwner */\n  0x0100\n  exp\n  dup2\n  sload\n  dup2\n  0xffffffffffffffffffffffffffffffffffffffff\n  mul\n  not\n  and\n  swap1\n  dup4\n  0xffffffffffffffffffffffffffffffffffffffff\n  and\n  mul\n  or\n  swap1\n  sstore\n  pop\n    /* \"@openzeppelin/contracts/access/Ownable.sol\":3083:3091  newOwner */\n  dup2\n    /* \"@openzeppelin/contracts/access/Ownable.sol\":3052:3092  OwnershipTransferred(oldOwner, newOwner) */\n  0xffffffffffffffffffffffffffffffffffffffff\n  and\n    /* \"@openzeppelin/contracts/access/Ownable.sol\":3073:3081  oldOwner */\n  dup2\n    /* \"@openzeppelin/contracts/access/Ownable.sol\":3052:3092  OwnershipTransferred(oldOwner, newOwner) */\n  0xffffffffffffffffffffffffffffffffffffffff\n  and\n  0x8be0079c531659141344cd1fd0a4f28419497f9722a3daafe3b4186f6b6457e0\n  mload(0x40)\n  mload(0x40)\n  dup1\n  swap2\n  sub\n  swap1\n  log3\n    /* \"@openzeppelin/contracts/access/Ownable.sol\":2975:3099  {... */\n  pop\n    /* \"@openzeppelin/contracts/access/Ownable.sol\":2912:3099  function _transferOwnership(address newOwner) internal virtual {... */\n  pop\n  jump\t// out\n    /* \"#utility.yul\":88:205   */\ntag_16:\n    /* \"#utility.yul\":197:198   */\n  0x00\n    /* \"#utility.yul\":194:195   */\n  dup1\n    /* \"#utility.yul\":187:199   */\n  revert\n    /* \"#utility.yul\":334:460   */\ntag_18:\n    /* \"#utility.yul\":371:378   */\n  0x00\n    /* \"#utility.yul\":411:453   */\n  0xffffffffffffffffffffffffffffffffffffffff\n    /* \"#utility.yul\":404:409   */\n  dup3\n    /* \"#utility.yul\":400:454   */\n  and\n    /* \"#utility.yul\":389:454   */\n  swap1\n  pop\n    /* \"#utility.yul\":334:460   */\n  swap2\n  swap1\n  pop\n  jump\t// out\n    /* \"#utility.yul\":466:562   */\ntag_19:\n    /* \"#utility.yul\":503:510   */\n  0x00\n    /* \"#utility.yul\":532:556   */\n  tag_29\n    /* \"#utility.yul\":550:555   */\n  dup3\n    /* \"#utility.yul\":532:556   */\n  tag_18\n  jump\t// in\ntag_29:\n    /* \"#utility.yul\":521:556   */\n  swap1\n  pop\n    /* \"#utility.yul\":466:562   */\n  swap2\n  swap1\n  pop\n  jump\t// out\n    /* \"#utility.yul\":568:690   */\ntag_20:\n    /* \"#utility.yul\":641:665   */\n  tag_31\n    /* \"#utility.yul\":659:664   */\n  dup2\n    /* \"#utility.yul\":641:665   */\n  tag_19\n  jump\t// in\ntag_31:\n    /* \"#utility.yul\":634:639   */\n  dup2\n    /* \"#utility.yul\":631:666   */\n  eq\n    /* \"#utility.yul\":621:684   */\n  tag_32\n  jumpi\n    /* \"#utility.yul\":680:681   */\n  0x00\n    /* \"#utility.yul\":677:678   */\n  dup1\n    /* \"#utility.yul\":670:682   */\n  revert\n    /* \"#utility.yul\":621:684   */\ntag_32:\n    /* \"#utility.yul\":568:690   */\n  pop\n  jump\t// out\n    /* \"#utility.yul\":696:839   */\ntag_21:\n    /* \"#utility.yul\":753:758   */\n  0x00\n    /* \"#utility.yul\":784:790   */\n  dup2\n    /* \"#utility.yul\":778:791   */\n  mload\n    /* \"#utility.yul\":769:791   */\n  swap1\n  pop\n    /* \"#utility.yul\":800:833   */\n  tag_34\n    /* \"#utility.yul\":827:832   */\n  dup2\n    /* \"#utility.yul\":800:833   */\n  tag_20\n  jump\t// in\ntag_34:\n    /* \"#utility.yul\":696:839   */\n  swap3\n  swap2\n  pop\n  pop\n  jump\t// out\n    /* \"#utility.yul\":845:1196   */\ntag_3:\n    /* \"#utility.yul\":915:921   */\n  0x00\n    /* \"#utility.yul\":964:966   */\n  0x20\n    /* \"#utility.yul\":952:961   */\n  dup3\n    /* \"#utility.yul\":943:950   */\n  dup5\n    /* \"#utility.yul\":939:962   */\n  sub\n    /* \"#utility.yul\":935:967   */\n  slt\n    /* \"#utility.yul\":932:1051   */\n  iszero\n  tag_36\n  jumpi\n    /* \"#utility.yul\":970:1049   */\n  tag_37\n  tag_16\n  jump\t// in\ntag_37:\n    /* \"#utility.yul\":932:1051   */\ntag_36:\n    /* \"#utility.yul\":1090:1091   */\n  0x00\n    /* \"#utility.yul\":1115:1179   */\n  tag_38\n    /* \"#utility.yul\":1171:1178   */\n  dup5\n    /* \"#utility.yul\":1162:1168   */\n  dup3\n    /* \"#utility.yul\":1151:1160   */\n  dup6\n    /* \"#utility.yul\":1147:1169   */\n  add\n    /* \"#utility.yul\":1115:1179   */\n  tag_21\n  jump\t// in\ntag_38:\n    /* \"#utility.yul\":1105:1179   */\n  swap2\n  pop\n    /* \"#utility.yul\":1061:1189   */\n  pop\n    /* \"#utility.yul\":845:1196   */\n  swap3\n  swap2\n  pop\n  pop\n  jump\t// out\n    /* \"#utility.yul\":1202:1320   */\ntag_22:\n    /* \"#utility.yul\":1289:1313   */\n  tag_40\n    /* \"#utility.yul\":1307:1312   */\n  dup2\n    /* \"#utility.yul\":1289:1313   */\n  tag_19\n  jump\t// in\ntag_40:\n    /* \"#utility.yul\":1284:1287   */\n  dup3\n    /* \"#utility.yul\":1277:1314   */\n  mstore\n    /* \"#utility.yul\":1202:1320   */\n  pop\n  pop\n  jump\t// out\n    /* \"#utility.yul\":1326:1548   */\ntag_9:\n    /* \"#utility.yul\":1419:1423   */\n  0x00\n    /* \"#utility.yul\":1457:1459   */\n  0x20\n    /* \"#utility.yul\":1446:1455   */\n  dup3\n    /* \"#utility.yul\":1442:1460   */\n  add\n    /* \"#utility.yul\":1434:1460   */\n  swap1\n  pop\n    /* \"#utility.yul\":1470:1541   */\n  tag_42\n    /* \"#utility.yul\":1538:1539   */\n  0x00\n    /* \"#utility.yul\":1527:1536   */\n  dup4\n    /* \"#utility.yul\":1523:1540   */\n  add\n    /* \"#utility.yul\":1514:1520   */\n  dup5\n    /* \"#utility.yul\":1470:1541   */\n  tag_22\n  jump\t// in\ntag_42:\n    /* \"#utility.yul\":1326:1548   */\n  swap3\n  swap2\n  pop\n  pop\n  jump\t// out\n    /* \"contracts/1_AirlineTickets.sol\":116:2295  contract AirlineTicket is Ownable {... */\ntag_13:\n  dataSize(sub_0)\n  dup1\n  dataOffset(sub_0)\n  0x00\n  codecopy\n  0x00\n  return\nstop\n\nsub_0: assembly {\n        /* \"contracts/1_AirlineTickets.sol\":116:2295  contract AirlineTicket is Ownable {... */\n      mstore(0x40, 0x80)\n      jumpi(tag_1, lt(calldatasize, 0x04))\n      shr(0xe0, calldataload(0x00))\n      dup1\n      0x8da5cb5b\n      gt\n      tag_9\n      jumpi\n      dup1\n      0x8da5cb5b\n      eq\n      tag_5\n      jumpi\n      dup1\n      0xa3138a9b\n      eq\n      tag_6\n      jumpi\n      dup1\n      0xbdbbb0cb\n      eq\n      tag_7\n      jumpi\n      dup1\n      0xf2fde38b\n      eq\n      tag_8\n      jumpi\n      jump(tag_1)\n    tag_9:\n      dup1\n      0x18535008\n      eq\n      tag_2\n      jumpi\n      dup1\n      0x3f90b8fd\n      eq\n      tag_3\n      jumpi\n      dup1\n      0x715018a6\n      eq\n      tag_4\n      jumpi\n    tag_1:\n      0x00\n      dup1\n      revert\n        /* \"contracts/1_AirlineTickets.sol\":1502:1701  function getFlightDetails(uint flightId) external view returns (Flight memory) {... */\n    tag_2:\n      callvalue\n      dup1\n      iszero\n      tag_10\n      jumpi\n      0x00\n      dup1\n      revert\n    tag_10:\n      pop\n      tag_11\n      0x04\n      dup1\n      calldatasize\n      sub\n      dup2\n      add\n      swap1\n      tag_12\n      swap2\n      swap1\n      tag_13\n      jump\t// in\n    tag_12:\n      tag_14\n      jump\t// in\n    tag_11:\n      mload(0x40)\n      tag_15\n      swap2\n      swap1\n      tag_16\n      jump\t// in\n    tag_15:\n      mload(0x40)\n      dup1\n      swap2\n      sub\n      swap1\n      return\n        /* \"contracts/1_AirlineTickets.sol\":431:479  mapping (uint256 => Flight) public flightDetails */\n    tag_3:\n      callvalue\n      dup1\n      iszero\n      tag_17\n      jumpi\n      0x00\n      dup1\n      revert\n    tag_17:\n      pop\n      tag_18\n      0x04\n      dup1\n      calldatasize\n      sub\n      dup2\n      add\n      swap1\n      tag_19\n      swap2\n      swap1\n      tag_13\n      jump\t// in\n    tag_19:\n      tag_20\n      jump\t// in\n    tag_18:\n      mload(0x40)\n      tag_21\n      swap8\n      swap7\n      swap6\n      swap5\n      swap4\n      swap3\n      swap2\n      swap1\n      tag_22\n      jump\t// in\n    tag_21:\n      mload(0x40)\n      dup1\n      swap2\n      sub\n      swap1\n      return\n        /* \"@openzeppelin/contracts/access/Ownable.sol\":2293:2394  function renounceOwnership() public virtual onlyOwner {... */\n    tag_4:\n      callvalue\n      dup1\n      iszero\n      tag_23\n      jumpi\n      0x00\n      dup1\n      revert\n    tag_23:\n      pop\n      tag_24\n      tag_25\n      jump\t// in\n    tag_24:\n      stop\n        /* \"@openzeppelin/contracts/access/Ownable.sol\":1638:1723  function owner() public view virtual returns (address) {... */\n    tag_5:\n      callvalue\n      dup1\n      iszero\n      tag_26\n      jumpi\n      0x00\n      dup1\n      revert\n    tag_26:\n      pop\n      tag_27\n      tag_28\n      jump\t// in\n    tag_27:\n      mload(0x40)\n      tag_29\n      swap2\n      swap1\n      tag_30\n      jump\t// in\n    tag_29:\n      mload(0x40)\n      dup1\n      swap2\n      sub\n      swap1\n      return\n        /* \"contracts/1_AirlineTickets.sol\":715:1494  function createFlight(string memory flightNumber, uint256 departureTime, string memory source, string memory destination, uint256 price, uint256 availableSeats ) external onlyOwner returns (uint256) {... */\n    tag_6:\n      callvalue\n      dup1\n      iszero\n      tag_31\n      jumpi\n      0x00\n      dup1\n      revert\n    tag_31:\n      pop\n      tag_32\n      0x04\n      dup1\n      calldatasize\n      sub\n      dup2\n      add\n      swap1\n      tag_33\n      swap2\n      swap1\n      tag_34\n      jump\t// in\n    tag_33:\n      tag_35\n      jump\t// in\n    tag_32:\n      mload(0x40)\n      tag_36\n      swap2\n      swap1\n      tag_37\n      jump\t// in\n    tag_36:\n      mload(0x40)\n      dup1\n      swap2\n      sub\n      swap1\n      return\n        /* \"contracts/1_AirlineTickets.sol\":1709:2292  function purchaseTicket(uint256 flightId, uint256 ticketsCount) external payable  {... */\n    tag_7:\n      tag_38\n      0x04\n      dup1\n      calldatasize\n      sub\n      dup2\n      add\n      swap1\n      tag_39\n      swap2\n      swap1\n      tag_40\n      jump\t// in\n    tag_39:\n      tag_41\n      jump\t// in\n    tag_38:\n      stop\n        /* \"@openzeppelin/contracts/access/Ownable.sol\":2543:2758  function transferOwnership(address newOwner) public virtual onlyOwner {... */\n    tag_8:\n      callvalue\n      dup1\n      iszero\n      tag_42\n      jumpi\n      0x00\n      dup1\n      revert\n    tag_42:\n      pop\n      tag_43\n      0x04\n      dup1\n      calldatasize\n      sub\n      dup2\n      add\n      swap1\n      tag_44\n      swap2\n      swap1\n      tag_45\n      jump\t// in\n    tag_44:\n      tag_46\n      jump\t// in\n    tag_43:\n      stop\n        /* \"contracts/1_AirlineTickets.sol\":1502:1701  function getFlightDetails(uint flightId) external view returns (Flight memory) {... */\n    tag_14:\n        /* \"contracts/1_AirlineTickets.sol\":1566:1579  Flight memory */\n      tag_47\n      tag_48\n      jump\t// in\n    tag_47:\n        /* \"contracts/1_AirlineTickets.sol\":1611:1630  totalFlightsCreated */\n      sload(0x01)\n        /* \"contracts/1_AirlineTickets.sol\":1600:1608  flightId */\n      dup3\n        /* \"contracts/1_AirlineTickets.sol\":1600:1630  flightId < totalFlightsCreated */\n      lt\n        /* \"contracts/1_AirlineTickets.sol\":1592:1652  require(flightId < totalFlightsCreated, \"Invalid flight id\") */\n      tag_50\n      jumpi\n      mload(0x40)\n      0x08c379a000000000000000000000000000000000000000000000000000000000\n      dup2\n      mstore\n      0x04\n      add\n      tag_51\n      swap1\n      tag_52\n      jump\t// in\n    tag_51:\n      mload(0x40)\n      dup1\n      swap2\n      sub\n      swap1\n      revert\n    tag_50:\n        /* \"contracts/1_AirlineTickets.sol\":1670:1683  flightDetails */\n      0x02\n        /* \"contracts/1_AirlineTickets.sol\":1670:1693  flightDetails[flightId] */\n      0x00\n        /* \"contracts/1_AirlineTickets.sol\":1684:1692  flightId */\n      dup4\n        /* \"contracts/1_AirlineTickets.sol\":1670:1693  flightDetails[flightId] */\n      dup2\n      mstore\n      0x20\n      add\n      swap1\n      dup2\n      mstore\n      0x20\n      add\n      0x00\n      keccak256\n        /* \"contracts/1_AirlineTickets.sol\":1663:1693  return flightDetails[flightId] */\n      mload(0x40)\n      dup1\n      0xe0\n      add\n      0x40\n      mstore\n      swap1\n      dup2\n      0x00\n      dup3\n      add\n      dup1\n      sload\n      tag_53\n      swap1\n      tag_54\n      jump\t// in\n    tag_53:\n      dup1\n      0x1f\n      add\n      0x20\n      dup1\n      swap2\n      div\n      mul\n      0x20\n      add\n      mload(0x40)\n      swap1\n      dup2\n      add\n      0x40\n      mstore\n      dup1\n      swap3\n      swap2\n      swap1\n      dup2\n      dup2\n      mstore\n      0x20\n      add\n      dup3\n      dup1\n      sload\n      tag_55\n      swap1\n      tag_54\n      jump\t// in\n    tag_55:\n      dup1\n      iszero\n      tag_56\n      jumpi\n      dup1\n      0x1f\n      lt\n      tag_57\n      jumpi\n      0x0100\n      dup1\n      dup4\n      sload\n      div\n      mul\n      dup4\n      mstore\n      swap2\n      0x20\n      add\n      swap2\n      jump(tag_56)\n    tag_57:\n      dup3\n      add\n      swap2\n      swap1\n      0x00\n      mstore\n      keccak256(0x00, 0x20)\n      swap1\n    tag_58:\n      dup2\n      sload\n      dup2\n      mstore\n      swap1\n      0x01\n      add\n      swap1\n      0x20\n      add\n      dup1\n      dup4\n      gt\n      tag_58\n      jumpi\n      dup3\n      swap1\n      sub\n      0x1f\n      and\n      dup3\n      add\n      swap2\n    tag_56:\n      pop\n      pop\n      pop\n      pop\n      pop\n      dup2\n      mstore\n      0x20\n      add\n      0x01\n      dup3\n      add\n      sload\n      dup2\n      mstore\n      0x20\n      add\n      0x02\n      dup3\n      add\n      dup1\n      sload\n      tag_59\n      swap1\n      tag_54\n      jump\t// in\n    tag_59:\n      dup1\n      0x1f\n      add\n      0x20\n      dup1\n      swap2\n      div\n      mul\n      0x20\n      add\n      mload(0x40)\n      swap1\n      dup2\n      add\n      0x40\n      mstore\n      dup1\n      swap3\n      swap2\n      swap1\n      dup2\n      dup2\n      mstore\n      0x20\n      add\n      dup3\n      dup1\n      sload\n      tag_60\n      swap1\n      tag_54\n      jump\t// in\n    tag_60:\n      dup1\n      iszero\n      tag_61\n      jumpi\n      dup1\n      0x1f\n      lt\n      tag_62\n      jumpi\n      0x0100\n      dup1\n      dup4\n      sload\n      div\n      mul\n      dup4\n      mstore\n      swap2\n      0x20\n      add\n      swap2\n      jump(tag_61)\n    tag_62:\n      dup3\n      add\n      swap2\n      swap1\n      0x00\n      mstore\n      keccak256(0x00, 0x20)\n      swap1\n    tag_63:\n      dup2\n      sload\n      dup2\n      mstore\n      swap1\n      0x01\n      add\n      swap1\n      0x20\n      add\n      dup1\n      dup4\n      gt\n      tag_63\n      jumpi\n      dup3\n      swap1\n      sub\n      0x1f\n      and\n      dup3\n      add\n      swap2\n    tag_61:\n      pop\n      pop\n      pop\n      pop\n      pop\n      dup2\n      mstore\n      0x20\n      add\n      0x03\n      dup3\n      add\n      dup1\n      sload\n      tag_64\n      swap1\n      tag_54\n      jump\t// in\n    tag_64:\n      dup1\n      0x1f\n      add\n      0x20\n      dup1\n      swap2\n      div\n      mul\n      0x20\n      add\n      mload(0x40)\n      swap1\n      dup2\n      add\n      0x40\n      mstore\n      dup1\n      swap3\n      swap2\n      swap1\n      dup2\n      dup2\n      mstore\n      0x20\n      add\n      dup3\n      dup1\n      sload\n      tag_65\n      swap1\n      tag_54\n      jump\t// in\n    tag_65:\n      dup1\n      iszero\n      tag_66\n      jumpi\n      dup1\n      0x1f\n      lt\n      tag_67\n      jumpi\n      0x0100\n      dup1\n      dup4\n      sload\n      div\n      mul\n      dup4\n      mstore\n      swap2\n      0x20\n      add\n      swap2\n      jump(tag_66)\n    tag_67:\n      dup3\n      add\n      swap2\n      swap1\n      0x00\n      mstore\n      keccak256(0x00, 0x20)\n      swap1\n    tag_68:\n      dup2\n      sload\n      dup2\n      mstore\n      swap1\n      0x01\n      add\n      swap1\n      0x20\n      add\n      dup1\n      dup4\n      gt\n      tag_68\n      jumpi\n      dup3\n      swap1\n      sub\n      0x1f\n      and\n      dup3\n      add\n      swap2\n    tag_66:\n      pop\n      pop\n      pop\n      pop\n      pop\n      dup2\n      mstore\n      0x20\n      add\n      0x04\n      dup3\n      add\n      sload\n      dup2\n      mstore\n      0x20\n      add\n      0x05\n      dup3\n      add\n      sload\n      dup2\n      mstore\n      0x20\n      add\n      0x06\n      dup3\n      add\n      0x00\n      swap1\n      sload\n      swap1\n      0x0100\n      exp\n      swap1\n      div\n      0xff\n      and\n      iszero\n      iszero\n      iszero\n      iszero\n      dup2\n      mstore\n      pop\n      pop\n      swap1\n      pop\n        /* \"contracts/1_AirlineTickets.sol\":1502:1701  function getFlightDetails(uint flightId) external view returns (Flight memory) {... */\n      swap2\n      swap1\n      pop\n      jump\t// out\n        /* \"contracts/1_AirlineTickets.sol\":431:479  mapping (uint256 => Flight) public flightDetails */\n    tag_20:\n      mstore(0x20, 0x02)\n      dup1\n      0x00\n      mstore\n      keccak256(0x00, 0x40)\n      0x00\n      swap2\n      pop\n      swap1\n      pop\n      dup1\n      0x00\n      add\n      dup1\n      sload\n      tag_69\n      swap1\n      tag_54\n      jump\t// in\n    tag_69:\n      dup1\n      0x1f\n      add\n      0x20\n      dup1\n      swap2\n      div\n      mul\n      0x20\n      add\n      mload(0x40)\n      swap1\n      dup2\n      add\n      0x40\n      mstore\n      dup1\n      swap3\n      swap2\n      swap1\n      dup2\n      dup2\n      mstore\n      0x20\n      add\n      dup3\n      dup1\n      sload\n      tag_70\n      swap1\n      tag_54\n      jump\t// in\n    tag_70:\n      dup1\n      iszero\n      tag_71\n      jumpi\n      dup1\n      0x1f\n      lt\n      tag_72\n      jumpi\n      0x0100\n      dup1\n      dup4\n      sload\n      div\n      mul\n      dup4\n      mstore\n      swap2\n      0x20\n      add\n      swap2\n      jump(tag_71)\n    tag_72:\n      dup3\n      add\n      swap2\n      swap1\n      0x00\n      mstore\n      keccak256(0x00, 0x20)\n      swap1\n    tag_73:\n      dup2\n      sload\n      dup2\n      mstore\n      swap1\n      0x01\n      add\n      swap1\n      0x20\n      add\n      dup1\n      dup4\n      gt\n      tag_73\n      jumpi\n      dup3\n      swap1\n      sub\n      0x1f\n      and\n      dup3\n      add\n      swap2\n    tag_71:\n      pop\n      pop\n      pop\n      pop\n      pop\n      swap1\n      dup1\n      0x01\n      add\n      sload\n      swap1\n      dup1\n      0x02\n      add\n      dup1\n      sload\n      tag_74\n      swap1\n      tag_54\n      jump\t// in\n    tag_74:\n      dup1\n      0x1f\n      add\n      0x20\n      dup1\n      swap2\n      div\n      mul\n      0x20\n      add\n      mload(0x40)\n      swap1\n      dup2\n      add\n      0x40\n      mstore\n      dup1\n      swap3\n      swap2\n      swap1\n      dup2\n      dup2\n      mstore\n      0x20\n      add\n      dup3\n      dup1\n      sload\n      tag_75\n      swap1\n      tag_54\n      jump\t// in\n    tag_75:\n      dup1\n      iszero\n      tag_76\n      jumpi\n      dup1\n      0x1f\n      lt\n      tag_77\n      jumpi\n      0x0100\n      dup1\n      dup4\n      sload\n      div\n      mul\n      dup4\n      mstore\n      swap2\n      0x20\n      add\n      swap2\n      jump(tag_76)\n    tag_77:\n      dup3\n      add\n      swap2\n      swap1\n      0x00\n      mstore\n      keccak256(0x00, 0x20)\n      swap1\n    tag_78:\n      dup2\n      sload\n      dup2\n      mstore\n      swap1\n      0x01\n      add\n      swap1\n      0x20\n      add\n      dup1\n      dup4\n      gt\n      tag_78\n      jumpi\n      dup3\n      swap1\n      sub\n      0x1f\n      and\n      dup3\n      add\n      swap2\n    tag_76:\n      pop\n      pop\n      pop\n      pop\n      pop\n      swap1\n      dup1\n      0x03\n      add\n      dup1\n      sload\n      tag_79\n      swap1\n      tag_54\n      jump\t// in\n    tag_79:\n      dup1\n      0x1f\n      add\n      0x20\n      dup1\n      swap2\n      div\n      mul\n      0x20\n      add\n      mload(0x40)\n      swap1\n      dup2\n      add\n      0x40\n      mstore\n      dup1\n      swap3\n      swap2\n      swap1\n      dup2\n      dup2\n      mstore\n      0x20\n      add\n      dup3\n      dup1\n      sload\n      tag_80\n      swap1\n      tag_54\n      jump\t// in\n    tag_80:\n      dup1\n      iszero\n      tag_81\n      jumpi\n      dup1\n      0x1f\n      lt\n      tag_82\n      jumpi\n      0x0100\n      dup1\n      dup4\n      sload\n      div\n      mul\n      dup4\n      mstore\n      swap2\n      0x20\n      add\n      swap2\n      jump(tag_81)\n    tag_82:\n      dup3\n      add\n      swap2\n      swap1\n      0x00\n      mstore\n      keccak256(0x00, 0x20)\n      swap1\n    tag_83:\n      dup2\n      sload\n      dup2\n      mstore\n      swap1\n      0x01\n      add\n      swap1\n      0x20\n      add\n      dup1\n      dup4\n      gt\n      tag_83\n      jumpi\n      dup3\n      swap1\n      sub\n      0x1f\n      and\n      dup3\n      add\n      swap2\n    tag_81:\n      pop\n      pop\n      pop\n      pop\n      pop\n      swap1\n      dup1\n      0x04\n      add\n      sload\n      swap1\n      dup1\n      0x05\n      add\n      sload\n      swap1\n      dup1\n      0x06\n      add\n      0x00\n      swap1\n      sload\n      swap1\n      0x0100\n      exp\n      swap1\n      div\n      0xff\n      and\n      swap1\n      pop\n      dup8\n      jump\t// out\n        /* \"@openzeppelin/contracts/access/Ownable.sol\":2293:2394  function renounceOwnership() public virtual onlyOwner {... */\n    tag_25:\n        /* \"@openzeppelin/contracts/access/Ownable.sol\":1531:1544  _checkOwner() */\n      tag_85\n        /* \"@openzeppelin/contracts/access/Ownable.sol\":1531:1542  _checkOwner */\n      tag_86\n        /* \"@openzeppelin/contracts/access/Ownable.sol\":1531:1544  _checkOwner() */\n      jump\t// in\n    tag_85:\n        /* \"@openzeppelin/contracts/access/Ownable.sol\":2357:2387  _transferOwnership(address(0)) */\n      tag_88\n        /* \"@openzeppelin/contracts/access/Ownable.sol\":2384:2385  0 */\n      0x00\n        /* \"@openzeppelin/contracts/access/Ownable.sol\":2357:2375  _transferOwnership */\n      tag_89\n        /* \"@openzeppelin/contracts/access/Ownable.sol\":2357:2387  _transferOwnership(address(0)) */\n      jump\t// in\n    tag_88:\n        /* \"@openzeppelin/contracts/access/Ownable.sol\":2293:2394  function renounceOwnership() public virtual onlyOwner {... */\n      jump\t// out\n        /* \"@openzeppelin/contracts/access/Ownable.sol\":1638:1723  function owner() public view virtual returns (address) {... */\n    tag_28:\n        /* \"@openzeppelin/contracts/access/Ownable.sol\":1684:1691  address */\n      0x00\n        /* \"@openzeppelin/contracts/access/Ownable.sol\":1710:1716  _owner */\n      dup1\n      0x00\n      swap1\n      sload\n      swap1\n      0x0100\n      exp\n      swap1\n      div\n      0xffffffffffffffffffffffffffffffffffffffff\n      and\n        /* \"@openzeppelin/contracts/access/Ownable.sol\":1703:1716  return _owner */\n      swap1\n      pop\n        /* \"@openzeppelin/contracts/access/Ownable.sol\":1638:1723  function owner() public view virtual returns (address) {... */\n      swap1\n      jump\t// out\n        /* \"contracts/1_AirlineTickets.sol\":715:1494  function createFlight(string memory flightNumber, uint256 departureTime, string memory source, string memory destination, uint256 price, uint256 availableSeats ) external onlyOwner returns (uint256) {... */\n    tag_35:\n        /* \"contracts/1_AirlineTickets.sol\":905:912  uint256 */\n      0x00\n        /* \"@openzeppelin/contracts/access/Ownable.sol\":1531:1544  _checkOwner() */\n      tag_92\n        /* \"@openzeppelin/contracts/access/Ownable.sol\":1531:1542  _checkOwner */\n      tag_86\n        /* \"@openzeppelin/contracts/access/Ownable.sol\":1531:1544  _checkOwner() */\n      jump\t// in\n    tag_92:\n        /* \"contracts/1_AirlineTickets.sol\":925:941  uint256 flightId */\n      0x00\n        /* \"contracts/1_AirlineTickets.sol\":944:963  totalFlightsCreated */\n      0x01\n      0x00\n        /* \"contracts/1_AirlineTickets.sol\":944:965  totalFlightsCreated++ */\n      dup2\n      sload\n      dup1\n      swap3\n      swap2\n      swap1\n      tag_94\n      swap1\n      tag_95\n      jump\t// in\n    tag_94:\n      swap2\n      swap1\n      pop\n      sstore\n        /* \"contracts/1_AirlineTickets.sol\":925:965  uint256 flightId = totalFlightsCreated++ */\n      swap1\n      pop\n        /* \"contracts/1_AirlineTickets.sol\":1003:1018  block.timestamp */\n      timestamp\n        /* \"contracts/1_AirlineTickets.sol\":986:999  departureTime */\n      dup8\n        /* \"contracts/1_AirlineTickets.sol\":986:1018  departureTime >= block.timestamp */\n      lt\n      iszero\n        /* \"contracts/1_AirlineTickets.sol\":978:1045  require(departureTime >= block.timestamp, \"Invalid Departure Time\") */\n      tag_96\n      jumpi\n      mload(0x40)\n      0x08c379a000000000000000000000000000000000000000000000000000000000\n      dup2\n      mstore\n      0x04\n      add\n      tag_97\n      swap1\n      tag_98\n      jump\t// in\n    tag_97:\n      mload(0x40)\n      dup1\n      swap2\n      sub\n      swap1\n      revert\n    tag_96:\n        /* \"contracts/1_AirlineTickets.sol\":1066:1086  Flight memory flight */\n      0x00\n        /* \"contracts/1_AirlineTickets.sol\":1089:1362  Flight({... */\n      mload(0x40)\n      dup1\n      0xe0\n      add\n      0x40\n      mstore\n      dup1\n        /* \"contracts/1_AirlineTickets.sol\":1125:1137  flightNumber */\n      dup11\n        /* \"contracts/1_AirlineTickets.sol\":1089:1362  Flight({... */\n      dup2\n      mstore\n      0x20\n      add\n        /* \"contracts/1_AirlineTickets.sol\":1167:1180  departureTime */\n      dup10\n        /* \"contracts/1_AirlineTickets.sol\":1089:1362  Flight({... */\n      dup2\n      mstore\n      0x20\n      add\n        /* \"contracts/1_AirlineTickets.sol\":1203:1209  source */\n      dup9\n        /* \"contracts/1_AirlineTickets.sol\":1089:1362  Flight({... */\n      dup2\n      mstore\n      0x20\n      add\n        /* \"contracts/1_AirlineTickets.sol\":1237:1248  destination */\n      dup8\n        /* \"contracts/1_AirlineTickets.sol\":1089:1362  Flight({... */\n      dup2\n      mstore\n      0x20\n      add\n        /* \"contracts/1_AirlineTickets.sol\":1306:1320  availableSeats */\n      dup6\n        /* \"contracts/1_AirlineTickets.sol\":1089:1362  Flight({... */\n      dup2\n      mstore\n      0x20\n      add\n        /* \"contracts/1_AirlineTickets.sol\":1270:1275  price */\n      dup7\n        /* \"contracts/1_AirlineTickets.sol\":1089:1362  Flight({... */\n      dup2\n      mstore\n      0x20\n      add\n        /* \"contracts/1_AirlineTickets.sol\":1345:1349  true */\n      0x01\n        /* \"contracts/1_AirlineTickets.sol\":1089:1362  Flight({... */\n      iszero\n      iszero\n      dup2\n      mstore\n      pop\n        /* \"contracts/1_AirlineTickets.sol\":1066:1362  Flight memory flight = Flight({... */\n      swap1\n      pop\n        /* \"contracts/1_AirlineTickets.sol\":1401:1407  flight */\n      dup1\n        /* \"contracts/1_AirlineTickets.sol\":1375:1388  flightDetails */\n      0x02\n        /* \"contracts/1_AirlineTickets.sol\":1375:1398  flightDetails[flightId] */\n      0x00\n        /* \"contracts/1_AirlineTickets.sol\":1389:1397  flightId */\n      dup5\n        /* \"contracts/1_AirlineTickets.sol\":1375:1398  flightDetails[flightId] */\n      dup2\n      mstore\n      0x20\n      add\n      swap1\n      dup2\n      mstore\n      0x20\n      add\n      0x00\n      keccak256\n        /* \"contracts/1_AirlineTickets.sol\":1375:1407  flightDetails[flightId] = flight */\n      0x00\n      dup3\n      add\n      mload\n      dup2\n      0x00\n      add\n      swap1\n      dup2\n      tag_99\n      swap2\n      swap1\n      tag_100\n      jump\t// in\n    tag_99:\n      pop\n      0x20\n      dup3\n      add\n      mload\n      dup2\n      0x01\n      add\n      sstore\n      0x40\n      dup3\n      add\n      mload\n      dup2\n      0x02\n      add\n      swap1\n      dup2\n      tag_101\n      swap2\n      swap1\n      tag_100\n      jump\t// in\n    tag_101:\n      pop\n      0x60\n      dup3\n      add\n      mload\n      dup2\n      0x03\n      add\n      swap1\n      dup2\n      tag_102\n      swap2\n      swap1\n      tag_100\n      jump\t// in\n    tag_102:\n      pop\n      0x80\n      dup3\n      add\n      mload\n      dup2\n      0x04\n      add\n      sstore\n      0xa0\n      dup3\n      add\n      mload\n      dup2\n      0x05\n      add\n      sstore\n      0xc0\n      dup3\n      add\n      mload\n      dup2\n      0x06\n      add\n      exp(0x0100, 0x00)\n      dup2\n      sload\n      dup2\n      0xff\n      mul\n      not\n      and\n      swap1\n      dup4\n      iszero\n      iszero\n      mul\n      or\n      swap1\n      sstore\n      pop\n      swap1\n      pop\n      pop\n        /* \"contracts/1_AirlineTickets.sol\":1437:1445  flightId */\n      dup2\n        /* \"contracts/1_AirlineTickets.sol\":1423:1460  FlightCreated(flightId, flightNumber) */\n      0x289a97add868960e9e3eb95236571e2bf825c647b73aea44b134082336ed4ed0\n        /* \"contracts/1_AirlineTickets.sol\":1447:1459  flightNumber */\n      dup11\n        /* \"contracts/1_AirlineTickets.sol\":1423:1460  FlightCreated(flightId, flightNumber) */\n      mload(0x40)\n      tag_103\n      swap2\n      swap1\n      tag_104\n      jump\t// in\n    tag_103:\n      mload(0x40)\n      dup1\n      swap2\n      sub\n      swap1\n      log2\n        /* \"contracts/1_AirlineTickets.sol\":1478:1486  flightId */\n      dup2\n        /* \"contracts/1_AirlineTickets.sol\":1471:1486  return flightId */\n      swap3\n      pop\n      pop\n      pop\n        /* \"contracts/1_AirlineTickets.sol\":715:1494  function createFlight(string memory flightNumber, uint256 departureTime, string memory source, string memory destination, uint256 price, uint256 availableSeats ) external onlyOwner returns (uint256) {... */\n      swap7\n      swap6\n      pop\n      pop\n      pop\n      pop\n      pop\n      pop\n      jump\t// out\n        /* \"contracts/1_AirlineTickets.sol\":1709:2292  function purchaseTicket(uint256 flightId, uint256 ticketsCount) external payable  {... */\n    tag_41:\n        /* \"contracts/1_AirlineTickets.sol\":1802:1823  Flight storage flight */\n      0x00\n        /* \"contracts/1_AirlineTickets.sol\":1826:1839  flightDetails */\n      0x02\n        /* \"contracts/1_AirlineTickets.sol\":1826:1849  flightDetails[flightId] */\n      0x00\n        /* \"contracts/1_AirlineTickets.sol\":1840:1848  flightId */\n      dup5\n        /* \"contracts/1_AirlineTickets.sol\":1826:1849  flightDetails[flightId] */\n      dup2\n      mstore\n      0x20\n      add\n      swap1\n      dup2\n      mstore\n      0x20\n      add\n      0x00\n      keccak256\n        /* \"contracts/1_AirlineTickets.sol\":1802:1849  Flight storage flight = flightDetails[flightId] */\n      swap1\n      pop\n        /* \"contracts/1_AirlineTickets.sol\":1879:1898  totalFlightsCreated */\n      sload(0x01)\n        /* \"contracts/1_AirlineTickets.sol\":1868:1876  flightId */\n      dup4\n        /* \"contracts/1_AirlineTickets.sol\":1868:1898  flightId < totalFlightsCreated */\n      lt\n        /* \"contracts/1_AirlineTickets.sol\":1860:1920  require(flightId < totalFlightsCreated, \"Invalid flight id\") */\n      tag_106\n      jumpi\n      mload(0x40)\n      0x08c379a000000000000000000000000000000000000000000000000000000000\n      dup2\n      mstore\n      0x04\n      add\n      tag_107\n      swap1\n      tag_52\n      jump\t// in\n    tag_107:\n      mload(0x40)\n      dup1\n      swap2\n      sub\n      swap1\n      revert\n    tag_106:\n        /* \"contracts/1_AirlineTickets.sol\":1954:1955  0 */\n      0x00\n        /* \"contracts/1_AirlineTickets.sol\":1939:1951  ticketsCount */\n      dup3\n        /* \"contracts/1_AirlineTickets.sol\":1939:1955  ticketsCount > 0 */\n      gt\n        /* \"contracts/1_AirlineTickets.sol\":1931:1980  require(ticketsCount > 0, \"Invalid ticket count\") */\n      tag_108\n      jumpi\n      mload(0x40)\n      0x08c379a000000000000000000000000000000000000000000000000000000000\n      dup2\n      mstore\n      0x04\n      add\n      tag_109\n      swap1\n      tag_110\n      jump\t// in\n    tag_109:\n      mload(0x40)\n      dup1\n      swap2\n      sub\n      swap1\n      revert\n    tag_108:\n        /* \"contracts/1_AirlineTickets.sol\":2039:2040  0 */\n      0x00\n        /* \"contracts/1_AirlineTickets.sol\":2023:2035  ticketsCount */\n      dup3\n        /* \"contracts/1_AirlineTickets.sol\":1999:2005  flight */\n      dup3\n        /* \"contracts/1_AirlineTickets.sol\":1999:2020  flight.availableSeats */\n      0x04\n      add\n      sload\n        /* \"contracts/1_AirlineTickets.sol\":1999:2035  flight.availableSeats - ticketsCount */\n      tag_111\n      swap2\n      swap1\n      tag_112\n      jump\t// in\n    tag_111:\n        /* \"contracts/1_AirlineTickets.sol\":1999:2040  flight.availableSeats - ticketsCount >= 0 */\n      lt\n      iszero\n        /* \"contracts/1_AirlineTickets.sol\":1991:2073  require(flight.availableSeats - ticketsCount >= 0, \"Sorry! not enough seats left\") */\n      tag_113\n      jumpi\n      mload(0x40)\n      0x08c379a000000000000000000000000000000000000000000000000000000000\n      dup2\n      mstore\n      0x04\n      add\n      tag_114\n      swap1\n      tag_115\n      jump\t// in\n    tag_114:\n      mload(0x40)\n      dup1\n      swap2\n      sub\n      swap1\n      revert\n    tag_113:\n        /* \"contracts/1_AirlineTickets.sol\":2120:2132  ticketsCount */\n      dup2\n        /* \"contracts/1_AirlineTickets.sol\":2105:2111  flight */\n      dup2\n        /* \"contracts/1_AirlineTickets.sol\":2105:2117  flight.price */\n      0x05\n      add\n      sload\n        /* \"contracts/1_AirlineTickets.sol\":2105:2132  flight.price * ticketsCount */\n      tag_116\n      swap2\n      swap1\n      tag_117\n      jump\t// in\n    tag_116:\n        /* \"contracts/1_AirlineTickets.sol\":2092:2101  msg.value */\n      callvalue\n        /* \"contracts/1_AirlineTickets.sol\":2092:2132  msg.value >= flight.price * ticketsCount */\n      lt\n      iszero\n        /* \"contracts/1_AirlineTickets.sol\":2084:2156  require(msg.value >= flight.price * ticketsCount, \"Insufficient amount\") */\n      tag_118\n      jumpi\n      mload(0x40)\n      0x08c379a000000000000000000000000000000000000000000000000000000000\n      dup2\n      mstore\n      0x04\n      add\n      tag_119\n      swap1\n      tag_120\n      jump\t// in\n    tag_119:\n      mload(0x40)\n      dup1\n      swap2\n      sub\n      swap1\n      revert\n    tag_118:\n        /* \"contracts/1_AirlineTickets.sol\":2219:2231  ticketsCount */\n      dup2\n        /* \"contracts/1_AirlineTickets.sol\":2177:2190  flightDetails */\n      0x02\n        /* \"contracts/1_AirlineTickets.sol\":2177:2200  flightDetails[flightId] */\n      0x00\n        /* \"contracts/1_AirlineTickets.sol\":2191:2199  flightId */\n      dup6\n        /* \"contracts/1_AirlineTickets.sol\":2177:2200  flightDetails[flightId] */\n      dup2\n      mstore\n      0x20\n      add\n      swap1\n      dup2\n      mstore\n      0x20\n      add\n      0x00\n      keccak256\n        /* \"contracts/1_AirlineTickets.sol\":2177:2215  flightDetails[flightId].availableSeats */\n      0x04\n      add\n      0x00\n        /* \"contracts/1_AirlineTickets.sol\":2177:2231  flightDetails[flightId].availableSeats -= ticketsCount */\n      dup3\n      dup3\n      sload\n      tag_121\n      swap2\n      swap1\n      tag_112\n      jump\t// in\n    tag_121:\n      swap3\n      pop\n      pop\n      dup2\n      swap1\n      sstore\n      pop\n        /* \"contracts/1_AirlineTickets.sol\":2273:2283  msg.sender */\n      caller\n        /* \"contracts/1_AirlineTickets.sol\":2247:2284  TicketPurchased(flightId, msg.sender) */\n      0xffffffffffffffffffffffffffffffffffffffff\n      and\n        /* \"contracts/1_AirlineTickets.sol\":2263:2271  flightId */\n      dup4\n        /* \"contracts/1_AirlineTickets.sol\":2247:2284  TicketPurchased(flightId, msg.sender) */\n      0x785f2865353ae960010300f584fc6c577b757a853af69a99c769df3c8232d3de\n      mload(0x40)\n      mload(0x40)\n      dup1\n      swap2\n      sub\n      swap1\n      log3\n        /* \"contracts/1_AirlineTickets.sol\":1791:2292  {... */\n      pop\n        /* \"contracts/1_AirlineTickets.sol\":1709:2292  function purchaseTicket(uint256 flightId, uint256 ticketsCount) external payable  {... */\n      pop\n      pop\n      jump\t// out\n        /* \"@openzeppelin/contracts/access/Ownable.sol\":2543:2758  function transferOwnership(address newOwner) public virtual onlyOwner {... */\n    tag_46:\n        /* \"@openzeppelin/contracts/access/Ownable.sol\":1531:1544  _checkOwner() */\n      tag_123\n        /* \"@openzeppelin/contracts/access/Ownable.sol\":1531:1542  _checkOwner */\n      tag_86\n        /* \"@openzeppelin/contracts/access/Ownable.sol\":1531:1544  _checkOwner() */\n      jump\t// in\n    tag_123:\n        /* \"@openzeppelin/contracts/access/Ownable.sol\":2647:2648  0 */\n      0x00\n        /* \"@openzeppelin/contracts/access/Ownable.sol\":2627:2649  newOwner == address(0) */\n      0xffffffffffffffffffffffffffffffffffffffff\n      and\n        /* \"@openzeppelin/contracts/access/Ownable.sol\":2627:2635  newOwner */\n      dup2\n        /* \"@openzeppelin/contracts/access/Ownable.sol\":2627:2649  newOwner == address(0) */\n      0xffffffffffffffffffffffffffffffffffffffff\n      and\n      sub\n        /* \"@openzeppelin/contracts/access/Ownable.sol\":2623:2714  if (newOwner == address(0)) {... */\n      tag_125\n      jumpi\n        /* \"@openzeppelin/contracts/access/Ownable.sol\":2700:2701  0 */\n      0x00\n        /* \"@openzeppelin/contracts/access/Ownable.sol\":2672:2703  OwnableInvalidOwner(address(0)) */\n      mload(0x40)\n      0x1e4fbdf700000000000000000000000000000000000000000000000000000000\n      dup2\n      mstore\n      0x04\n      add\n      tag_126\n      swap2\n      swap1\n      tag_30\n      jump\t// in\n    tag_126:\n      mload(0x40)\n      dup1\n      swap2\n      sub\n      swap1\n      revert\n        /* \"@openzeppelin/contracts/access/Ownable.sol\":2623:2714  if (newOwner == address(0)) {... */\n    tag_125:\n        /* \"@openzeppelin/contracts/access/Ownable.sol\":2723:2751  _transferOwnership(newOwner) */\n      tag_127\n        /* \"@openzeppelin/contracts/access/Ownable.sol\":2742:2750  newOwner */\n      dup2\n        /* \"@openzeppelin/contracts/access/Ownable.sol\":2723:2741  _transferOwnership */\n      tag_89\n        /* \"@openzeppelin/contracts/access/Ownable.sol\":2723:2751  _transferOwnership(newOwner) */\n      jump\t// in\n    tag_127:\n        /* \"@openzeppelin/contracts/access/Ownable.sol\":2543:2758  function transferOwnership(address newOwner) public virtual onlyOwner {... */\n      pop\n      jump\t// out\n        /* \"@openzeppelin/contracts/access/Ownable.sol\":1796:1958  function _checkOwner() internal view virtual {... */\n    tag_86:\n        /* \"@openzeppelin/contracts/access/Ownable.sol\":1866:1878  _msgSender() */\n      tag_129\n        /* \"@openzeppelin/contracts/access/Ownable.sol\":1866:1876  _msgSender */\n      tag_130\n        /* \"@openzeppelin/contracts/access/Ownable.sol\":1866:1878  _msgSender() */\n      jump\t// in\n    tag_129:\n        /* \"@openzeppelin/contracts/access/Ownable.sol\":1855:1878  owner() != _msgSender() */\n      0xffffffffffffffffffffffffffffffffffffffff\n      and\n        /* \"@openzeppelin/contracts/access/Ownable.sol\":1855:1862  owner() */\n      tag_131\n        /* \"@openzeppelin/contracts/access/Ownable.sol\":1855:1860  owner */\n      tag_28\n        /* \"@openzeppelin/contracts/access/Ownable.sol\":1855:1862  owner() */\n      jump\t// in\n    tag_131:\n        /* \"@openzeppelin/contracts/access/Ownable.sol\":1855:1878  owner() != _msgSender() */\n      0xffffffffffffffffffffffffffffffffffffffff\n      and\n      eq\n        /* \"@openzeppelin/contracts/access/Ownable.sol\":1851:1952  if (owner() != _msgSender()) {... */\n      tag_132\n      jumpi\n        /* \"@openzeppelin/contracts/access/Ownable.sol\":1928:1940  _msgSender() */\n      tag_133\n        /* \"@openzeppelin/contracts/access/Ownable.sol\":1928:1938  _msgSender */\n      tag_130\n        /* \"@openzeppelin/contracts/access/Ownable.sol\":1928:1940  _msgSender() */\n      jump\t// in\n    tag_133:\n        /* \"@openzeppelin/contracts/access/Ownable.sol\":1901:1941  OwnableUnauthorizedAccount(_msgSender()) */\n      mload(0x40)\n      0x118cdaa700000000000000000000000000000000000000000000000000000000\n      dup2\n      mstore\n      0x04\n      add\n      tag_134\n      swap2\n      swap1\n      tag_30\n      jump\t// in\n    tag_134:\n      mload(0x40)\n      dup1\n      swap2\n      sub\n      swap1\n      revert\n        /* \"@openzeppelin/contracts/access/Ownable.sol\":1851:1952  if (owner() != _msgSender()) {... */\n    tag_132:\n        /* \"@openzeppelin/contracts/access/Ownable.sol\":1796:1958  function _checkOwner() internal view virtual {... */\n      jump\t// out\n        /* \"@openzeppelin/contracts/access/Ownable.sol\":2912:3099  function _transferOwnership(address newOwner) internal virtual {... */\n    tag_89:\n        /* \"@openzeppelin/contracts/access/Ownable.sol\":2985:3001  address oldOwner */\n      0x00\n        /* \"@openzeppelin/contracts/access/Ownable.sol\":3004:3010  _owner */\n      dup1\n      0x00\n      swap1\n      sload\n      swap1\n      0x0100\n      exp\n      swap1\n      div\n      0xffffffffffffffffffffffffffffffffffffffff\n      and\n        /* \"@openzeppelin/contracts/access/Ownable.sol\":2985:3010  address oldOwner = _owner */\n      swap1\n      pop\n        /* \"@openzeppelin/contracts/access/Ownable.sol\":3029:3037  newOwner */\n      dup2\n        /* \"@openzeppelin/contracts/access/Ownable.sol\":3020:3026  _owner */\n      0x00\n      dup1\n        /* \"@openzeppelin/contracts/access/Ownable.sol\":3020:3037  _owner = newOwner */\n      0x0100\n      exp\n      dup2\n      sload\n      dup2\n      0xffffffffffffffffffffffffffffffffffffffff\n      mul\n      not\n      and\n      swap1\n      dup4\n      0xffffffffffffffffffffffffffffffffffffffff\n      and\n      mul\n      or\n      swap1\n      sstore\n      pop\n        /* \"@openzeppelin/contracts/access/Ownable.sol\":3083:3091  newOwner */\n      dup2\n        /* \"@openzeppelin/contracts/access/Ownable.sol\":3052:3092  OwnershipTransferred(oldOwner, newOwner) */\n      0xffffffffffffffffffffffffffffffffffffffff\n      and\n        /* \"@openzeppelin/contracts/access/Ownable.sol\":3073:3081  oldOwner */\n      dup2\n        /* \"@openzeppelin/contracts/access/Ownable.sol\":3052:3092  OwnershipTransferred(oldOwner, newOwner) */\n      0xffffffffffffffffffffffffffffffffffffffff\n      and\n      0x8be0079c531659141344cd1fd0a4f28419497f9722a3daafe3b4186f6b6457e0\n      mload(0x40)\n      mload(0x40)\n      dup1\n      swap2\n      sub\n      swap1\n      log3\n        /* \"@openzeppelin/contracts/access/Ownable.sol\":2975:3099  {... */\n      pop\n        /* \"@openzeppelin/contracts/access/Ownable.sol\":2912:3099  function _transferOwnership(address newOwner) internal virtual {... */\n      pop\n      jump\t// out\n        /* \"@openzeppelin/contracts/utils/Context.sol\":656:752  function _msgSender() internal view virtual returns (address) {... */\n    tag_130:\n        /* \"@openzeppelin/contracts/utils/Context.sol\":709:716  address */\n      0x00\n        /* \"@openzeppelin/contracts/utils/Context.sol\":735:745  msg.sender */\n      caller\n        /* \"@openzeppelin/contracts/utils/Context.sol\":728:745  return msg.sender */\n      swap1\n      pop\n        /* \"@openzeppelin/contracts/utils/Context.sol\":656:752  function _msgSender() internal view virtual returns (address) {... */\n      swap1\n      jump\t// out\n    tag_48:\n      mload(0x40)\n      dup1\n      0xe0\n      add\n      0x40\n      mstore\n      dup1\n      0x60\n      dup2\n      mstore\n      0x20\n      add\n      0x00\n      dup2\n      mstore\n      0x20\n      add\n      0x60\n      dup2\n      mstore\n      0x20\n      add\n      0x60\n      dup2\n      mstore\n      0x20\n      add\n      0x00\n      dup2\n      mstore\n      0x20\n      add\n      0x00\n      dup2\n      mstore\n      0x20\n      add\n      iszero(iszero(0x00))\n      dup2\n      mstore\n      pop\n      swap1\n      jump\t// out\n        /* \"#utility.yul\":7:82   */\n    tag_137:\n        /* \"#utility.yul\":40:46   */\n      0x00\n        /* \"#utility.yul\":73:75   */\n      0x40\n        /* \"#utility.yul\":67:76   */\n      mload\n        /* \"#utility.yul\":57:76   */\n      swap1\n      pop\n        /* \"#utility.yul\":7:82   */\n      swap1\n      jump\t// out\n        /* \"#utility.yul\":88:205   */\n    tag_138:\n        /* \"#utility.yul\":197:198   */\n      0x00\n        /* \"#utility.yul\":194:195   */\n      dup1\n        /* \"#utility.yul\":187:199   */\n      revert\n        /* \"#utility.yul\":211:328   */\n    tag_139:\n        /* \"#utility.yul\":320:321   */\n      0x00\n        /* \"#utility.yul\":317:318   */\n      dup1\n        /* \"#utility.yul\":310:322   */\n      revert\n        /* \"#utility.yul\":334:411   */\n    tag_140:\n        /* \"#utility.yul\":371:378   */\n      0x00\n        /* \"#utility.yul\":400:405   */\n      dup2\n        /* \"#utility.yul\":389:405   */\n      swap1\n      pop\n        /* \"#utility.yul\":334:411   */\n      swap2\n      swap1\n      pop\n      jump\t// out\n        /* \"#utility.yul\":417:539   */\n    tag_141:\n        /* \"#utility.yul\":490:514   */\n      tag_203\n        /* \"#utility.yul\":508:513   */\n      dup2\n        /* \"#utility.yul\":490:514   */\n      tag_140\n      jump\t// in\n    tag_203:\n        /* \"#utility.yul\":483:488   */\n      dup2\n        /* \"#utility.yul\":480:515   */\n      eq\n        /* \"#utility.yul\":470:533   */\n      tag_204\n      jumpi\n        /* \"#utility.yul\":529:530   */\n      0x00\n        /* \"#utility.yul\":526:527   */\n      dup1\n        /* \"#utility.yul\":519:531   */\n      revert\n        /* \"#utility.yul\":470:533   */\n    tag_204:\n        /* \"#utility.yul\":417:539   */\n      pop\n      jump\t// out\n        /* \"#utility.yul\":545:684   */\n    tag_142:\n        /* \"#utility.yul\":591:596   */\n      0x00\n        /* \"#utility.yul\":629:635   */\n      dup2\n        /* \"#utility.yul\":616:636   */\n      calldataload\n        /* \"#utility.yul\":607:636   */\n      swap1\n      pop\n        /* \"#utility.yul\":645:678   */\n      tag_206\n        /* \"#utility.yul\":672:677   */\n      dup2\n        /* \"#utility.yul\":645:678   */\n      tag_141\n      jump\t// in\n    tag_206:\n        /* \"#utility.yul\":545:684   */\n      swap3\n      swap2\n      pop\n      pop\n      jump\t// out\n        /* \"#utility.yul\":690:1019   */\n    tag_13:\n        /* \"#utility.yul\":749:755   */\n      0x00\n        /* \"#utility.yul\":798:800   */\n      0x20\n        /* \"#utility.yul\":786:795   */\n      dup3\n        /* \"#utility.yul\":777:784   */\n      dup5\n        /* \"#utility.yul\":773:796   */\n      sub\n        /* \"#utility.yul\":769:801   */\n      slt\n        /* \"#utility.yul\":766:885   */\n      iszero\n      tag_208\n      jumpi\n        /* \"#utility.yul\":804:883   */\n      tag_209\n      tag_138\n      jump\t// in\n    tag_209:\n        /* \"#utility.yul\":766:885   */\n    tag_208:\n        /* \"#utility.yul\":924:925   */\n      0x00\n        /* \"#utility.yul\":949:1002   */\n      tag_210\n        /* \"#utility.yul\":994:1001   */\n      dup5\n        /* \"#utility.yul\":985:991   */\n      dup3\n        /* \"#utility.yul\":974:983   */\n      dup6\n        /* \"#utility.yul\":970:992   */\n      add\n        /* \"#utility.yul\":949:1002   */\n      tag_142\n      jump\t// in\n    tag_210:\n        /* \"#utility.yul\":939:1002   */\n      swap2\n      pop\n        /* \"#utility.yul\":895:1012   */\n      pop\n        /* \"#utility.yul\":690:1019   */\n      swap3\n      swap2\n      pop\n      pop\n      jump\t// out\n        /* \"#utility.yul\":1025:1124   */\n    tag_143:\n        /* \"#utility.yul\":1077:1083   */\n      0x00\n        /* \"#utility.yul\":1111:1116   */\n      dup2\n        /* \"#utility.yul\":1105:1117   */\n      mload\n        /* \"#utility.yul\":1095:1117   */\n      swap1\n      pop\n        /* \"#utility.yul\":1025:1124   */\n      swap2\n      swap1\n      pop\n      jump\t// out\n        /* \"#utility.yul\":1130:1289   */\n    tag_144:\n        /* \"#utility.yul\":1204:1215   */\n      0x00\n        /* \"#utility.yul\":1238:1244   */\n      dup3\n        /* \"#utility.yul\":1233:1236   */\n      dup3\n        /* \"#utility.yul\":1226:1245   */\n      mstore\n        /* \"#utility.yul\":1278:1282   */\n      0x20\n        /* \"#utility.yul\":1273:1276   */\n      dup3\n        /* \"#utility.yul\":1269:1283   */\n      add\n        /* \"#utility.yul\":1254:1283   */\n      swap1\n      pop\n        /* \"#utility.yul\":1130:1289   */\n      swap3\n      swap2\n      pop\n      pop\n      jump\t// out\n        /* \"#utility.yul\":1295:1434   */\n    tag_145:\n        /* \"#utility.yul\":1384:1390   */\n      dup3\n        /* \"#utility.yul\":1379:1382   */\n      dup2\n        /* \"#utility.yul\":1374:1377   */\n      dup4\n        /* \"#utility.yul\":1368:1391   */\n      mcopy\n        /* \"#utility.yul\":1425:1426   */\n      0x00\n        /* \"#utility.yul\":1416:1422   */\n      dup4\n        /* \"#utility.yul\":1411:1414   */\n      dup4\n        /* \"#utility.yul\":1407:1423   */\n      add\n        /* \"#utility.yul\":1400:1427   */\n      mstore\n        /* \"#utility.yul\":1295:1434   */\n      pop\n      pop\n      pop\n      jump\t// out\n        /* \"#utility.yul\":1440:1542   */\n    tag_146:\n        /* \"#utility.yul\":1481:1487   */\n      0x00\n        /* \"#utility.yul\":1532:1534   */\n      0x1f\n        /* \"#utility.yul\":1528:1535   */\n      not\n        /* \"#utility.yul\":1523:1525   */\n      0x1f\n        /* \"#utility.yul\":1516:1521   */\n      dup4\n        /* \"#utility.yul\":1512:1526   */\n      add\n        /* \"#utility.yul\":1508:1536   */\n      and\n        /* \"#utility.yul\":1498:1536   */\n      swap1\n      pop\n        /* \"#utility.yul\":1440:1542   */\n      swap2\n      swap1\n      pop\n      jump\t// out\n        /* \"#utility.yul\":1548:1905   */\n    tag_147:\n        /* \"#utility.yul\":1626:1629   */\n      0x00\n        /* \"#utility.yul\":1654:1693   */\n      tag_216\n        /* \"#utility.yul\":1687:1692   */\n      dup3\n        /* \"#utility.yul\":1654:1693   */\n      tag_143\n      jump\t// in\n    tag_216:\n        /* \"#utility.yul\":1709:1770   */\n      tag_217\n        /* \"#utility.yul\":1763:1769   */\n      dup2\n        /* \"#utility.yul\":1758:1761   */\n      dup6\n        /* \"#utility.yul\":1709:1770   */\n      tag_144\n      jump\t// in\n    tag_217:\n        /* \"#utility.yul\":1702:1770   */\n      swap4\n      pop\n        /* \"#utility.yul\":1779:1844   */\n      tag_218\n        /* \"#utility.yul\":1837:1843   */\n      dup2\n        /* \"#utility.yul\":1832:1835   */\n      dup6\n        /* \"#utility.yul\":1825:1829   */\n      0x20\n        /* \"#utility.yul\":1818:1823   */\n      dup7\n        /* \"#utility.yul\":1814:1830   */\n      add\n        /* \"#utility.yul\":1779:1844   */\n      tag_145\n      jump\t// in\n    tag_218:\n        /* \"#utility.yul\":1869:1898   */\n      tag_219\n        /* \"#utility.yul\":1891:1897   */\n      dup2\n        /* \"#utility.yul\":1869:1898   */\n      tag_146\n      jump\t// in\n    tag_219:\n        /* \"#utility.yul\":1864:1867   */\n      dup5\n        /* \"#utility.yul\":1860:1899   */\n      add\n        /* \"#utility.yul\":1853:1899   */\n      swap2\n      pop\n        /* \"#utility.yul\":1630:1905   */\n      pop\n        /* \"#utility.yul\":1548:1905   */\n      swap3\n      swap2\n      pop\n      pop\n      jump\t// out\n        /* \"#utility.yul\":1911:2019   */\n    tag_148:\n        /* \"#utility.yul\":1988:2012   */\n      tag_221\n        /* \"#utility.yul\":2006:2011   */\n      dup2\n        /* \"#utility.yul\":1988:2012   */\n      tag_140\n      jump\t// in\n    tag_221:\n        /* \"#utility.yul\":1983:1986   */\n      dup3\n        /* \"#utility.yul\":1976:2013   */\n      mstore\n        /* \"#utility.yul\":1911:2019   */\n      pop\n      pop\n      jump\t// out\n        /* \"#utility.yul\":2025:2115   */\n    tag_149:\n        /* \"#utility.yul\":2059:2066   */\n      0x00\n        /* \"#utility.yul\":2102:2107   */\n      dup2\n        /* \"#utility.yul\":2095:2108   */\n      iszero\n        /* \"#utility.yul\":2088:2109   */\n      iszero\n        /* \"#utility.yul\":2077:2109   */\n      swap1\n      pop\n        /* \"#utility.yul\":2025:2115   */\n      swap2\n      swap1\n      pop\n      jump\t// out\n        /* \"#utility.yul\":2121:2220   */\n    tag_150:\n        /* \"#utility.yul\":2192:2213   */\n      tag_224\n        /* \"#utility.yul\":2207:2212   */\n      dup2\n        /* \"#utility.yul\":2192:2213   */\n      tag_149\n      jump\t// in\n    tag_224:\n        /* \"#utility.yul\":2187:2190   */\n      dup3\n        /* \"#utility.yul\":2180:2214   */\n      mstore\n        /* \"#utility.yul\":2121:2220   */\n      pop\n      pop\n      jump\t// out\n        /* \"#utility.yul\":2292:3941   */\n    tag_151:\n        /* \"#utility.yul\":2407:2410   */\n      0x00\n        /* \"#utility.yul\":2443:2447   */\n      0xe0\n        /* \"#utility.yul\":2438:2441   */\n      dup4\n        /* \"#utility.yul\":2434:2448   */\n      add\n        /* \"#utility.yul\":2538:2542   */\n      0x00\n        /* \"#utility.yul\":2531:2536   */\n      dup4\n        /* \"#utility.yul\":2527:2543   */\n      add\n        /* \"#utility.yul\":2521:2544   */\n      mload\n        /* \"#utility.yul\":2591:2594   */\n      dup5\n        /* \"#utility.yul\":2585:2589   */\n      dup3\n        /* \"#utility.yul\":2581:2595   */\n      sub\n        /* \"#utility.yul\":2574:2578   */\n      0x00\n        /* \"#utility.yul\":2569:2572   */\n      dup7\n        /* \"#utility.yul\":2565:2579   */\n      add\n        /* \"#utility.yul\":2558:2596   */\n      mstore\n        /* \"#utility.yul\":2617:2690   */\n      tag_226\n        /* \"#utility.yul\":2685:2689   */\n      dup3\n        /* \"#utility.yul\":2671:2683   */\n      dup3\n        /* \"#utility.yul\":2617:2690   */\n      tag_147\n      jump\t// in\n    tag_226:\n        /* \"#utility.yul\":2609:2690   */\n      swap2\n      pop\n        /* \"#utility.yul\":2458:2701   */\n      pop\n        /* \"#utility.yul\":2792:2796   */\n      0x20\n        /* \"#utility.yul\":2785:2790   */\n      dup4\n        /* \"#utility.yul\":2781:2797   */\n      add\n        /* \"#utility.yul\":2775:2798   */\n      mload\n        /* \"#utility.yul\":2811:2874   */\n      tag_227\n        /* \"#utility.yul\":2868:2872   */\n      0x20\n        /* \"#utility.yul\":2863:2866   */\n      dup7\n        /* \"#utility.yul\":2859:2873   */\n      add\n        /* \"#utility.yul\":2845:2857   */\n      dup3\n        /* \"#utility.yul\":2811:2874   */\n      tag_148\n      jump\t// in\n    tag_227:\n        /* \"#utility.yul\":2711:2884   */\n      pop\n        /* \"#utility.yul\":2968:2972   */\n      0x40\n        /* \"#utility.yul\":2961:2966   */\n      dup4\n        /* \"#utility.yul\":2957:2973   */\n      add\n        /* \"#utility.yul\":2951:2974   */\n      mload\n        /* \"#utility.yul\":3021:3024   */\n      dup5\n        /* \"#utility.yul\":3015:3019   */\n      dup3\n        /* \"#utility.yul\":3011:3025   */\n      sub\n        /* \"#utility.yul\":3004:3008   */\n      0x40\n        /* \"#utility.yul\":2999:3002   */\n      dup7\n        /* \"#utility.yul\":2995:3009   */\n      add\n        /* \"#utility.yul\":2988:3026   */\n      mstore\n        /* \"#utility.yul\":3047:3120   */\n      tag_228\n        /* \"#utility.yul\":3115:3119   */\n      dup3\n        /* \"#utility.yul\":3101:3113   */\n      dup3\n        /* \"#utility.yul\":3047:3120   */\n      tag_147\n      jump\t// in\n    tag_228:\n        /* \"#utility.yul\":3039:3120   */\n      swap2\n      pop\n        /* \"#utility.yul\":2894:3131   */\n      pop\n        /* \"#utility.yul\":3220:3224   */\n      0x60\n        /* \"#utility.yul\":3213:3218   */\n      dup4\n        /* \"#utility.yul\":3209:3225   */\n      add\n        /* \"#utility.yul\":3203:3226   */\n      mload\n        /* \"#utility.yul\":3273:3276   */\n      dup5\n        /* \"#utility.yul\":3267:3271   */\n      dup3\n        /* \"#utility.yul\":3263:3277   */\n      sub\n        /* \"#utility.yul\":3256:3260   */\n      0x60\n        /* \"#utility.yul\":3251:3254   */\n      dup7\n        /* \"#utility.yul\":3247:3261   */\n      add\n        /* \"#utility.yul\":3240:3278   */\n      mstore\n        /* \"#utility.yul\":3299:3372   */\n      tag_229\n        /* \"#utility.yul\":3367:3371   */\n      dup3\n        /* \"#utility.yul\":3353:3365   */\n      dup3\n        /* \"#utility.yul\":3299:3372   */\n      tag_147\n      jump\t// in\n    tag_229:\n        /* \"#utility.yul\":3291:3372   */\n      swap2\n      pop\n        /* \"#utility.yul\":3141:3383   */\n      pop\n        /* \"#utility.yul\":3475:3479   */\n      0x80\n        /* \"#utility.yul\":3468:3473   */\n      dup4\n        /* \"#utility.yul\":3464:3480   */\n      add\n        /* \"#utility.yul\":3458:3481   */\n      mload\n        /* \"#utility.yul\":3494:3557   */\n      tag_230\n        /* \"#utility.yul\":3551:3555   */\n      0x80\n        /* \"#utility.yul\":3546:3549   */\n      dup7\n        /* \"#utility.yul\":3542:3556   */\n      add\n        /* \"#utility.yul\":3528:3540   */\n      dup3\n        /* \"#utility.yul\":3494:3557   */\n      tag_148\n      jump\t// in\n    tag_230:\n        /* \"#utility.yul\":3393:3567   */\n      pop\n        /* \"#utility.yul\":3650:3654   */\n      0xa0\n        /* \"#utility.yul\":3643:3648   */\n      dup4\n        /* \"#utility.yul\":3639:3655   */\n      add\n        /* \"#utility.yul\":3633:3656   */\n      mload\n        /* \"#utility.yul\":3669:3732   */\n      tag_231\n        /* \"#utility.yul\":3726:3730   */\n      0xa0\n        /* \"#utility.yul\":3721:3724   */\n      dup7\n        /* \"#utility.yul\":3717:3731   */\n      add\n        /* \"#utility.yul\":3703:3715   */\n      dup3\n        /* \"#utility.yul\":3669:3732   */\n      tag_148\n      jump\t// in\n    tag_231:\n        /* \"#utility.yul\":3577:3742   */\n      pop\n        /* \"#utility.yul\":3828:3832   */\n      0xc0\n        /* \"#utility.yul\":3821:3826   */\n      dup4\n        /* \"#utility.yul\":3817:3833   */\n      add\n        /* \"#utility.yul\":3811:3834   */\n      mload\n        /* \"#utility.yul\":3847:3904   */\n      tag_232\n        /* \"#utility.yul\":3898:3902   */\n      0xc0\n        /* \"#utility.yul\":3893:3896   */\n      dup7\n        /* \"#utility.yul\":3889:3903   */\n      add\n        /* \"#utility.yul\":3875:3887   */\n      dup3\n        /* \"#utility.yul\":3847:3904   */\n      tag_150\n      jump\t// in\n    tag_232:\n        /* \"#utility.yul\":3752:3914   */\n      pop\n        /* \"#utility.yul\":3931:3935   */\n      dup1\n        /* \"#utility.yul\":3924:3935   */\n      swap2\n      pop\n        /* \"#utility.yul\":2412:3941   */\n      pop\n        /* \"#utility.yul\":2292:3941   */\n      swap3\n      swap2\n      pop\n      pop\n      jump\t// out\n        /* \"#utility.yul\":3947:4312   */\n    tag_16:\n        /* \"#utility.yul\":4086:4090   */\n      0x00\n        /* \"#utility.yul\":4124:4126   */\n      0x20\n        /* \"#utility.yul\":4113:4122   */\n      dup3\n        /* \"#utility.yul\":4109:4127   */\n      add\n        /* \"#utility.yul\":4101:4127   */\n      swap1\n      pop\n        /* \"#utility.yul\":4173:4182   */\n      dup2\n        /* \"#utility.yul\":4167:4171   */\n      dup2\n        /* \"#utility.yul\":4163:4183   */\n      sub\n        /* \"#utility.yul\":4159:4160   */\n      0x00\n        /* \"#utility.yul\":4148:4157   */\n      dup4\n        /* \"#utility.yul\":4144:4161   */\n      add\n        /* \"#utility.yul\":4137:4184   */\n      mstore\n        /* \"#utility.yul\":4201:4305   */\n      tag_234\n        /* \"#utility.yul\":4300:4304   */\n      dup2\n        /* \"#utility.yul\":4291:4297   */\n      dup5\n        /* \"#utility.yul\":4201:4305   */\n      tag_151\n      jump\t// in\n    tag_234:\n        /* \"#utility.yul\":4193:4305   */\n      swap1\n      pop\n        /* \"#utility.yul\":3947:4312   */\n      swap3\n      swap2\n      pop\n      pop\n      jump\t// out\n        /* \"#utility.yul\":4318:4487   */\n    tag_152:\n        /* \"#utility.yul\":4402:4413   */\n      0x00\n        /* \"#utility.yul\":4436:4442   */\n      dup3\n        /* \"#utility.yul\":4431:4434   */\n      dup3\n        /* \"#utility.yul\":4424:4443   */\n      mstore\n        /* \"#utility.yul\":4476:4480   */\n      0x20\n        /* \"#utility.yul\":4471:4474   */\n      dup3\n        /* \"#utility.yul\":4467:4481   */\n      add\n        /* \"#utility.yul\":4452:4481   */\n      swap1\n      pop\n        /* \"#utility.yul\":4318:4487   */\n      swap3\n      swap2\n      pop\n      pop\n      jump\t// out\n        /* \"#utility.yul\":4493:4870   */\n    tag_153:\n        /* \"#utility.yul\":4581:4584   */\n      0x00\n        /* \"#utility.yul\":4609:4648   */\n      tag_237\n        /* \"#utility.yul\":4642:4647   */\n      dup3\n        /* \"#utility.yul\":4609:4648   */\n      tag_143\n      jump\t// in\n    tag_237:\n        /* \"#utility.yul\":4664:4735   */\n      tag_238\n        /* \"#utility.yul\":4728:4734   */\n      dup2\n        /* \"#utility.yul\":4723:4726   */\n      dup6\n        /* \"#utility.yul\":4664:4735   */\n      tag_152\n      jump\t// in\n    tag_238:\n        /* \"#utility.yul\":4657:4735   */\n      swap4\n      pop\n        /* \"#utility.yul\":4744:4809   */\n      tag_239\n        /* \"#utility.yul\":4802:4808   */\n      dup2\n        /* \"#utility.yul\":4797:4800   */\n      dup6\n        /* \"#utility.yul\":4790:4794   */\n      0x20\n        /* \"#utility.yul\":4783:4788   */\n      dup7\n        /* \"#utility.yul\":4779:4795   */\n      add\n        /* \"#utility.yul\":4744:4809   */\n      tag_145\n      jump\t// in\n    tag_239:\n        /* \"#utility.yul\":4834:4863   */\n      tag_240\n        /* \"#utility.yul\":4856:4862   */\n      dup2\n        /* \"#utility.yul\":4834:4863   */\n      tag_146\n      jump\t// in\n    tag_240:\n        /* \"#utility.yul\":4829:4832   */\n      dup5\n        /* \"#utility.yul\":4825:4864   */\n      add\n        /* \"#utility.yul\":4818:4864   */\n      swap2\n      pop\n        /* \"#utility.yul\":4585:4870   */\n      pop\n        /* \"#utility.yul\":4493:4870   */\n      swap3\n      swap2\n      pop\n      pop\n      jump\t// out\n        /* \"#utility.yul\":4876:4994   */\n    tag_154:\n        /* \"#utility.yul\":4963:4987   */\n      tag_242\n        /* \"#utility.yul\":4981:4986   */\n      dup2\n        /* \"#utility.yul\":4963:4987   */\n      tag_140\n      jump\t// in\n    tag_242:\n        /* \"#utility.yul\":4958:4961   */\n      dup3\n        /* \"#utility.yul\":4951:4988   */\n      mstore\n        /* \"#utility.yul\":4876:4994   */\n      pop\n      pop\n      jump\t// out\n        /* \"#utility.yul\":5000:5109   */\n    tag_155:\n        /* \"#utility.yul\":5081:5102   */\n      tag_244\n        /* \"#utility.yul\":5096:5101   */\n      dup2\n        /* \"#utility.yul\":5081:5102   */\n      tag_149\n      jump\t// in\n    tag_244:\n        /* \"#utility.yul\":5076:5079   */\n      dup3\n        /* \"#utility.yul\":5069:5103   */\n      mstore\n        /* \"#utility.yul\":5000:5109   */\n      pop\n      pop\n      jump\t// out\n        /* \"#utility.yul\":5115:6262   */\n    tag_22:\n        /* \"#utility.yul\":5430:5434   */\n      0x00\n        /* \"#utility.yul\":5468:5471   */\n      0xe0\n        /* \"#utility.yul\":5457:5466   */\n      dup3\n        /* \"#utility.yul\":5453:5472   */\n      add\n        /* \"#utility.yul\":5445:5472   */\n      swap1\n      pop\n        /* \"#utility.yul\":5518:5527   */\n      dup2\n        /* \"#utility.yul\":5512:5516   */\n      dup2\n        /* \"#utility.yul\":5508:5528   */\n      sub\n        /* \"#utility.yul\":5504:5505   */\n      0x00\n        /* \"#utility.yul\":5493:5502   */\n      dup4\n        /* \"#utility.yul\":5489:5506   */\n      add\n        /* \"#utility.yul\":5482:5529   */\n      mstore\n        /* \"#utility.yul\":5546:5624   */\n      tag_246\n        /* \"#utility.yul\":5619:5623   */\n      dup2\n        /* \"#utility.yul\":5610:5616   */\n      dup11\n        /* \"#utility.yul\":5546:5624   */\n      tag_153\n      jump\t// in\n    tag_246:\n        /* \"#utility.yul\":5538:5624   */\n      swap1\n      pop\n        /* \"#utility.yul\":5634:5706   */\n      tag_247\n        /* \"#utility.yul\":5702:5704   */\n      0x20\n        /* \"#utility.yul\":5691:5700   */\n      dup4\n        /* \"#utility.yul\":5687:5705   */\n      add\n        /* \"#utility.yul\":5678:5684   */\n      dup10\n        /* \"#utility.yul\":5634:5706   */\n      tag_154\n      jump\t// in\n    tag_247:\n        /* \"#utility.yul\":5753:5762   */\n      dup2\n        /* \"#utility.yul\":5747:5751   */\n      dup2\n        /* \"#utility.yul\":5743:5763   */\n      sub\n        /* \"#utility.yul\":5738:5740   */\n      0x40\n        /* \"#utility.yul\":5727:5736   */\n      dup4\n        /* \"#utility.yul\":5723:5741   */\n      add\n        /* \"#utility.yul\":5716:5764   */\n      mstore\n        /* \"#utility.yul\":5781:5859   */\n      tag_248\n        /* \"#utility.yul\":5854:5858   */\n      dup2\n        /* \"#utility.yul\":5845:5851   */\n      dup9\n        /* \"#utility.yul\":5781:5859   */\n      tag_153\n      jump\t// in\n    tag_248:\n        /* \"#utility.yul\":5773:5859   */\n      swap1\n      pop\n        /* \"#utility.yul\":5906:5915   */\n      dup2\n        /* \"#utility.yul\":5900:5904   */\n      dup2\n        /* \"#utility.yul\":5896:5916   */\n      sub\n        /* \"#utility.yul\":5891:5893   */\n      0x60\n        /* \"#utility.yul\":5880:5889   */\n      dup4\n        /* \"#utility.yul\":5876:5894   */\n      add\n        /* \"#utility.yul\":5869:5917   */\n      mstore\n        /* \"#utility.yul\":5934:6012   */\n      tag_249\n        /* \"#utility.yul\":6007:6011   */\n      dup2\n        /* \"#utility.yul\":5998:6004   */\n      dup8\n        /* \"#utility.yul\":5934:6012   */\n      tag_153\n      jump\t// in\n    tag_249:\n        /* \"#utility.yul\":5926:6012   */\n      swap1\n      pop\n        /* \"#utility.yul\":6022:6095   */\n      tag_250\n        /* \"#utility.yul\":6090:6093   */\n      0x80\n        /* \"#utility.yul\":6079:6088   */\n      dup4\n        /* \"#utility.yul\":6075:6094   */\n      add\n        /* \"#utility.yul\":6066:6072   */\n      dup7\n        /* \"#utility.yul\":6022:6095   */\n      tag_154\n      jump\t// in\n    tag_250:\n        /* \"#utility.yul\":6105:6178   */\n      tag_251\n        /* \"#utility.yul\":6173:6176   */\n      0xa0\n        /* \"#utility.yul\":6162:6171   */\n      dup4\n        /* \"#utility.yul\":6158:6177   */\n      add\n        /* \"#utility.yul\":6149:6155   */\n      dup6\n        /* \"#utility.yul\":6105:6178   */\n      tag_154\n      jump\t// in\n    tag_251:\n        /* \"#utility.yul\":6188:6255   */\n      tag_252\n        /* \"#utility.yul\":6250:6253   */\n      0xc0\n        /* \"#utility.yul\":6239:6248   */\n      dup4\n        /* \"#utility.yul\":6235:6254   */\n      add\n        /* \"#utility.yul\":6226:6232   */\n      dup5\n        /* \"#utility.yul\":6188:6255   */\n      tag_155\n      jump\t// in\n    tag_252:\n        /* \"#utility.yul\":5115:6262   */\n      swap9\n      swap8\n      pop\n      pop\n      pop\n      pop\n      pop\n      pop\n      pop\n      pop\n      jump\t// out\n        /* \"#utility.yul\":6268:6394   */\n    tag_156:\n        /* \"#utility.yul\":6305:6312   */\n      0x00\n        /* \"#utility.yul\":6345:6387   */\n      0xffffffffffffffffffffffffffffffffffffffff\n        /* \"#utility.yul\":6338:6343   */\n      dup3\n        /* \"#utility.yul\":6334:6388   */\n      and\n        /* \"#utility.yul\":6323:6388   */\n      swap1\n      pop\n        /* \"#utility.yul\":6268:6394   */\n      swap2\n      swap1\n      pop\n      jump\t// out\n        /* \"#utility.yul\":6400:6496   */\n    tag_157:\n        /* \"#utility.yul\":6437:6444   */\n      0x00\n        /* \"#utility.yul\":6466:6490   */\n      tag_255\n        /* \"#utility.yul\":6484:6489   */\n      dup3\n        /* \"#utility.yul\":6466:6490   */\n      tag_156\n      jump\t// in\n    tag_255:\n        /* \"#utility.yul\":6455:6490   */\n      swap1\n      pop\n        /* \"#utility.yul\":6400:6496   */\n      swap2\n      swap1\n      pop\n      jump\t// out\n        /* \"#utility.yul\":6502:6620   */\n    tag_158:\n        /* \"#utility.yul\":6589:6613   */\n      tag_257\n        /* \"#utility.yul\":6607:6612   */\n      dup2\n        /* \"#utility.yul\":6589:6613   */\n      tag_157\n      jump\t// in\n    tag_257:\n        /* \"#utility.yul\":6584:6587   */\n      dup3\n        /* \"#utility.yul\":6577:6614   */\n      mstore\n        /* \"#utility.yul\":6502:6620   */\n      pop\n      pop\n      jump\t// out\n        /* \"#utility.yul\":6626:6848   */\n    tag_30:\n        /* \"#utility.yul\":6719:6723   */\n      0x00\n        /* \"#utility.yul\":6757:6759   */\n      0x20\n        /* \"#utility.yul\":6746:6755   */\n      dup3\n        /* \"#utility.yul\":6742:6760   */\n      add\n        /* \"#utility.yul\":6734:6760   */\n      swap1\n      pop\n        /* \"#utility.yul\":6770:6841   */\n      tag_259\n        /* \"#utility.yul\":6838:6839   */\n      0x00\n        /* \"#utility.yul\":6827:6836   */\n      dup4\n        /* \"#utility.yul\":6823:6840   */\n      add\n        /* \"#utility.yul\":6814:6820   */\n      dup5\n        /* \"#utility.yul\":6770:6841   */\n      tag_158\n      jump\t// in\n    tag_259:\n        /* \"#utility.yul\":6626:6848   */\n      swap3\n      swap2\n      pop\n      pop\n      jump\t// out\n        /* \"#utility.yul\":6854:6971   */\n    tag_159:\n        /* \"#utility.yul\":6963:6964   */\n      0x00\n        /* \"#utility.yul\":6960:6961   */\n      dup1\n        /* \"#utility.yul\":6953:6965   */\n      revert\n        /* \"#utility.yul\":6977:7094   */\n    tag_160:\n        /* \"#utility.yul\":7086:7087   */\n      0x00\n        /* \"#utility.yul\":7083:7084   */\n      dup1\n        /* \"#utility.yul\":7076:7088   */\n      revert\n        /* \"#utility.yul\":7100:7280   */\n    tag_161:\n        /* \"#utility.yul\":7148:7225   */\n      0x4e487b7100000000000000000000000000000000000000000000000000000000\n        /* \"#utility.yul\":7145:7146   */\n      0x00\n        /* \"#utility.yul\":7138:7226   */\n      mstore\n        /* \"#utility.yul\":7245:7249   */\n      0x41\n        /* \"#utility.yul\":7242:7243   */\n      0x04\n        /* \"#utility.yul\":7235:7250   */\n      mstore\n        /* \"#utility.yul\":7269:7273   */\n      0x24\n        /* \"#utility.yul\":7266:7267   */\n      0x00\n        /* \"#utility.yul\":7259:7274   */\n      revert\n        /* \"#utility.yul\":7286:7567   */\n    tag_162:\n        /* \"#utility.yul\":7369:7396   */\n      tag_264\n        /* \"#utility.yul\":7391:7395   */\n      dup3\n        /* \"#utility.yul\":7369:7396   */\n      tag_146\n      jump\t// in\n    tag_264:\n        /* \"#utility.yul\":7361:7367   */\n      dup2\n        /* \"#utility.yul\":7357:7397   */\n      add\n        /* \"#utility.yul\":7499:7505   */\n      dup2\n        /* \"#utility.yul\":7487:7497   */\n      dup2\n        /* \"#utility.yul\":7484:7506   */\n      lt\n        /* \"#utility.yul\":7463:7481   */\n      0xffffffffffffffff\n        /* \"#utility.yul\":7451:7461   */\n      dup3\n        /* \"#utility.yul\":7448:7482   */\n      gt\n        /* \"#utility.yul\":7445:7507   */\n      or\n        /* \"#utility.yul\":7442:7530   */\n      iszero\n      tag_265\n      jumpi\n        /* \"#utility.yul\":7510:7528   */\n      tag_266\n      tag_161\n      jump\t// in\n    tag_266:\n        /* \"#utility.yul\":7442:7530   */\n    tag_265:\n        /* \"#utility.yul\":7550:7560   */\n      dup1\n        /* \"#utility.yul\":7546:7548   */\n      0x40\n        /* \"#utility.yul\":7539:7561   */\n      mstore\n        /* \"#utility.yul\":7329:7567   */\n      pop\n        /* \"#utility.yul\":7286:7567   */\n      pop\n      pop\n      jump\t// out\n        /* \"#utility.yul\":7573:7702   */\n    tag_163:\n        /* \"#utility.yul\":7607:7613   */\n      0x00\n        /* \"#utility.yul\":7634:7654   */\n      tag_268\n      tag_137\n      jump\t// in\n    tag_268:\n        /* \"#utility.yul\":7624:7654   */\n      swap1\n      pop\n        /* \"#utility.yul\":7663:7696   */\n      tag_269\n        /* \"#utility.yul\":7691:7695   */\n      dup3\n        /* \"#utility.yul\":7683:7689   */\n      dup3\n        /* \"#utility.yul\":7663:7696   */\n      tag_162\n      jump\t// in\n    tag_269:\n        /* \"#utility.yul\":7573:7702   */\n      swap2\n      swap1\n      pop\n      jump\t// out\n        /* \"#utility.yul\":7708:8016   */\n    tag_164:\n        /* \"#utility.yul\":7770:7774   */\n      0x00\n        /* \"#utility.yul\":7860:7878   */\n      0xffffffffffffffff\n        /* \"#utility.yul\":7852:7858   */\n      dup3\n        /* \"#utility.yul\":7849:7879   */\n      gt\n        /* \"#utility.yul\":7846:7902   */\n      iszero\n      tag_271\n      jumpi\n        /* \"#utility.yul\":7882:7900   */\n      tag_272\n      tag_161\n      jump\t// in\n    tag_272:\n        /* \"#utility.yul\":7846:7902   */\n    tag_271:\n        /* \"#utility.yul\":7920:7949   */\n      tag_273\n        /* \"#utility.yul\":7942:7948   */\n      dup3\n        /* \"#utility.yul\":7920:7949   */\n      tag_146\n      jump\t// in\n    tag_273:\n        /* \"#utility.yul\":7912:7949   */\n      swap1\n      pop\n        /* \"#utility.yul\":8004:8008   */\n      0x20\n        /* \"#utility.yul\":7998:8002   */\n      dup2\n        /* \"#utility.yul\":7994:8009   */\n      add\n        /* \"#utility.yul\":7986:8009   */\n      swap1\n      pop\n        /* \"#utility.yul\":7708:8016   */\n      swap2\n      swap1\n      pop\n      jump\t// out\n        /* \"#utility.yul\":8022:8170   */\n    tag_165:\n        /* \"#utility.yul\":8120:8126   */\n      dup3\n        /* \"#utility.yul\":8115:8118   */\n      dup2\n        /* \"#utility.yul\":8110:8113   */\n      dup4\n        /* \"#utility.yul\":8097:8127   */\n      calldatacopy\n        /* \"#utility.yul\":8161:8162   */\n      0x00\n        /* \"#utility.yul\":8152:8158   */\n      dup4\n        /* \"#utility.yul\":8147:8150   */\n      dup4\n        /* \"#utility.yul\":8143:8159   */\n      add\n        /* \"#utility.yul\":8136:8163   */\n      mstore\n        /* \"#utility.yul\":8022:8170   */\n      pop\n      pop\n      pop\n      jump\t// out\n        /* \"#utility.yul\":8176:8601   */\n    tag_166:\n        /* \"#utility.yul\":8254:8259   */\n      0x00\n        /* \"#utility.yul\":8279:8345   */\n      tag_276\n        /* \"#utility.yul\":8295:8344   */\n      tag_277\n        /* \"#utility.yul\":8337:8343   */\n      dup5\n        /* \"#utility.yul\":8295:8344   */\n      tag_164\n      jump\t// in\n    tag_277:\n        /* \"#utility.yul\":8279:8345   */\n      tag_163\n      jump\t// in\n    tag_276:\n        /* \"#utility.yul\":8270:8345   */\n      swap1\n      pop\n        /* \"#utility.yul\":8368:8374   */\n      dup3\n        /* \"#utility.yul\":8361:8366   */\n      dup2\n        /* \"#utility.yul\":8354:8375   */\n      mstore\n        /* \"#utility.yul\":8406:8410   */\n      0x20\n        /* \"#utility.yul\":8399:8404   */\n      dup2\n        /* \"#utility.yul\":8395:8411   */\n      add\n        /* \"#utility.yul\":8444:8447   */\n      dup5\n        /* \"#utility.yul\":8435:8441   */\n      dup5\n        /* \"#utility.yul\":8430:8433   */\n      dup5\n        /* \"#utility.yul\":8426:8442   */\n      add\n        /* \"#utility.yul\":8423:8448   */\n      gt\n        /* \"#utility.yul\":8420:8532   */\n      iszero\n      tag_278\n      jumpi\n        /* \"#utility.yul\":8451:8530   */\n      tag_279\n      tag_160\n      jump\t// in\n    tag_279:\n        /* \"#utility.yul\":8420:8532   */\n    tag_278:\n        /* \"#utility.yul\":8541:8595   */\n      tag_280\n        /* \"#utility.yul\":8588:8594   */\n      dup5\n        /* \"#utility.yul\":8583:8586   */\n      dup3\n        /* \"#utility.yul\":8578:8581   */\n      dup6\n        /* \"#utility.yul\":8541:8595   */\n      tag_165\n      jump\t// in\n    tag_280:\n        /* \"#utility.yul\":8260:8601   */\n      pop\n        /* \"#utility.yul\":8176:8601   */\n      swap4\n      swap3\n      pop\n      pop\n      pop\n      jump\t// out\n        /* \"#utility.yul\":8621:8961   */\n    tag_167:\n        /* \"#utility.yul\":8677:8682   */\n      0x00\n        /* \"#utility.yul\":8726:8729   */\n      dup3\n        /* \"#utility.yul\":8719:8723   */\n      0x1f\n        /* \"#utility.yul\":8711:8717   */\n      dup4\n        /* \"#utility.yul\":8707:8724   */\n      add\n        /* \"#utility.yul\":8703:8730   */\n      slt\n        /* \"#utility.yul\":8693:8815   */\n      tag_282\n      jumpi\n        /* \"#utility.yul\":8734:8813   */\n      tag_283\n      tag_159\n      jump\t// in\n    tag_283:\n        /* \"#utility.yul\":8693:8815   */\n    tag_282:\n        /* \"#utility.yul\":8851:8857   */\n      dup2\n        /* \"#utility.yul\":8838:8858   */\n      calldataload\n        /* \"#utility.yul\":8876:8955   */\n      tag_284\n        /* \"#utility.yul\":8951:8954   */\n      dup5\n        /* \"#utility.yul\":8943:8949   */\n      dup3\n        /* \"#utility.yul\":8936:8940   */\n      0x20\n        /* \"#utility.yul\":8928:8934   */\n      dup7\n        /* \"#utility.yul\":8924:8941   */\n      add\n        /* \"#utility.yul\":8876:8955   */\n      tag_166\n      jump\t// in\n    tag_284:\n        /* \"#utility.yul\":8867:8955   */\n      swap2\n      pop\n        /* \"#utility.yul\":8683:8961   */\n      pop\n        /* \"#utility.yul\":8621:8961   */\n      swap3\n      swap2\n      pop\n      pop\n      jump\t// out\n        /* \"#utility.yul\":8967:10564   */\n    tag_34:\n        /* \"#utility.yul\":9101:9107   */\n      0x00\n        /* \"#utility.yul\":9109:9115   */\n      dup1\n        /* \"#utility.yul\":9117:9123   */\n      0x00\n        /* \"#utility.yul\":9125:9131   */\n      dup1\n        /* \"#utility.yul\":9133:9139   */\n      0x00\n        /* \"#utility.yul\":9141:9147   */\n      dup1\n        /* \"#utility.yul\":9190:9193   */\n      0xc0\n        /* \"#utility.yul\":9178:9187   */\n      dup8\n        /* \"#utility.yul\":9169:9176   */\n      dup10\n        /* \"#utility.yul\":9165:9188   */\n      sub\n        /* \"#utility.yul\":9161:9194   */\n      slt\n        /* \"#utility.yul\":9158:9278   */\n      iszero\n      tag_286\n      jumpi\n        /* \"#utility.yul\":9197:9276   */\n      tag_287\n      tag_138\n      jump\t// in\n    tag_287:\n        /* \"#utility.yul\":9158:9278   */\n    tag_286:\n        /* \"#utility.yul\":9345:9346   */\n      0x00\n        /* \"#utility.yul\":9334:9343   */\n      dup8\n        /* \"#utility.yul\":9330:9347   */\n      add\n        /* \"#utility.yul\":9317:9348   */\n      calldataload\n        /* \"#utility.yul\":9375:9393   */\n      0xffffffffffffffff\n        /* \"#utility.yul\":9367:9373   */\n      dup2\n        /* \"#utility.yul\":9364:9394   */\n      gt\n        /* \"#utility.yul\":9361:9478   */\n      iszero\n      tag_288\n      jumpi\n        /* \"#utility.yul\":9397:9476   */\n      tag_289\n      tag_139\n      jump\t// in\n    tag_289:\n        /* \"#utility.yul\":9361:9478   */\n    tag_288:\n        /* \"#utility.yul\":9502:9565   */\n      tag_290\n        /* \"#utility.yul\":9557:9564   */\n      dup10\n        /* \"#utility.yul\":9548:9554   */\n      dup3\n        /* \"#utility.yul\":9537:9546   */\n      dup11\n        /* \"#utility.yul\":9533:9555   */\n      add\n        /* \"#utility.yul\":9502:9565   */\n      tag_167\n      jump\t// in\n    tag_290:\n        /* \"#utility.yul\":9492:9565   */\n      swap7\n      pop\n        /* \"#utility.yul\":9288:9575   */\n      pop\n        /* \"#utility.yul\":9614:9616   */\n      0x20\n        /* \"#utility.yul\":9640:9693   */\n      tag_291\n        /* \"#utility.yul\":9685:9692   */\n      dup10\n        /* \"#utility.yul\":9676:9682   */\n      dup3\n        /* \"#utility.yul\":9665:9674   */\n      dup11\n        /* \"#utility.yul\":9661:9683   */\n      add\n        /* \"#utility.yul\":9640:9693   */\n      tag_142\n      jump\t// in\n    tag_291:\n        /* \"#utility.yul\":9630:9693   */\n      swap6\n      pop\n        /* \"#utility.yul\":9585:9703   */\n      pop\n        /* \"#utility.yul\":9770:9772   */\n      0x40\n        /* \"#utility.yul\":9759:9768   */\n      dup8\n        /* \"#utility.yul\":9755:9773   */\n      add\n        /* \"#utility.yul\":9742:9774   */\n      calldataload\n        /* \"#utility.yul\":9801:9819   */\n      0xffffffffffffffff\n        /* \"#utility.yul\":9793:9799   */\n      dup2\n        /* \"#utility.yul\":9790:9820   */\n      gt\n        /* \"#utility.yul\":9787:9904   */\n      iszero\n      tag_292\n      jumpi\n        /* \"#utility.yul\":9823:9902   */\n      tag_293\n      tag_139\n      jump\t// in\n    tag_293:\n        /* \"#utility.yul\":9787:9904   */\n    tag_292:\n        /* \"#utility.yul\":9928:9991   */\n      tag_294\n        /* \"#utility.yul\":9983:9990   */\n      dup10\n        /* \"#utility.yul\":9974:9980   */\n      dup3\n        /* \"#utility.yul\":9963:9972   */\n      dup11\n        /* \"#utility.yul\":9959:9981   */\n      add\n        /* \"#utility.yul\":9928:9991   */\n      tag_167\n      jump\t// in\n    tag_294:\n        /* \"#utility.yul\":9918:9991   */\n      swap5\n      pop\n        /* \"#utility.yul\":9713:10001   */\n      pop\n        /* \"#utility.yul\":10068:10070   */\n      0x60\n        /* \"#utility.yul\":10057:10066   */\n      dup8\n        /* \"#utility.yul\":10053:10071   */\n      add\n        /* \"#utility.yul\":10040:10072   */\n      calldataload\n        /* \"#utility.yul\":10099:10117   */\n      0xffffffffffffffff\n        /* \"#utility.yul\":10091:10097   */\n      dup2\n        /* \"#utility.yul\":10088:10118   */\n      gt\n        /* \"#utility.yul\":10085:10202   */\n      iszero\n      tag_295\n      jumpi\n        /* \"#utility.yul\":10121:10200   */\n      tag_296\n      tag_139\n      jump\t// in\n    tag_296:\n        /* \"#utility.yul\":10085:10202   */\n    tag_295:\n        /* \"#utility.yul\":10226:10289   */\n      tag_297\n        /* \"#utility.yul\":10281:10288   */\n      dup10\n        /* \"#utility.yul\":10272:10278   */\n      dup3\n        /* \"#utility.yul\":10261:10270   */\n      dup11\n        /* \"#utility.yul\":10257:10279   */\n      add\n        /* \"#utility.yul\":10226:10289   */\n      tag_167\n      jump\t// in\n    tag_297:\n        /* \"#utility.yul\":10216:10289   */\n      swap4\n      pop\n        /* \"#utility.yul\":10011:10299   */\n      pop\n        /* \"#utility.yul\":10338:10341   */\n      0x80\n        /* \"#utility.yul\":10365:10418   */\n      tag_298\n        /* \"#utility.yul\":10410:10417   */\n      dup10\n        /* \"#utility.yul\":10401:10407   */\n      dup3\n        /* \"#utility.yul\":10390:10399   */\n      dup11\n        /* \"#utility.yul\":10386:10408   */\n      add\n        /* \"#utility.yul\":10365:10418   */\n      tag_142\n      jump\t// in\n    tag_298:\n        /* \"#utility.yul\":10355:10418   */\n      swap3\n      pop\n        /* \"#utility.yul\":10309:10428   */\n      pop\n        /* \"#utility.yul\":10467:10470   */\n      0xa0\n        /* \"#utility.yul\":10494:10547   */\n      tag_299\n        /* \"#utility.yul\":10539:10546   */\n      dup10\n        /* \"#utility.yul\":10530:10536   */\n      dup3\n        /* \"#utility.yul\":10519:10528   */\n      dup11\n        /* \"#utility.yul\":10515:10537   */\n      add\n        /* \"#utility.yul\":10494:10547   */\n      tag_142\n      jump\t// in\n    tag_299:\n        /* \"#utility.yul\":10484:10547   */\n      swap2\n      pop\n        /* \"#utility.yul\":10438:10557   */\n      pop\n        /* \"#utility.yul\":8967:10564   */\n      swap3\n      swap6\n      pop\n      swap3\n      swap6\n      pop\n      swap3\n      swap6\n      jump\t// out\n        /* \"#utility.yul\":10570:10792   */\n    tag_37:\n        /* \"#utility.yul\":10663:10667   */\n      0x00\n        /* \"#utility.yul\":10701:10703   */\n      0x20\n        /* \"#utility.yul\":10690:10699   */\n      dup3\n        /* \"#utility.yul\":10686:10704   */\n      add\n        /* \"#utility.yul\":10678:10704   */\n      swap1\n      pop\n        /* \"#utility.yul\":10714:10785   */\n      tag_301\n        /* \"#utility.yul\":10782:10783   */\n      0x00\n        /* \"#utility.yul\":10771:10780   */\n      dup4\n        /* \"#utility.yul\":10767:10784   */\n      add\n        /* \"#utility.yul\":10758:10764   */\n      dup5\n        /* \"#utility.yul\":10714:10785   */\n      tag_154\n      jump\t// in\n    tag_301:\n        /* \"#utility.yul\":10570:10792   */\n      swap3\n      swap2\n      pop\n      pop\n      jump\t// out\n        /* \"#utility.yul\":10798:11272   */\n    tag_40:\n        /* \"#utility.yul\":10866:10872   */\n      0x00\n        /* \"#utility.yul\":10874:10880   */\n      dup1\n        /* \"#utility.yul\":10923:10925   */\n      0x40\n        /* \"#utility.yul\":10911:10920   */\n      dup4\n        /* \"#utility.yul\":10902:10909   */\n      dup6\n        /* \"#utility.yul\":10898:10921   */\n      sub\n        /* \"#utility.yul\":10894:10926   */\n      slt\n        /* \"#utility.yul\":10891:11010   */\n      iszero\n      tag_303\n      jumpi\n        /* \"#utility.yul\":10929:11008   */\n      tag_304\n      tag_138\n      jump\t// in\n    tag_304:\n        /* \"#utility.yul\":10891:11010   */\n    tag_303:\n        /* \"#utility.yul\":11049:11050   */\n      0x00\n        /* \"#utility.yul\":11074:11127   */\n      tag_305\n        /* \"#utility.yul\":11119:11126   */\n      dup6\n        /* \"#utility.yul\":11110:11116   */\n      dup3\n        /* \"#utility.yul\":11099:11108   */\n      dup7\n        /* \"#utility.yul\":11095:11117   */\n      add\n        /* \"#utility.yul\":11074:11127   */\n      tag_142\n      jump\t// in\n    tag_305:\n        /* \"#utility.yul\":11064:11127   */\n      swap3\n      pop\n        /* \"#utility.yul\":11020:11137   */\n      pop\n        /* \"#utility.yul\":11176:11178   */\n      0x20\n        /* \"#utility.yul\":11202:11255   */\n      tag_306\n        /* \"#utility.yul\":11247:11254   */\n      dup6\n        /* \"#utility.yul\":11238:11244   */\n      dup3\n        /* \"#utility.yul\":11227:11236   */\n      dup7\n        /* \"#utility.yul\":11223:11245   */\n      add\n        /* \"#utility.yul\":11202:11255   */\n      tag_142\n      jump\t// in\n    tag_306:\n        /* \"#utility.yul\":11192:11255   */\n      swap2\n      pop\n        /* \"#utility.yul\":11147:11265   */\n      pop\n        /* \"#utility.yul\":10798:11272   */\n      swap3\n      pop\n      swap3\n      swap1\n      pop\n      jump\t// out\n        /* \"#utility.yul\":11278:11400   */\n    tag_168:\n        /* \"#utility.yul\":11351:11375   */\n      tag_308\n        /* \"#utility.yul\":11369:11374   */\n      dup2\n        /* \"#utility.yul\":11351:11375   */\n      tag_157\n      jump\t// in\n    tag_308:\n        /* \"#utility.yul\":11344:11349   */\n      dup2\n        /* \"#utility.yul\":11341:11376   */\n      eq\n        /* \"#utility.yul\":11331:11394   */\n      tag_309\n      jumpi\n        /* \"#utility.yul\":11390:11391   */\n      0x00\n        /* \"#utility.yul\":11387:11388   */\n      dup1\n        /* \"#utility.yul\":11380:11392   */\n      revert\n        /* \"#utility.yul\":11331:11394   */\n    tag_309:\n        /* \"#utility.yul\":11278:11400   */\n      pop\n      jump\t// out\n        /* \"#utility.yul\":11406:11545   */\n    tag_169:\n        /* \"#utility.yul\":11452:11457   */\n      0x00\n        /* \"#utility.yul\":11490:11496   */\n      dup2\n        /* \"#utility.yul\":11477:11497   */\n      calldataload\n        /* \"#utility.yul\":11468:11497   */\n      swap1\n      pop\n        /* \"#utility.yul\":11506:11539   */\n      tag_311\n        /* \"#utility.yul\":11533:11538   */\n      dup2\n        /* \"#utility.yul\":11506:11539   */\n      tag_168\n      jump\t// in\n    tag_311:\n        /* \"#utility.yul\":11406:11545   */\n      swap3\n      swap2\n      pop\n      pop\n      jump\t// out\n        /* \"#utility.yul\":11551:11880   */\n    tag_45:\n        /* \"#utility.yul\":11610:11616   */\n      0x00\n        /* \"#utility.yul\":11659:11661   */\n      0x20\n        /* \"#utility.yul\":11647:11656   */\n      dup3\n        /* \"#utility.yul\":11638:11645   */\n      dup5\n        /* \"#utility.yul\":11634:11657   */\n      sub\n        /* \"#utility.yul\":11630:11662   */\n      slt\n        /* \"#utility.yul\":11627:11746   */\n      iszero\n      tag_313\n      jumpi\n        /* \"#utility.yul\":11665:11744   */\n      tag_314\n      tag_138\n      jump\t// in\n    tag_314:\n        /* \"#utility.yul\":11627:11746   */\n    tag_313:\n        /* \"#utility.yul\":11785:11786   */\n      0x00\n        /* \"#utility.yul\":11810:11863   */\n      tag_315\n        /* \"#utility.yul\":11855:11862   */\n      dup5\n        /* \"#utility.yul\":11846:11852   */\n      dup3\n        /* \"#utility.yul\":11835:11844   */\n      dup6\n        /* \"#utility.yul\":11831:11853   */\n      add\n        /* \"#utility.yul\":11810:11863   */\n      tag_169\n      jump\t// in\n    tag_315:\n        /* \"#utility.yul\":11800:11863   */\n      swap2\n      pop\n        /* \"#utility.yul\":11756:11873   */\n      pop\n        /* \"#utility.yul\":11551:11880   */\n      swap3\n      swap2\n      pop\n      pop\n      jump\t// out\n        /* \"#utility.yul\":11886:12053   */\n    tag_170:\n        /* \"#utility.yul\":12026:12045   */\n      0x496e76616c696420666c69676874206964000000000000000000000000000000\n        /* \"#utility.yul\":12022:12023   */\n      0x00\n        /* \"#utility.yul\":12014:12020   */\n      dup3\n        /* \"#utility.yul\":12010:12024   */\n      add\n        /* \"#utility.yul\":12003:12046   */\n      mstore\n        /* \"#utility.yul\":11886:12053   */\n      pop\n      jump\t// out\n        /* \"#utility.yul\":12059:12425   */\n    tag_171:\n        /* \"#utility.yul\":12201:12204   */\n      0x00\n        /* \"#utility.yul\":12222:12289   */\n      tag_318\n        /* \"#utility.yul\":12286:12288   */\n      0x11\n        /* \"#utility.yul\":12281:12284   */\n      dup4\n        /* \"#utility.yul\":12222:12289   */\n      tag_152\n      jump\t// in\n    tag_318:\n        /* \"#utility.yul\":12215:12289   */\n      swap2\n      pop\n        /* \"#utility.yul\":12298:12391   */\n      tag_319\n        /* \"#utility.yul\":12387:12390   */\n      dup3\n        /* \"#utility.yul\":12298:12391   */\n      tag_170\n      jump\t// in\n    tag_319:\n        /* \"#utility.yul\":12416:12418   */\n      0x20\n        /* \"#utility.yul\":12411:12414   */\n      dup3\n        /* \"#utility.yul\":12407:12419   */\n      add\n        /* \"#utility.yul\":12400:12419   */\n      swap1\n      pop\n        /* \"#utility.yul\":12059:12425   */\n      swap2\n      swap1\n      pop\n      jump\t// out\n        /* \"#utility.yul\":12431:12850   */\n    tag_52:\n        /* \"#utility.yul\":12597:12601   */\n      0x00\n        /* \"#utility.yul\":12635:12637   */\n      0x20\n        /* \"#utility.yul\":12624:12633   */\n      dup3\n        /* \"#utility.yul\":12620:12638   */\n      add\n        /* \"#utility.yul\":12612:12638   */\n      swap1\n      pop\n        /* \"#utility.yul\":12684:12693   */\n      dup2\n        /* \"#utility.yul\":12678:12682   */\n      dup2\n        /* \"#utility.yul\":12674:12694   */\n      sub\n        /* \"#utility.yul\":12670:12671   */\n      0x00\n        /* \"#utility.yul\":12659:12668   */\n      dup4\n        /* \"#utility.yul\":12655:12672   */\n      add\n        /* \"#utility.yul\":12648:12695   */\n      mstore\n        /* \"#utility.yul\":12712:12843   */\n      tag_321\n        /* \"#utility.yul\":12838:12842   */\n      dup2\n        /* \"#utility.yul\":12712:12843   */\n      tag_171\n      jump\t// in\n    tag_321:\n        /* \"#utility.yul\":12704:12843   */\n      swap1\n      pop\n        /* \"#utility.yul\":12431:12850   */\n      swap2\n      swap1\n      pop\n      jump\t// out\n        /* \"#utility.yul\":12856:13036   */\n    tag_172:\n        /* \"#utility.yul\":12904:12981   */\n      0x4e487b7100000000000000000000000000000000000000000000000000000000\n        /* \"#utility.yul\":12901:12902   */\n      0x00\n        /* \"#utility.yul\":12894:12982   */\n      mstore\n        /* \"#utility.yul\":13001:13005   */\n      0x22\n        /* \"#utility.yul\":12998:12999   */\n      0x04\n        /* \"#utility.yul\":12991:13006   */\n      mstore\n        /* \"#utility.yul\":13025:13029   */\n      0x24\n        /* \"#utility.yul\":13022:13023   */\n      0x00\n        /* \"#utility.yul\":13015:13030   */\n      revert\n        /* \"#utility.yul\":13042:13362   */\n    tag_54:\n        /* \"#utility.yul\":13086:13092   */\n      0x00\n        /* \"#utility.yul\":13123:13124   */\n      0x02\n        /* \"#utility.yul\":13117:13121   */\n      dup3\n        /* \"#utility.yul\":13113:13125   */\n      div\n        /* \"#utility.yul\":13103:13125   */\n      swap1\n      pop\n        /* \"#utility.yul\":13170:13171   */\n      0x01\n        /* \"#utility.yul\":13164:13168   */\n      dup3\n        /* \"#utility.yul\":13160:13172   */\n      and\n        /* \"#utility.yul\":13191:13209   */\n      dup1\n        /* \"#utility.yul\":13181:13262   */\n      tag_324\n      jumpi\n        /* \"#utility.yul\":13247:13251   */\n      0x7f\n        /* \"#utility.yul\":13239:13245   */\n      dup3\n        /* \"#utility.yul\":13235:13252   */\n      and\n        /* \"#utility.yul\":13225:13252   */\n      swap2\n      pop\n        /* \"#utility.yul\":13181:13262   */\n    tag_324:\n        /* \"#utility.yul\":13309:13311   */\n      0x20\n        /* \"#utility.yul\":13301:13307   */\n      dup3\n        /* \"#utility.yul\":13298:13312   */\n      lt\n        /* \"#utility.yul\":13278:13296   */\n      dup2\n        /* \"#utility.yul\":13275:13313   */\n      sub\n        /* \"#utility.yul\":13272:13356   */\n      tag_325\n      jumpi\n        /* \"#utility.yul\":13328:13346   */\n      tag_326\n      tag_172\n      jump\t// in\n    tag_326:\n        /* \"#utility.yul\":13272:13356   */\n    tag_325:\n        /* \"#utility.yul\":13093:13362   */\n      pop\n        /* \"#utility.yul\":13042:13362   */\n      swap2\n      swap1\n      pop\n      jump\t// out\n        /* \"#utility.yul\":13368:13548   */\n    tag_173:\n        /* \"#utility.yul\":13416:13493   */\n      0x4e487b7100000000000000000000000000000000000000000000000000000000\n        /* \"#utility.yul\":13413:13414   */\n      0x00\n        /* \"#utility.yul\":13406:13494   */\n      mstore\n        /* \"#utility.yul\":13513:13517   */\n      0x11\n        /* \"#utility.yul\":13510:13511   */\n      0x04\n        /* \"#utility.yul\":13503:13518   */\n      mstore\n        /* \"#utility.yul\":13537:13541   */\n      0x24\n        /* \"#utility.yul\":13534:13535   */\n      0x00\n        /* \"#utility.yul\":13527:13542   */\n      revert\n        /* \"#utility.yul\":13554:13787   */\n    tag_95:\n        /* \"#utility.yul\":13593:13596   */\n      0x00\n        /* \"#utility.yul\":13616:13640   */\n      tag_329\n        /* \"#utility.yul\":13634:13639   */\n      dup3\n        /* \"#utility.yul\":13616:13640   */\n      tag_140\n      jump\t// in\n    tag_329:\n        /* \"#utility.yul\":13607:13640   */\n      swap2\n      pop\n        /* \"#utility.yul\":13662:13728   */\n      0xffffffffffffffffffffffffffffffffffffffffffffffffffffffffffffffff\n        /* \"#utility.yul\":13655:13660   */\n      dup3\n        /* \"#utility.yul\":13652:13729   */\n      sub\n        /* \"#utility.yul\":13649:13752   */\n      tag_330\n      jumpi\n        /* \"#utility.yul\":13732:13750   */\n      tag_331\n      tag_173\n      jump\t// in\n    tag_331:\n        /* \"#utility.yul\":13649:13752   */\n    tag_330:\n        /* \"#utility.yul\":13779:13780   */\n      0x01\n        /* \"#utility.yul\":13772:13777   */\n      dup3\n        /* \"#utility.yul\":13768:13781   */\n      add\n        /* \"#utility.yul\":13761:13781   */\n      swap1\n      pop\n        /* \"#utility.yul\":13554:13787   */\n      swap2\n      swap1\n      pop\n      jump\t// out\n        /* \"#utility.yul\":13793:13965   */\n    tag_174:\n        /* \"#utility.yul\":13933:13957   */\n      0x496e76616c6964204465706172747572652054696d6500000000000000000000\n        /* \"#utility.yul\":13929:13930   */\n      0x00\n        /* \"#utility.yul\":13921:13927   */\n      dup3\n        /* \"#utility.yul\":13917:13931   */\n      add\n        /* \"#utility.yul\":13910:13958   */\n      mstore\n        /* \"#utility.yul\":13793:13965   */\n      pop\n      jump\t// out\n        /* \"#utility.yul\":13971:14337   */\n    tag_175:\n        /* \"#utility.yul\":14113:14116   */\n      0x00\n        /* \"#utility.yul\":14134:14201   */\n      tag_334\n        /* \"#utility.yul\":14198:14200   */\n      0x16\n        /* \"#utility.yul\":14193:14196   */\n      dup4\n        /* \"#utility.yul\":14134:14201   */\n      tag_152\n      jump\t// in\n    tag_334:\n        /* \"#utility.yul\":14127:14201   */\n      swap2\n      pop\n        /* \"#utility.yul\":14210:14303   */\n      tag_335\n        /* \"#utility.yul\":14299:14302   */\n      dup3\n        /* \"#utility.yul\":14210:14303   */\n      tag_174\n      jump\t// in\n    tag_335:\n        /* \"#utility.yul\":14328:14330   */\n      0x20\n        /* \"#utility.yul\":14323:14326   */\n      dup3\n        /* \"#utility.yul\":14319:14331   */\n      add\n        /* \"#utility.yul\":14312:14331   */\n      swap1\n      pop\n        /* \"#utility.yul\":13971:14337   */\n      swap2\n      swap1\n      pop\n      jump\t// out\n        /* \"#utility.yul\":14343:14762   */\n    tag_98:\n        /* \"#utility.yul\":14509:14513   */\n      0x00\n        /* \"#utility.yul\":14547:14549   */\n      0x20\n        /* \"#utility.yul\":14536:14545   */\n      dup3\n        /* \"#utility.yul\":14532:14550   */\n      add\n        /* \"#utility.yul\":14524:14550   */\n      swap1\n      pop\n        /* \"#utility.yul\":14596:14605   */\n      dup2\n        /* \"#utility.yul\":14590:14594   */\n      dup2\n        /* \"#utility.yul\":14586:14606   */\n      sub\n        /* \"#utility.yul\":14582:14583   */\n      0x00\n        /* \"#utility.yul\":14571:14580   */\n      dup4\n        /* \"#utility.yul\":14567:14584   */\n      add\n        /* \"#utility.yul\":14560:14607   */\n      mstore\n        /* \"#utility.yul\":14624:14755   */\n      tag_337\n        /* \"#utility.yul\":14750:14754   */\n      dup2\n        /* \"#utility.yul\":14624:14755   */\n      tag_175\n      jump\t// in\n    tag_337:\n        /* \"#utility.yul\":14616:14755   */\n      swap1\n      pop\n        /* \"#utility.yul\":14343:14762   */\n      swap2\n      swap1\n      pop\n      jump\t// out\n        /* \"#utility.yul\":14768:14909   */\n    tag_176:\n        /* \"#utility.yul\":14817:14821   */\n      0x00\n        /* \"#utility.yul\":14840:14843   */\n      dup2\n        /* \"#utility.yul\":14832:14843   */\n      swap1\n      pop\n        /* \"#utility.yul\":14863:14866   */\n      dup2\n        /* \"#utility.yul\":14860:14861   */\n      0x00\n        /* \"#utility.yul\":14853:14867   */\n      mstore\n        /* \"#utility.yul\":14897:14901   */\n      0x20\n        /* \"#utility.yul\":14894:14895   */\n      0x00\n        /* \"#utility.yul\":14884:14902   */\n      keccak256\n        /* \"#utility.yul\":14876:14902   */\n      swap1\n      pop\n        /* \"#utility.yul\":14768:14909   */\n      swap2\n      swap1\n      pop\n      jump\t// out\n        /* \"#utility.yul\":14915:15008   */\n    tag_177:\n        /* \"#utility.yul\":14952:14958   */\n      0x00\n        /* \"#utility.yul\":14999:15001   */\n      0x20\n        /* \"#utility.yul\":14994:14996   */\n      0x1f\n        /* \"#utility.yul\":14987:14992   */\n      dup4\n        /* \"#utility.yul\":14983:14997   */\n      add\n        /* \"#utility.yul\":14979:15002   */\n      div\n        /* \"#utility.yul\":14969:15002   */\n      swap1\n      pop\n        /* \"#utility.yul\":14915:15008   */\n      swap2\n      swap1\n      pop\n      jump\t// out\n        /* \"#utility.yul\":15014:15121   */\n    tag_178:\n        /* \"#utility.yul\":15058:15066   */\n      0x00\n        /* \"#utility.yul\":15108:15113   */\n      dup3\n        /* \"#utility.yul\":15102:15106   */\n      dup3\n        /* \"#utility.yul\":15098:15114   */\n      shl\n        /* \"#utility.yul\":15077:15114   */\n      swap1\n      pop\n        /* \"#utility.yul\":15014:15121   */\n      swap3\n      swap2\n      pop\n      pop\n      jump\t// out\n        /* \"#utility.yul\":15127:15520   */\n    tag_179:\n        /* \"#utility.yul\":15196:15202   */\n      0x00\n        /* \"#utility.yul\":15246:15247   */\n      0x08\n        /* \"#utility.yul\":15234:15244   */\n      dup4\n        /* \"#utility.yul\":15230:15248   */\n      mul\n        /* \"#utility.yul\":15269:15366   */\n      tag_342\n        /* \"#utility.yul\":15299:15365   */\n      0xffffffffffffffffffffffffffffffffffffffffffffffffffffffffffffffff\n        /* \"#utility.yul\":15288:15297   */\n      dup3\n        /* \"#utility.yul\":15269:15366   */\n      tag_178\n      jump\t// in\n    tag_342:\n        /* \"#utility.yul\":15387:15426   */\n      tag_343\n        /* \"#utility.yul\":15417:15425   */\n      dup7\n        /* \"#utility.yul\":15406:15415   */\n      dup4\n        /* \"#utility.yul\":15387:15426   */\n      tag_178\n      jump\t// in\n    tag_343:\n        /* \"#utility.yul\":15375:15426   */\n      swap6\n      pop\n        /* \"#utility.yul\":15459:15463   */\n      dup1\n        /* \"#utility.yul\":15455:15464   */\n      not\n        /* \"#utility.yul\":15448:15453   */\n      dup5\n        /* \"#utility.yul\":15444:15465   */\n      and\n        /* \"#utility.yul\":15435:15465   */\n      swap4\n      pop\n        /* \"#utility.yul\":15508:15512   */\n      dup1\n        /* \"#utility.yul\":15498:15506   */\n      dup7\n        /* \"#utility.yul\":15494:15513   */\n      and\n        /* \"#utility.yul\":15487:15492   */\n      dup5\n        /* \"#utility.yul\":15484:15514   */\n      or\n        /* \"#utility.yul\":15474:15514   */\n      swap3\n      pop\n        /* \"#utility.yul\":15203:15520   */\n      pop\n      pop\n        /* \"#utility.yul\":15127:15520   */\n      swap4\n      swap3\n      pop\n      pop\n      pop\n      jump\t// out\n        /* \"#utility.yul\":15526:15586   */\n    tag_180:\n        /* \"#utility.yul\":15554:15557   */\n      0x00\n        /* \"#utility.yul\":15575:15580   */\n      dup2\n        /* \"#utility.yul\":15568:15580   */\n      swap1\n      pop\n        /* \"#utility.yul\":15526:15586   */\n      swap2\n      swap1\n      pop\n      jump\t// out\n        /* \"#utility.yul\":15592:15734   */\n    tag_181:\n        /* \"#utility.yul\":15642:15651   */\n      0x00\n        /* \"#utility.yul\":15675:15728   */\n      tag_346\n        /* \"#utility.yul\":15693:15727   */\n      tag_347\n        /* \"#utility.yul\":15702:15726   */\n      tag_348\n        /* \"#utility.yul\":15720:15725   */\n      dup5\n        /* \"#utility.yul\":15702:15726   */\n      tag_140\n      jump\t// in\n    tag_348:\n        /* \"#utility.yul\":15693:15727   */\n      tag_180\n      jump\t// in\n    tag_347:\n        /* \"#utility.yul\":15675:15728   */\n      tag_140\n      jump\t// in\n    tag_346:\n        /* \"#utility.yul\":15662:15728   */\n      swap1\n      pop\n        /* \"#utility.yul\":15592:15734   */\n      swap2\n      swap1\n      pop\n      jump\t// out\n        /* \"#utility.yul\":15740:15815   */\n    tag_182:\n        /* \"#utility.yul\":15783:15786   */\n      0x00\n        /* \"#utility.yul\":15804:15809   */\n      dup2\n        /* \"#utility.yul\":15797:15809   */\n      swap1\n      pop\n        /* \"#utility.yul\":15740:15815   */\n      swap2\n      swap1\n      pop\n      jump\t// out\n        /* \"#utility.yul\":15821:16090   */\n    tag_183:\n        /* \"#utility.yul\":15931:15970   */\n      tag_351\n        /* \"#utility.yul\":15962:15969   */\n      dup4\n        /* \"#utility.yul\":15931:15970   */\n      tag_181\n      jump\t// in\n    tag_351:\n        /* \"#utility.yul\":15992:16083   */\n      tag_352\n        /* \"#utility.yul\":16041:16082   */\n      tag_353\n        /* \"#utility.yul\":16065:16081   */\n      dup3\n        /* \"#utility.yul\":16041:16082   */\n      tag_182\n      jump\t// in\n    tag_353:\n        /* \"#utility.yul\":16033:16039   */\n      dup5\n        /* \"#utility.yul\":16026:16030   */\n      dup5\n        /* \"#utility.yul\":16020:16031   */\n      sload\n        /* \"#utility.yul\":15992:16083   */\n      tag_179\n      jump\t// in\n    tag_352:\n        /* \"#utility.yul\":15986:15990   */\n      dup3\n        /* \"#utility.yul\":15979:16084   */\n      sstore\n        /* \"#utility.yul\":15897:16090   */\n      pop\n        /* \"#utility.yul\":15821:16090   */\n      pop\n      pop\n      pop\n      jump\t// out\n        /* \"#utility.yul\":16096:16169   */\n    tag_184:\n        /* \"#utility.yul\":16141:16144   */\n      0x00\n        /* \"#utility.yul\":16096:16169   */\n      swap1\n      jump\t// out\n        /* \"#utility.yul\":16175:16364   */\n    tag_185:\n        /* \"#utility.yul\":16252:16284   */\n      tag_356\n      tag_184\n      jump\t// in\n    tag_356:\n        /* \"#utility.yul\":16293:16358   */\n      tag_357\n        /* \"#utility.yul\":16351:16357   */\n      dup2\n        /* \"#utility.yul\":16343:16349   */\n      dup5\n        /* \"#utility.yul\":16337:16341   */\n      dup5\n        /* \"#utility.yul\":16293:16358   */\n      tag_183\n      jump\t// in\n    tag_357:\n        /* \"#utility.yul\":16228:16364   */\n      pop\n        /* \"#utility.yul\":16175:16364   */\n      pop\n      pop\n      jump\t// out\n        /* \"#utility.yul\":16370:16556   */\n    tag_186:\n        /* \"#utility.yul\":16430:16550   */\n    tag_359:\n        /* \"#utility.yul\":16447:16450   */\n      dup2\n        /* \"#utility.yul\":16440:16445   */\n      dup2\n        /* \"#utility.yul\":16437:16451   */\n      lt\n        /* \"#utility.yul\":16430:16550   */\n      iszero\n      tag_361\n      jumpi\n        /* \"#utility.yul\":16501:16540   */\n      tag_362\n        /* \"#utility.yul\":16538:16539   */\n      0x00\n        /* \"#utility.yul\":16531:16536   */\n      dup3\n        /* \"#utility.yul\":16501:16540   */\n      tag_185\n      jump\t// in\n    tag_362:\n        /* \"#utility.yul\":16474:16475   */\n      0x01\n        /* \"#utility.yul\":16467:16472   */\n      dup2\n        /* \"#utility.yul\":16463:16476   */\n      add\n        /* \"#utility.yul\":16454:16476   */\n      swap1\n      pop\n        /* \"#utility.yul\":16430:16550   */\n      jump(tag_359)\n    tag_361:\n        /* \"#utility.yul\":16370:16556   */\n      pop\n      pop\n      jump\t// out\n        /* \"#utility.yul\":16562:17105   */\n    tag_187:\n        /* \"#utility.yul\":16663:16665   */\n      0x1f\n        /* \"#utility.yul\":16658:16661   */\n      dup3\n        /* \"#utility.yul\":16655:16666   */\n      gt\n        /* \"#utility.yul\":16652:17098   */\n      iszero\n      tag_364\n      jumpi\n        /* \"#utility.yul\":16697:16735   */\n      tag_365\n        /* \"#utility.yul\":16729:16734   */\n      dup2\n        /* \"#utility.yul\":16697:16735   */\n      tag_176\n      jump\t// in\n    tag_365:\n        /* \"#utility.yul\":16781:16810   */\n      tag_366\n        /* \"#utility.yul\":16799:16809   */\n      dup5\n        /* \"#utility.yul\":16781:16810   */\n      tag_177\n      jump\t// in\n    tag_366:\n        /* \"#utility.yul\":16771:16779   */\n      dup2\n        /* \"#utility.yul\":16767:16811   */\n      add\n        /* \"#utility.yul\":16964:16966   */\n      0x20\n        /* \"#utility.yul\":16952:16962   */\n      dup6\n        /* \"#utility.yul\":16949:16967   */\n      lt\n        /* \"#utility.yul\":16946:16995   */\n      iszero\n      tag_367\n      jumpi\n        /* \"#utility.yul\":16985:16993   */\n      dup2\n        /* \"#utility.yul\":16970:16993   */\n      swap1\n      pop\n        /* \"#utility.yul\":16946:16995   */\n    tag_367:\n        /* \"#utility.yul\":17008:17088   */\n      tag_368\n        /* \"#utility.yul\":17064:17086   */\n      tag_369\n        /* \"#utility.yul\":17082:17085   */\n      dup6\n        /* \"#utility.yul\":17064:17086   */\n      tag_177\n      jump\t// in\n    tag_369:\n        /* \"#utility.yul\":17054:17062   */\n      dup4\n        /* \"#utility.yul\":17050:17087   */\n      add\n        /* \"#utility.yul\":17037:17048   */\n      dup3\n        /* \"#utility.yul\":17008:17088   */\n      tag_186\n      jump\t// in\n    tag_368:\n        /* \"#utility.yul\":16667:17098   */\n      pop\n      pop\n        /* \"#utility.yul\":16652:17098   */\n    tag_364:\n        /* \"#utility.yul\":16562:17105   */\n      pop\n      pop\n      pop\n      jump\t// out\n        /* \"#utility.yul\":17111:17228   */\n    tag_188:\n        /* \"#utility.yul\":17165:17173   */\n      0x00\n        /* \"#utility.yul\":17215:17220   */\n      dup3\n        /* \"#utility.yul\":17209:17213   */\n      dup3\n        /* \"#utility.yul\":17205:17221   */\n      shr\n        /* \"#utility.yul\":17184:17221   */\n      swap1\n      pop\n        /* \"#utility.yul\":17111:17228   */\n      swap3\n      swap2\n      pop\n      pop\n      jump\t// out\n        /* \"#utility.yul\":17234:17403   */\n    tag_189:\n        /* \"#utility.yul\":17278:17284   */\n      0x00\n        /* \"#utility.yul\":17311:17362   */\n      tag_372\n        /* \"#utility.yul\":17359:17360   */\n      0x00\n        /* \"#utility.yul\":17355:17361   */\n      not\n        /* \"#utility.yul\":17347:17352   */\n      dup5\n        /* \"#utility.yul\":17344:17345   */\n      0x08\n        /* \"#utility.yul\":17340:17353   */\n      mul\n        /* \"#utility.yul\":17311:17362   */\n      tag_188\n      jump\t// in\n    tag_372:\n        /* \"#utility.yul\":17307:17363   */\n      not\n        /* \"#utility.yul\":17392:17396   */\n      dup1\n        /* \"#utility.yul\":17386:17390   */\n      dup4\n        /* \"#utility.yul\":17382:17397   */\n      and\n        /* \"#utility.yul\":17372:17397   */\n      swap2\n      pop\n        /* \"#utility.yul\":17285:17403   */\n      pop\n        /* \"#utility.yul\":17234:17403   */\n      swap3\n      swap2\n      pop\n      pop\n      jump\t// out\n        /* \"#utility.yul\":17408:17703   */\n    tag_190:\n        /* \"#utility.yul\":17484:17488   */\n      0x00\n        /* \"#utility.yul\":17630:17659   */\n      tag_374\n        /* \"#utility.yul\":17655:17658   */\n      dup4\n        /* \"#utility.yul\":17649:17653   */\n      dup4\n        /* \"#utility.yul\":17630:17659   */\n      tag_189\n      jump\t// in\n    tag_374:\n        /* \"#utility.yul\":17622:17659   */\n      swap2\n      pop\n        /* \"#utility.yul\":17692:17695   */\n      dup3\n        /* \"#utility.yul\":17689:17690   */\n      0x02\n        /* \"#utility.yul\":17685:17696   */\n      mul\n        /* \"#utility.yul\":17679:17683   */\n      dup3\n        /* \"#utility.yul\":17676:17697   */\n      or\n        /* \"#utility.yul\":17668:17697   */\n      swap1\n      pop\n        /* \"#utility.yul\":17408:17703   */\n      swap3\n      swap2\n      pop\n      pop\n      jump\t// out\n        /* \"#utility.yul\":17708:19103   */\n    tag_100:\n        /* \"#utility.yul\":17825:17862   */\n      tag_376\n        /* \"#utility.yul\":17858:17861   */\n      dup3\n        /* \"#utility.yul\":17825:17862   */\n      tag_143\n      jump\t// in\n    tag_376:\n        /* \"#utility.yul\":17927:17945   */\n      0xffffffffffffffff\n        /* \"#utility.yul\":17919:17925   */\n      dup2\n        /* \"#utility.yul\":17916:17946   */\n      gt\n        /* \"#utility.yul\":17913:17969   */\n      iszero\n      tag_377\n      jumpi\n        /* \"#utility.yul\":17949:17967   */\n      tag_378\n      tag_161\n      jump\t// in\n    tag_378:\n        /* \"#utility.yul\":17913:17969   */\n    tag_377:\n        /* \"#utility.yul\":17993:18031   */\n      tag_379\n        /* \"#utility.yul\":18025:18029   */\n      dup3\n        /* \"#utility.yul\":18019:18030   */\n      sload\n        /* \"#utility.yul\":17993:18031   */\n      tag_54\n      jump\t// in\n    tag_379:\n        /* \"#utility.yul\":18078:18145   */\n      tag_380\n        /* \"#utility.yul\":18138:18144   */\n      dup3\n        /* \"#utility.yul\":18130:18136   */\n      dup3\n        /* \"#utility.yul\":18124:18128   */\n      dup6\n        /* \"#utility.yul\":18078:18145   */\n      tag_187\n      jump\t// in\n    tag_380:\n        /* \"#utility.yul\":18172:18173   */\n      0x00\n        /* \"#utility.yul\":18196:18200   */\n      0x20\n        /* \"#utility.yul\":18183:18200   */\n      swap1\n      pop\n        /* \"#utility.yul\":18228:18230   */\n      0x1f\n        /* \"#utility.yul\":18220:18226   */\n      dup4\n        /* \"#utility.yul\":18217:18231   */\n      gt\n        /* \"#utility.yul\":18245:18246   */\n      0x01\n        /* \"#utility.yul\":18240:18858   */\n      dup2\n      eq\n      tag_382\n      jumpi\n        /* \"#utility.yul\":18902:18903   */\n      0x00\n        /* \"#utility.yul\":18919:18925   */\n      dup5\n        /* \"#utility.yul\":18916:18993   */\n      iszero\n      tag_383\n      jumpi\n        /* \"#utility.yul\":18968:18977   */\n      dup3\n        /* \"#utility.yul\":18963:18966   */\n      dup8\n        /* \"#utility.yul\":18959:18978   */\n      add\n        /* \"#utility.yul\":18953:18979   */\n      mload\n        /* \"#utility.yul\":18944:18979   */\n      swap1\n      pop\n        /* \"#utility.yul\":18916:18993   */\n    tag_383:\n        /* \"#utility.yul\":19019:19086   */\n      tag_384\n        /* \"#utility.yul\":19079:19085   */\n      dup6\n        /* \"#utility.yul\":19072:19077   */\n      dup3\n        /* \"#utility.yul\":19019:19086   */\n      tag_190\n      jump\t// in\n    tag_384:\n        /* \"#utility.yul\":19013:19017   */\n      dup7\n        /* \"#utility.yul\":19006:19087   */\n      sstore\n        /* \"#utility.yul\":18875:19097   */\n      pop\n        /* \"#utility.yul\":18210:19097   */\n      jump(tag_381)\n        /* \"#utility.yul\":18240:18858   */\n    tag_382:\n        /* \"#utility.yul\":18292:18296   */\n      0x1f\n        /* \"#utility.yul\":18288:18297   */\n      not\n        /* \"#utility.yul\":18280:18286   */\n      dup5\n        /* \"#utility.yul\":18276:18298   */\n      and\n        /* \"#utility.yul\":18326:18363   */\n      tag_385\n        /* \"#utility.yul\":18358:18362   */\n      dup7\n        /* \"#utility.yul\":18326:18363   */\n      tag_176\n      jump\t// in\n    tag_385:\n        /* \"#utility.yul\":18385:18386   */\n      0x00\n        /* \"#utility.yul\":18399:18607   */\n    tag_386:\n        /* \"#utility.yul\":18413:18420   */\n      dup3\n        /* \"#utility.yul\":18410:18411   */\n      dup2\n        /* \"#utility.yul\":18407:18421   */\n      lt\n        /* \"#utility.yul\":18399:18607   */\n      iszero\n      tag_388\n      jumpi\n        /* \"#utility.yul\":18492:18501   */\n      dup5\n        /* \"#utility.yul\":18487:18490   */\n      dup10\n        /* \"#utility.yul\":18483:18502   */\n      add\n        /* \"#utility.yul\":18477:18503   */\n      mload\n        /* \"#utility.yul\":18469:18475   */\n      dup3\n        /* \"#utility.yul\":18462:18504   */\n      sstore\n        /* \"#utility.yul\":18543:18544   */\n      0x01\n        /* \"#utility.yul\":18535:18541   */\n      dup3\n        /* \"#utility.yul\":18531:18545   */\n      add\n        /* \"#utility.yul\":18521:18545   */\n      swap2\n      pop\n        /* \"#utility.yul\":18590:18592   */\n      0x20\n        /* \"#utility.yul\":18579:18588   */\n      dup6\n        /* \"#utility.yul\":18575:18593   */\n      add\n        /* \"#utility.yul\":18562:18593   */\n      swap5\n      pop\n        /* \"#utility.yul\":18436:18440   */\n      0x20\n        /* \"#utility.yul\":18433:18434   */\n      dup2\n        /* \"#utility.yul\":18429:18441   */\n      add\n        /* \"#utility.yul\":18424:18441   */\n      swap1\n      pop\n        /* \"#utility.yul\":18399:18607   */\n      jump(tag_386)\n    tag_388:\n        /* \"#utility.yul\":18635:18641   */\n      dup7\n        /* \"#utility.yul\":18626:18633   */\n      dup4\n        /* \"#utility.yul\":18623:18642   */\n      lt\n        /* \"#utility.yul\":18620:18799   */\n      iszero\n      tag_389\n      jumpi\n        /* \"#utility.yul\":18693:18702   */\n      dup5\n        /* \"#utility.yul\":18688:18691   */\n      dup10\n        /* \"#utility.yul\":18684:18703   */\n      add\n        /* \"#utility.yul\":18678:18704   */\n      mload\n        /* \"#utility.yul\":18736:18784   */\n      tag_390\n        /* \"#utility.yul\":18778:18782   */\n      0x1f\n        /* \"#utility.yul\":18770:18776   */\n      dup10\n        /* \"#utility.yul\":18766:18783   */\n      and\n        /* \"#utility.yul\":18755:18764   */\n      dup3\n        /* \"#utility.yul\":18736:18784   */\n      tag_189\n      jump\t// in\n    tag_390:\n        /* \"#utility.yul\":18728:18734   */\n      dup4\n        /* \"#utility.yul\":18721:18785   */\n      sstore\n        /* \"#utility.yul\":18643:18799   */\n      pop\n        /* \"#utility.yul\":18620:18799   */\n    tag_389:\n        /* \"#utility.yul\":18845:18846   */\n      0x01\n        /* \"#utility.yul\":18841:18842   */\n      0x02\n        /* \"#utility.yul\":18833:18839   */\n      dup9\n        /* \"#utility.yul\":18829:18843   */\n      mul\n        /* \"#utility.yul\":18825:18847   */\n      add\n        /* \"#utility.yul\":18819:18823   */\n      dup9\n        /* \"#utility.yul\":18812:18848   */\n      sstore\n        /* \"#utility.yul\":18247:18858   */\n      pop\n      pop\n      pop\n        /* \"#utility.yul\":18210:19097   */\n    tag_381:\n      pop\n        /* \"#utility.yul\":17800:19103   */\n      pop\n      pop\n      pop\n        /* \"#utility.yul\":17708:19103   */\n      pop\n      pop\n      jump\t// out\n        /* \"#utility.yul\":19109:19422   */\n    tag_104:\n        /* \"#utility.yul\":19222:19226   */\n      0x00\n        /* \"#utility.yul\":19260:19262   */\n      0x20\n        /* \"#utility.yul\":19249:19258   */\n      dup3\n        /* \"#utility.yul\":19245:19263   */\n      add\n        /* \"#utility.yul\":19237:19263   */\n      swap1\n      pop\n        /* \"#utility.yul\":19309:19318   */\n      dup2\n        /* \"#utility.yul\":19303:19307   */\n      dup2\n        /* \"#utility.yul\":19299:19319   */\n      sub\n        /* \"#utility.yul\":19295:19296   */\n      0x00\n        /* \"#utility.yul\":19284:19293   */\n      dup4\n        /* \"#utility.yul\":19280:19297   */\n      add\n        /* \"#utility.yul\":19273:19320   */\n      mstore\n        /* \"#utility.yul\":19337:19415   */\n      tag_392\n        /* \"#utility.yul\":19410:19414   */\n      dup2\n        /* \"#utility.yul\":19401:19407   */\n      dup5\n        /* \"#utility.yul\":19337:19415   */\n      tag_153\n      jump\t// in\n    tag_392:\n        /* \"#utility.yul\":19329:19415   */\n      swap1\n      pop\n        /* \"#utility.yul\":19109:19422   */\n      swap3\n      swap2\n      pop\n      pop\n      jump\t// out\n        /* \"#utility.yul\":19428:19598   */\n    tag_191:\n        /* \"#utility.yul\":19568:19590   */\n      0x496e76616c6964207469636b657420636f756e74000000000000000000000000\n        /* \"#utility.yul\":19564:19565   */\n      0x00\n        /* \"#utility.yul\":19556:19562   */\n      dup3\n        /* \"#utility.yul\":19552:19566   */\n      add\n        /* \"#utility.yul\":19545:19591   */\n      mstore\n        /* \"#utility.yul\":19428:19598   */\n      pop\n      jump\t// out\n        /* \"#utility.yul\":19604:19970   */\n    tag_192:\n        /* \"#utility.yul\":19746:19749   */\n      0x00\n        /* \"#utility.yul\":19767:19834   */\n      tag_395\n        /* \"#utility.yul\":19831:19833   */\n      0x14\n        /* \"#utility.yul\":19826:19829   */\n      dup4\n        /* \"#utility.yul\":19767:19834   */\n      tag_152\n      jump\t// in\n    tag_395:\n        /* \"#utility.yul\":19760:19834   */\n      swap2\n      pop\n        /* \"#utility.yul\":19843:19936   */\n      tag_396\n        /* \"#utility.yul\":19932:19935   */\n      dup3\n        /* \"#utility.yul\":19843:19936   */\n      tag_191\n      jump\t// in\n    tag_396:\n        /* \"#utility.yul\":19961:19963   */\n      0x20\n        /* \"#utility.yul\":19956:19959   */\n      dup3\n        /* \"#utility.yul\":19952:19964   */\n      add\n        /* \"#utility.yul\":19945:19964   */\n      swap1\n      pop\n        /* \"#utility.yul\":19604:19970   */\n      swap2\n      swap1\n      pop\n      jump\t// out\n        /* \"#utility.yul\":19976:20395   */\n    tag_110:\n        /* \"#utility.yul\":20142:20146   */\n      0x00\n        /* \"#utility.yul\":20180:20182   */\n      0x20\n        /* \"#utility.yul\":20169:20178   */\n      dup3\n        /* \"#utility.yul\":20165:20183   */\n      add\n        /* \"#utility.yul\":20157:20183   */\n      swap1\n      pop\n        /* \"#utility.yul\":20229:20238   */\n      dup2\n        /* \"#utility.yul\":20223:20227   */\n      dup2\n        /* \"#utility.yul\":20219:20239   */\n      sub\n        /* \"#utility.yul\":20215:20216   */\n      0x00\n        /* \"#utility.yul\":20204:20213   */\n      dup4\n        /* \"#utility.yul\":20200:20217   */\n      add\n        /* \"#utility.yul\":20193:20240   */\n      mstore\n        /* \"#utility.yul\":20257:20388   */\n      tag_398\n        /* \"#utility.yul\":20383:20387   */\n      dup2\n        /* \"#utility.yul\":20257:20388   */\n      tag_192\n      jump\t// in\n    tag_398:\n        /* \"#utility.yul\":20249:20388   */\n      swap1\n      pop\n        /* \"#utility.yul\":19976:20395   */\n      swap2\n      swap1\n      pop\n      jump\t// out\n        /* \"#utility.yul\":20401:20595   */\n    tag_112:\n        /* \"#utility.yul\":20441:20445   */\n      0x00\n        /* \"#utility.yul\":20461:20481   */\n      tag_400\n        /* \"#utility.yul\":20479:20480   */\n      dup3\n        /* \"#utility.yul\":20461:20481   */\n      tag_140\n      jump\t// in\n    tag_400:\n        /* \"#utility.yul\":20456:20481   */\n      swap2\n      pop\n        /* \"#utility.yul\":20495:20515   */\n      tag_401\n        /* \"#utility.yul\":20513:20514   */\n      dup4\n        /* \"#utility.yul\":20495:20515   */\n      tag_140\n      jump\t// in\n    tag_401:\n        /* \"#utility.yul\":20490:20515   */\n      swap3\n      pop\n        /* \"#utility.yul\":20539:20540   */\n      dup3\n        /* \"#utility.yul\":20536:20537   */\n      dup3\n        /* \"#utility.yul\":20532:20541   */\n      sub\n        /* \"#utility.yul\":20524:20541   */\n      swap1\n      pop\n        /* \"#utility.yul\":20563:20564   */\n      dup2\n        /* \"#utility.yul\":20557:20561   */\n      dup2\n        /* \"#utility.yul\":20554:20565   */\n      gt\n        /* \"#utility.yul\":20551:20588   */\n      iszero\n      tag_402\n      jumpi\n        /* \"#utility.yul\":20568:20586   */\n      tag_403\n      tag_173\n      jump\t// in\n    tag_403:\n        /* \"#utility.yul\":20551:20588   */\n    tag_402:\n        /* \"#utility.yul\":20401:20595   */\n      swap3\n      swap2\n      pop\n      pop\n      jump\t// out\n        /* \"#utility.yul\":20601:20779   */\n    tag_193:\n        /* \"#utility.yul\":20741:20771   */\n      0x536f72727921206e6f7420656e6f756768207365617473206c65667400000000\n        /* \"#utility.yul\":20737:20738   */\n      0x00\n        /* \"#utility.yul\":20729:20735   */\n      dup3\n        /* \"#utility.yul\":20725:20739   */\n      add\n        /* \"#utility.yul\":20718:20772   */\n      mstore\n        /* \"#utility.yul\":20601:20779   */\n      pop\n      jump\t// out\n        /* \"#utility.yul\":20785:21151   */\n    tag_194:\n        /* \"#utility.yul\":20927:20930   */\n      0x00\n        /* \"#utility.yul\":20948:21015   */\n      tag_406\n        /* \"#utility.yul\":21012:21014   */\n      0x1c\n        /* \"#utility.yul\":21007:21010   */\n      dup4\n        /* \"#utility.yul\":20948:21015   */\n      tag_152\n      jump\t// in\n    tag_406:\n        /* \"#utility.yul\":20941:21015   */\n      swap2\n      pop\n        /* \"#utility.yul\":21024:21117   */\n      tag_407\n        /* \"#utility.yul\":21113:21116   */\n      dup3\n        /* \"#utility.yul\":21024:21117   */\n      tag_193\n      jump\t// in\n    tag_407:\n        /* \"#utility.yul\":21142:21144   */\n      0x20\n        /* \"#utility.yul\":21137:21140   */\n      dup3\n        /* \"#utility.yul\":21133:21145   */\n      add\n        /* \"#utility.yul\":21126:21145   */\n      swap1\n      pop\n        /* \"#utility.yul\":20785:21151   */\n      swap2\n      swap1\n      pop\n      jump\t// out\n        /* \"#utility.yul\":21157:21576   */\n    tag_115:\n        /* \"#utility.yul\":21323:21327   */\n      0x00\n        /* \"#utility.yul\":21361:21363   */\n      0x20\n        /* \"#utility.yul\":21350:21359   */\n      dup3\n        /* \"#utility.yul\":21346:21364   */\n      add\n        /* \"#utility.yul\":21338:21364   */\n      swap1\n      pop\n        /* \"#utility.yul\":21410:21419   */\n      dup2\n        /* \"#utility.yul\":21404:21408   */\n      dup2\n        /* \"#utility.yul\":21400:21420   */\n      sub\n        /* \"#utility.yul\":21396:21397   */\n      0x00\n        /* \"#utility.yul\":21385:21394   */\n      dup4\n        /* \"#utility.yul\":21381:21398   */\n      add\n        /* \"#utility.yul\":21374:21421   */\n      mstore\n        /* \"#utility.yul\":21438:21569   */\n      tag_409\n        /* \"#utility.yul\":21564:21568   */\n      dup2\n        /* \"#utility.yul\":21438:21569   */\n      tag_194\n      jump\t// in\n    tag_409:\n        /* \"#utility.yul\":21430:21569   */\n      swap1\n      pop\n        /* \"#utility.yul\":21157:21576   */\n      swap2\n      swap1\n      pop\n      jump\t// out\n        /* \"#utility.yul\":21582:21992   */\n    tag_117:\n        /* \"#utility.yul\":21622:21629   */\n      0x00\n        /* \"#utility.yul\":21645:21665   */\n      tag_411\n        /* \"#utility.yul\":21663:21664   */\n      dup3\n        /* \"#utility.yul\":21645:21665   */\n      tag_140\n      jump\t// in\n    tag_411:\n        /* \"#utility.yul\":21640:21665   */\n      swap2\n      pop\n        /* \"#utility.yul\":21679:21699   */\n      tag_412\n        /* \"#utility.yul\":21697:21698   */\n      dup4\n        /* \"#utility.yul\":21679:21699   */\n      tag_140\n      jump\t// in\n    tag_412:\n        /* \"#utility.yul\":21674:21699   */\n      swap3\n      pop\n        /* \"#utility.yul\":21734:21735   */\n      dup3\n        /* \"#utility.yul\":21731:21732   */\n      dup3\n        /* \"#utility.yul\":21727:21736   */\n      mul\n        /* \"#utility.yul\":21756:21786   */\n      tag_413\n        /* \"#utility.yul\":21774:21785   */\n      dup2\n        /* \"#utility.yul\":21756:21786   */\n      tag_140\n      jump\t// in\n    tag_413:\n        /* \"#utility.yul\":21745:21786   */\n      swap2\n      pop\n        /* \"#utility.yul\":21935:21936   */\n      dup3\n        /* \"#utility.yul\":21926:21933   */\n      dup3\n        /* \"#utility.yul\":21922:21937   */\n      div\n        /* \"#utility.yul\":21919:21920   */\n      dup5\n        /* \"#utility.yul\":21916:21938   */\n      eq\n        /* \"#utility.yul\":21896:21897   */\n      dup4\n        /* \"#utility.yul\":21889:21898   */\n      iszero\n        /* \"#utility.yul\":21869:21952   */\n      or\n        /* \"#utility.yul\":21846:21985   */\n      tag_414\n      jumpi\n        /* \"#utility.yul\":21965:21983   */\n      tag_415\n      tag_173\n      jump\t// in\n    tag_415:\n        /* \"#utility.yul\":21846:21985   */\n    tag_414:\n        /* \"#utility.yul\":21630:21992   */\n      pop\n        /* \"#utility.yul\":21582:21992   */\n      swap3\n      swap2\n      pop\n      pop\n      jump\t// out\n        /* \"#utility.yul\":21998:22167   */\n    tag_195:\n        /* \"#utility.yul\":22138:22159   */\n      0x496e73756666696369656e7420616d6f756e7400000000000000000000000000\n        /* \"#utility.yul\":22134:22135   */\n      0x00\n        /* \"#utility.yul\":22126:22132   */\n      dup3\n        /* \"#utility.yul\":22122:22136   */\n      add\n        /* \"#utility.yul\":22115:22160   */\n      mstore\n        /* \"#utility.yul\":21998:22167   */\n      pop\n      jump\t// out\n        /* \"#utility.yul\":22173:22539   */\n    tag_196:\n        /* \"#utility.yul\":22315:22318   */\n      0x00\n        /* \"#utility.yul\":22336:22403   */\n      tag_418\n        /* \"#utility.yul\":22400:22402   */\n      0x13\n        /* \"#utility.yul\":22395:22398   */\n      dup4\n        /* \"#utility.yul\":22336:22403   */\n      tag_152\n      jump\t// in\n    tag_418:\n        /* \"#utility.yul\":22329:22403   */\n      swap2\n      pop\n        /* \"#utility.yul\":22412:22505   */\n      tag_419\n        /* \"#utility.yul\":22501:22504   */\n      dup3\n        /* \"#utility.yul\":22412:22505   */\n      tag_195\n      jump\t// in\n    tag_419:\n        /* \"#utility.yul\":22530:22532   */\n      0x20\n        /* \"#utility.yul\":22525:22528   */\n      dup3\n        /* \"#utility.yul\":22521:22533   */\n      add\n        /* \"#utility.yul\":22514:22533   */\n      swap1\n      pop\n        /* \"#utility.yul\":22173:22539   */\n      swap2\n      swap1\n      pop\n      jump\t// out\n        /* \"#utility.yul\":22545:22964   */\n    tag_120:\n        /* \"#utility.yul\":22711:22715   */\n      0x00\n        /* \"#utility.yul\":22749:22751   */\n      0x20\n        /* \"#utility.yul\":22738:22747   */\n      dup3\n        /* \"#utility.yul\":22734:22752   */\n      add\n        /* \"#utility.yul\":22726:22752   */\n      swap1\n      pop\n        /* \"#utility.yul\":22798:22807   */\n      dup2\n        /* \"#utility.yul\":22792:22796   */\n      dup2\n        /* \"#utility.yul\":22788:22808   */\n      sub\n        /* \"#utility.yul\":22784:22785   */\n      0x00\n        /* \"#utility.yul\":22773:22782   */\n      dup4\n        /* \"#utility.yul\":22769:22786   */\n      add\n        /* \"#utility.yul\":22762:22809   */\n      mstore\n        /* \"#utility.yul\":22826:22957   */\n      tag_421\n        /* \"#utility.yul\":22952:22956   */\n      dup2\n        /* \"#utility.yul\":22826:22957   */\n      tag_196\n      jump\t// in\n    tag_421:\n        /* \"#utility.yul\":22818:22957   */\n      swap1\n      pop\n        /* \"#utility.yul\":22545:22964   */\n      swap2\n      swap1\n      pop\n      jump\t// out\n\n    auxdata: 0xa2646970667358221220d68495381e5db15740ed421f9cedfe5df6d2ca96a632e159f976849578739a5e64736f6c634300081a0033\n}\n",
				"bytecode": {
					"linkReferences": {},
					"object": "60806040525f600155348015610013575f80fd5b50604051611961380380611961833981810160405281019061003591906101db565b805f73ffffffffffffffffffffffffffffffffffffffff168173ffffffffffffffffffffffffffffffffffffffff16036100a6575f6040517f1e4fbdf700000000000000000000000000000000000000000000000000000000815260040161009d9190610215565b60405180910390fd5b6100b5816100bc60201b60201c565b505061022e565b5f805f9054906101000a900473ffffffffffffffffffffffffffffffffffffffff169050815f806101000a81548173ffffffffffffffffffffffffffffffffffffffff021916908373ffffffffffffffffffffffffffffffffffffffff1602179055508173ffffffffffffffffffffffffffffffffffffffff168173ffffffffffffffffffffffffffffffffffffffff167f8be0079c531659141344cd1fd0a4f28419497f9722a3daafe3b4186f6b6457e060405160405180910390a35050565b5f80fd5b5f73ffffffffffffffffffffffffffffffffffffffff82169050919050565b5f6101aa82610181565b9050919050565b6101ba816101a0565b81146101c4575f80fd5b50565b5f815190506101d5816101b1565b92915050565b5f602082840312156101f0576101ef61017d565b5b5f6101fd848285016101c7565b91505092915050565b61020f816101a0565b82525050565b5f6020820190506102285f830184610206565b92915050565b6117268061023b5f395ff3fe60806040526004361061006f575f3560e01c80638da5cb5b1161004d5780638da5cb5b14610107578063a3138a9b14610131578063bdbbb0cb1461016d578063f2fde38b146101895761006f565b806318535008146100735780633f90b8fd146100af578063715018a6146100f1575b5f80fd5b34801561007e575f80fd5b5061009960048036038101906100949190610b97565b6101b1565b6040516100a69190610d02565b60405180910390f35b3480156100ba575f80fd5b506100d560048036038101906100d09190610b97565b610407565b6040516100e89796959493929190610d88565b60405180910390f35b3480156100fc575f80fd5b506101056105e3565b005b348015610112575f80fd5b5061011b6105f6565b6040516101289190610e49565b60405180910390f35b34801561013c575f80fd5b5061015760048036038101906101529190610f8e565b61061d565b604051610164919061106b565b60405180910390f35b61018760048036038101906101829190611084565b610794565b005b348015610194575f80fd5b506101af60048036038101906101aa91906110ec565b610945565b005b6101b9610b18565b60015482106101fd576040517f08c379a00000000000000000000000000000000000000000000000000000000081526004016101f490611161565b60405180910390fd5b60025f8381526020019081526020015f206040518060e00160405290815f82018054610228906111ac565b80601f0160208091040260200160405190810160405280929190818152602001828054610254906111ac565b801561029f5780601f106102765761010080835404028352916020019161029f565b820191905f5260205f20905b81548152906001019060200180831161028257829003601f168201915b50505050508152602001600182015481526020016002820180546102c2906111ac565b80601f01602080910402602001604051908101604052809291908181526020018280546102ee906111ac565b80156103395780601f1061031057610100808354040283529160200191610339565b820191905f5260205f20905b81548152906001019060200180831161031c57829003601f168201915b50505050508152602001600382018054610352906111ac565b80601f016020809104026020016040519081016040528092919081815260200182805461037e906111ac565b80156103c95780601f106103a0576101008083540402835291602001916103c9565b820191905f5260205f20905b8154815290600101906020018083116103ac57829003601f168201915b505050505081526020016004820154815260200160058201548152602001600682015f9054906101000a900460ff1615151515815250509050919050565b6002602052805f5260405f205f91509050805f018054610426906111ac565b80601f0160208091040260200160405190810160405280929190818152602001828054610452906111ac565b801561049d5780601f106104745761010080835404028352916020019161049d565b820191905f5260205f20905b81548152906001019060200180831161048057829003601f168201915b5050505050908060010154908060020180546104b8906111ac565b80601f01602080910402602001604051908101604052809291908181526020018280546104e4906111ac565b801561052f5780601f106105065761010080835404028352916020019161052f565b820191905f5260205f20905b81548152906001019060200180831161051257829003601f168201915b505050505090806003018054610544906111ac565b80601f0160208091040260200160405190810160405280929190818152602001828054610570906111ac565b80156105bb5780601f10610592576101008083540402835291602001916105bb565b820191905f5260205f20905b81548152906001019060200180831161059e57829003601f168201915b505050505090806004015490806005015490806006015f9054906101000a900460ff16905087565b6105eb6109c9565b6105f45f610a50565b565b5f805f9054906101000a900473ffffffffffffffffffffffffffffffffffffffff16905090565b5f6106266109c9565b5f60015f81548092919061063990611209565b91905055905042871015610682576040517f08c379a00000000000000000000000000000000000000000000000000000000081526004016106799061129a565b60405180910390fd5b5f6040518060e001604052808a81526020018981526020018881526020018781526020018581526020018681526020016001151581525090508060025f8481526020019081526020015f205f820151815f0190816106e09190611455565b506020820151816001015560408201518160020190816107009190611455565b5060608201518160030190816107169190611455565b506080820151816004015560a0820151816005015560c0820151816006015f6101000a81548160ff021916908315150217905550905050817f289a97add868960e9e3eb95236571e2bf825c647b73aea44b134082336ed4ed08a60405161077d9190611524565b60405180910390a281925050509695505050505050565b5f60025f8481526020019081526020015f20905060015483106107ec576040517f08c379a00000000000000000000000000000000000000000000000000000000081526004016107e390611161565b60405180910390fd5b5f821161082e576040517f08c379a00000000000000000000000000000000000000000000000000000000081526004016108259061158e565b60405180910390fd5b5f82826004015461083f91906115ac565b1015610880576040517f08c379a000000000000000000000000000000000000000000000000000000000815260040161087790611629565b60405180910390fd5b8181600501546108909190611647565b3410156108d2576040517f08c379a00000000000000000000000000000000000000000000000000000000081526004016108c9906116d2565b60405180910390fd5b8160025f8581526020019081526020015f206004015f8282546108f591906115ac565b925050819055503373ffffffffffffffffffffffffffffffffffffffff16837f785f2865353ae960010300f584fc6c577b757a853af69a99c769df3c8232d3de60405160405180910390a3505050565b61094d6109c9565b5f73ffffffffffffffffffffffffffffffffffffffff168173ffffffffffffffffffffffffffffffffffffffff16036109bd575f6040517f1e4fbdf70000000000000000000000000000000000000000000000000000000081526004016109b49190610e49565b60405180910390fd5b6109c681610a50565b50565b6109d1610b11565b73ffffffffffffffffffffffffffffffffffffffff166109ef6105f6565b73ffffffffffffffffffffffffffffffffffffffff1614610a4e57610a12610b11565b6040517f118cdaa7000000000000000000000000000000000000000000000000000000008152600401610a459190610e49565b60405180910390fd5b565b5f805f9054906101000a900473ffffffffffffffffffffffffffffffffffffffff169050815f806101000a81548173ffffffffffffffffffffffffffffffffffffffff021916908373ffffffffffffffffffffffffffffffffffffffff1602179055508173ffffffffffffffffffffffffffffffffffffffff168173ffffffffffffffffffffffffffffffffffffffff167f8be0079c531659141344cd1fd0a4f28419497f9722a3daafe3b4186f6b6457e060405160405180910390a35050565b5f33905090565b6040518060e00160405280606081526020015f815260200160608152602001606081526020015f81526020015f81526020015f151581525090565b5f604051905090565b5f80fd5b5f80fd5b5f819050919050565b610b7681610b64565b8114610b80575f80fd5b50565b5f81359050610b9181610b6d565b92915050565b5f60208284031215610bac57610bab610b5c565b5b5f610bb984828501610b83565b91505092915050565b5f81519050919050565b5f82825260208201905092915050565b8281835e5f83830152505050565b5f601f19601f8301169050919050565b5f610c0482610bc2565b610c0e8185610bcc565b9350610c1e818560208601610bdc565b610c2781610bea565b840191505092915050565b610c3b81610b64565b82525050565b5f8115159050919050565b610c5581610c41565b82525050565b5f60e083015f8301518482035f860152610c758282610bfa565b9150506020830151610c8a6020860182610c32565b5060408301518482036040860152610ca28282610bfa565b91505060608301518482036060860152610cbc8282610bfa565b9150506080830151610cd16080860182610c32565b5060a0830151610ce460a0860182610c32565b5060c0830151610cf760c0860182610c4c565b508091505092915050565b5f6020820190508181035f830152610d1a8184610c5b565b905092915050565b5f82825260208201905092915050565b5f610d3c82610bc2565b610d468185610d22565b9350610d56818560208601610bdc565b610d5f81610bea565b840191505092915050565b610d7381610b64565b82525050565b610d8281610c41565b82525050565b5f60e0820190508181035f830152610da0818a610d32565b9050610daf6020830189610d6a565b8181036040830152610dc18188610d32565b90508181036060830152610dd58187610d32565b9050610de46080830186610d6a565b610df160a0830185610d6a565b610dfe60c0830184610d79565b98975050505050505050565b5f73ffffffffffffffffffffffffffffffffffffffff82169050919050565b5f610e3382610e0a565b9050919050565b610e4381610e29565b82525050565b5f602082019050610e5c5f830184610e3a565b92915050565b5f80fd5b5f80fd5b7f4e487b71000000000000000000000000000000000000000000000000000000005f52604160045260245ffd5b610ea082610bea565b810181811067ffffffffffffffff82111715610ebf57610ebe610e6a565b5b80604052505050565b5f610ed1610b53565b9050610edd8282610e97565b919050565b5f67ffffffffffffffff821115610efc57610efb610e6a565b5b610f0582610bea565b9050602081019050919050565b828183375f83830152505050565b5f610f32610f2d84610ee2565b610ec8565b905082815260208101848484011115610f4e57610f4d610e66565b5b610f59848285610f12565b509392505050565b5f82601f830112610f7557610f74610e62565b5b8135610f85848260208601610f20565b91505092915050565b5f805f805f8060c08789031215610fa857610fa7610b5c565b5b5f87013567ffffffffffffffff811115610fc557610fc4610b60565b5b610fd189828a01610f61565b9650506020610fe289828a01610b83565b955050604087013567ffffffffffffffff81111561100357611002610b60565b5b61100f89828a01610f61565b945050606087013567ffffffffffffffff8111156110305761102f610b60565b5b61103c89828a01610f61565b935050608061104d89828a01610b83565b92505060a061105e89828a01610b83565b9150509295509295509295565b5f60208201905061107e5f830184610d6a565b92915050565b5f806040838503121561109a57611099610b5c565b5b5f6110a785828601610b83565b92505060206110b885828601610b83565b9150509250929050565b6110cb81610e29565b81146110d5575f80fd5b50565b5f813590506110e6816110c2565b92915050565b5f6020828403121561110157611100610b5c565b5b5f61110e848285016110d8565b91505092915050565b7f496e76616c696420666c696768742069640000000000000000000000000000005f82015250565b5f61114b601183610d22565b915061115682611117565b602082019050919050565b5f6020820190508181035f8301526111788161113f565b9050919050565b7f4e487b71000000000000000000000000000000000000000000000000000000005f52602260045260245ffd5b5f60028204905060018216806111c357607f821691505b6020821081036111d6576111d561117f565b5b50919050565b7f4e487b71000000000000000000000000000000000000000000000000000000005f52601160045260245ffd5b5f61121382610b64565b91507fffffffffffffffffffffffffffffffffffffffffffffffffffffffffffffffff8203611245576112446111dc565b5b600182019050919050565b7f496e76616c6964204465706172747572652054696d65000000000000000000005f82015250565b5f611284601683610d22565b915061128f82611250565b602082019050919050565b5f6020820190508181035f8301526112b181611278565b9050919050565b5f819050815f5260205f209050919050565b5f6020601f8301049050919050565b5f82821b905092915050565b5f600883026113147fffffffffffffffffffffffffffffffffffffffffffffffffffffffffffffffff826112d9565b61131e86836112d9565b95508019841693508086168417925050509392505050565b5f819050919050565b5f61135961135461134f84610b64565b611336565b610b64565b9050919050565b5f819050919050565b6113728361133f565b61138661137e82611360565b8484546112e5565b825550505050565b5f90565b61139a61138e565b6113a5818484611369565b505050565b5b818110156113c8576113bd5f82611392565b6001810190506113ab565b5050565b601f82111561140d576113de816112b8565b6113e7846112ca565b810160208510156113f6578190505b61140a611402856112ca565b8301826113aa565b50505b505050565b5f82821c905092915050565b5f61142d5f1984600802611412565b1980831691505092915050565b5f611445838361141e565b9150826002028217905092915050565b61145e82610bc2565b67ffffffffffffffff81111561147757611476610e6a565b5b61148182546111ac565b61148c8282856113cc565b5f60209050601f8311600181146114bd575f84156114ab578287015190505b6114b5858261143a565b86555061151c565b601f1984166114cb866112b8565b5f5b828110156114f2578489015182556001820191506020850194506020810190506114cd565b8683101561150f578489015161150b601f89168261141e565b8355505b6001600288020188555050505b505050505050565b5f6020820190508181035f83015261153c8184610d32565b905092915050565b7f496e76616c6964207469636b657420636f756e740000000000000000000000005f82015250565b5f611578601483610d22565b915061158382611544565b602082019050919050565b5f6020820190508181035f8301526115a58161156c565b9050919050565b5f6115b682610b64565b91506115c183610b64565b92508282039050818111156115d9576115d86111dc565b5b92915050565b7f536f72727921206e6f7420656e6f756768207365617473206c656674000000005f82015250565b5f611613601c83610d22565b915061161e826115df565b602082019050919050565b5f6020820190508181035f83015261164081611607565b9050919050565b5f61165182610b64565b915061165c83610b64565b925082820261166a81610b64565b91508282048414831517611681576116806111dc565b5b5092915050565b7f496e73756666696369656e7420616d6f756e74000000000000000000000000005f82015250565b5f6116bc601383610d22565b91506116c782611688565b602082019050919050565b5f6020820190508181035f8301526116e9816116b0565b905091905056fea2646970667358221220d68495381e5db15740ed421f9cedfe5df6d2ca96a632e159f976849578739a5e64736f6c634300081a0033",
					"opcodes": "PUSH1 0x80 PUSH1 0x40 MSTORE PUSH0 PUSH1 0x1 SSTORE CALLVALUE DUP1 ISZERO PUSH2 0x13 JUMPI PUSH0 DUP1 REVERT JUMPDEST POP PUSH1 0x40 MLOAD PUSH2 0x1961 CODESIZE SUB DUP1 PUSH2 0x1961 DUP4 CODECOPY DUP2 DUP2 ADD PUSH1 0x40 MSTORE DUP2 ADD SWAP1 PUSH2 0x35 SWAP2 SWAP1 PUSH2 0x1DB JUMP JUMPDEST DUP1 PUSH0 PUSH20 0xFFFFFFFFFFFFFFFFFFFFFFFFFFFFFFFFFFFFFFFF AND DUP2 PUSH20 0xFFFFFFFFFFFFFFFFFFFFFFFFFFFFFFFFFFFFFFFF AND SUB PUSH2 0xA6 JUMPI PUSH0 PUSH1 0x40 MLOAD PUSH32 0x1E4FBDF700000000000000000000000000000000000000000000000000000000 DUP2 MSTORE PUSH1 0x4 ADD PUSH2 0x9D SWAP2 SWAP1 PUSH2 0x215 JUMP JUMPDEST PUSH1 0x40 MLOAD DUP1 SWAP2 SUB SWAP1 REVERT JUMPDEST PUSH2 0xB5 DUP2 PUSH2 0xBC PUSH1 0x20 SHL PUSH1 0x20 SHR JUMP JUMPDEST POP POP PUSH2 0x22E JUMP JUMPDEST PUSH0 DUP1 PUSH0 SWAP1 SLOAD SWAP1 PUSH2 0x100 EXP SWAP1 DIV PUSH20 0xFFFFFFFFFFFFFFFFFFFFFFFFFFFFFFFFFFFFFFFF AND SWAP1 POP DUP2 PUSH0 DUP1 PUSH2 0x100 EXP DUP2 SLOAD DUP2 PUSH20 0xFFFFFFFFFFFFFFFFFFFFFFFFFFFFFFFFFFFFFFFF MUL NOT AND SWAP1 DUP4 PUSH20 0xFFFFFFFFFFFFFFFFFFFFFFFFFFFFFFFFFFFFFFFF AND MUL OR SWAP1 SSTORE POP DUP2 PUSH20 0xFFFFFFFFFFFFFFFFFFFFFFFFFFFFFFFFFFFFFFFF AND DUP2 PUSH20 0xFFFFFFFFFFFFFFFFFFFFFFFFFFFFFFFFFFFFFFFF AND PUSH32 0x8BE0079C531659141344CD1FD0A4F28419497F9722A3DAAFE3B4186F6B6457E0 PUSH1 0x40 MLOAD PUSH1 0x40 MLOAD DUP1 SWAP2 SUB SWAP1 LOG3 POP POP JUMP JUMPDEST PUSH0 DUP1 REVERT JUMPDEST PUSH0 PUSH20 0xFFFFFFFFFFFFFFFFFFFFFFFFFFFFFFFFFFFFFFFF DUP3 AND SWAP1 POP SWAP2 SWAP1 POP JUMP JUMPDEST PUSH0 PUSH2 0x1AA DUP3 PUSH2 0x181 JUMP JUMPDEST SWAP1 POP SWAP2 SWAP1 POP JUMP JUMPDEST PUSH2 0x1BA DUP2 PUSH2 0x1A0 JUMP JUMPDEST DUP2 EQ PUSH2 0x1C4 JUMPI PUSH0 DUP1 REVERT JUMPDEST POP JUMP JUMPDEST PUSH0 DUP2 MLOAD SWAP1 POP PUSH2 0x1D5 DUP2 PUSH2 0x1B1 JUMP JUMPDEST SWAP3 SWAP2 POP POP JUMP JUMPDEST PUSH0 PUSH1 0x20 DUP3 DUP5 SUB SLT ISZERO PUSH2 0x1F0 JUMPI PUSH2 0x1EF PUSH2 0x17D JUMP JUMPDEST JUMPDEST PUSH0 PUSH2 0x1FD DUP5 DUP3 DUP6 ADD PUSH2 0x1C7 JUMP JUMPDEST SWAP2 POP POP SWAP3 SWAP2 POP POP JUMP JUMPDEST PUSH2 0x20F DUP2 PUSH2 0x1A0 JUMP JUMPDEST DUP3 MSTORE POP POP JUMP JUMPDEST PUSH0 PUSH1 0x20 DUP3 ADD SWAP1 POP PUSH2 0x228 PUSH0 DUP4 ADD DUP5 PUSH2 0x206 JUMP JUMPDEST SWAP3 SWAP2 POP POP JUMP JUMPDEST PUSH2 0x1726 DUP1 PUSH2 0x23B PUSH0 CODECOPY PUSH0 RETURN INVALID PUSH1 0x80 PUSH1 0x40 MSTORE PUSH1 0x4 CALLDATASIZE LT PUSH2 0x6F JUMPI PUSH0 CALLDATALOAD PUSH1 0xE0 SHR DUP1 PUSH4 0x8DA5CB5B GT PUSH2 0x4D JUMPI DUP1 PUSH4 0x8DA5CB5B EQ PUSH2 0x107 JUMPI DUP1 PUSH4 0xA3138A9B EQ PUSH2 0x131 JUMPI DUP1 PUSH4 0xBDBBB0CB EQ PUSH2 0x16D JUMPI DUP1 PUSH4 0xF2FDE38B EQ PUSH2 0x189 JUMPI PUSH2 0x6F JUMP JUMPDEST DUP1 PUSH4 0x18535008 EQ PUSH2 0x73 JUMPI DUP1 PUSH4 0x3F90B8FD EQ PUSH2 0xAF JUMPI DUP1 PUSH4 0x715018A6 EQ PUSH2 0xF1 JUMPI JUMPDEST PUSH0 DUP1 REVERT JUMPDEST CALLVALUE DUP1 ISZERO PUSH2 0x7E JUMPI PUSH0 DUP1 REVERT JUMPDEST POP PUSH2 0x99 PUSH1 0x4 DUP1 CALLDATASIZE SUB DUP2 ADD SWAP1 PUSH2 0x94 SWAP2 SWAP1 PUSH2 0xB97 JUMP JUMPDEST PUSH2 0x1B1 JUMP JUMPDEST PUSH1 0x40 MLOAD PUSH2 0xA6 SWAP2 SWAP1 PUSH2 0xD02 JUMP JUMPDEST PUSH1 0x40 MLOAD DUP1 SWAP2 SUB SWAP1 RETURN JUMPDEST CALLVALUE DUP1 ISZERO PUSH2 0xBA JUMPI PUSH0 DUP1 REVERT JUMPDEST POP PUSH2 0xD5 PUSH1 0x4 DUP1 CALLDATASIZE SUB DUP2 ADD SWAP1 PUSH2 0xD0 SWAP2 SWAP1 PUSH2 0xB97 JUMP JUMPDEST PUSH2 0x407 JUMP JUMPDEST PUSH1 0x40 MLOAD PUSH2 0xE8 SWAP8 SWAP7 SWAP6 SWAP5 SWAP4 SWAP3 SWAP2 SWAP1 PUSH2 0xD88 JUMP JUMPDEST PUSH1 0x40 MLOAD DUP1 SWAP2 SUB SWAP1 RETURN JUMPDEST CALLVALUE DUP1 ISZERO PUSH2 0xFC JUMPI PUSH0 DUP1 REVERT JUMPDEST POP PUSH2 0x105 PUSH2 0x5E3 JUMP JUMPDEST STOP JUMPDEST CALLVALUE DUP1 ISZERO PUSH2 0x112 JUMPI PUSH0 DUP1 REVERT JUMPDEST POP PUSH2 0x11B PUSH2 0x5F6 JUMP JUMPDEST PUSH1 0x40 MLOAD PUSH2 0x128 SWAP2 SWAP1 PUSH2 0xE49 JUMP JUMPDEST PUSH1 0x40 MLOAD DUP1 SWAP2 SUB SWAP1 RETURN JUMPDEST CALLVALUE DUP1 ISZERO PUSH2 0x13C JUMPI PUSH0 DUP1 REVERT JUMPDEST POP PUSH2 0x157 PUSH1 0x4 DUP1 CALLDATASIZE SUB DUP2 ADD SWAP1 PUSH2 0x152 SWAP2 SWAP1 PUSH2 0xF8E JUMP JUMPDEST PUSH2 0x61D JUMP JUMPDEST PUSH1 0x40 MLOAD PUSH2 0x164 SWAP2 SWAP1 PUSH2 0x106B JUMP JUMPDEST PUSH1 0x40 MLOAD DUP1 SWAP2 SUB SWAP1 RETURN JUMPDEST PUSH2 0x187 PUSH1 0x4 DUP1 CALLDATASIZE SUB DUP2 ADD SWAP1 PUSH2 0x182 SWAP2 SWAP1 PUSH2 0x1084 JUMP JUMPDEST PUSH2 0x794 JUMP JUMPDEST STOP JUMPDEST CALLVALUE DUP1 ISZERO PUSH2 0x194 JUMPI PUSH0 DUP1 REVERT JUMPDEST POP PUSH2 0x1AF PUSH1 0x4 DUP1 CALLDATASIZE SUB DUP2 ADD SWAP1 PUSH2 0x1AA SWAP2 SWAP1 PUSH2 0x10EC JUMP JUMPDEST PUSH2 0x945 JUMP JUMPDEST STOP JUMPDEST PUSH2 0x1B9 PUSH2 0xB18 JUMP JUMPDEST PUSH1 0x1 SLOAD DUP3 LT PUSH2 0x1FD JUMPI PUSH1 0x40 MLOAD PUSH32 0x8C379A000000000000000000000000000000000000000000000000000000000 DUP2 MSTORE PUSH1 0x4 ADD PUSH2 0x1F4 SWAP1 PUSH2 0x1161 JUMP JUMPDEST PUSH1 0x40 MLOAD DUP1 SWAP2 SUB SWAP1 REVERT JUMPDEST PUSH1 0x2 PUSH0 DUP4 DUP2 MSTORE PUSH1 0x20 ADD SWAP1 DUP2 MSTORE PUSH1 0x20 ADD PUSH0 KECCAK256 PUSH1 0x40 MLOAD DUP1 PUSH1 0xE0 ADD PUSH1 0x40 MSTORE SWAP1 DUP2 PUSH0 DUP3 ADD DUP1 SLOAD PUSH2 0x228 SWAP1 PUSH2 0x11AC JUMP JUMPDEST DUP1 PUSH1 0x1F ADD PUSH1 0x20 DUP1 SWAP2 DIV MUL PUSH1 0x20 ADD PUSH1 0x40 MLOAD SWAP1 DUP2 ADD PUSH1 0x40 MSTORE DUP1 SWAP3 SWAP2 SWAP1 DUP2 DUP2 MSTORE PUSH1 0x20 ADD DUP3 DUP1 SLOAD PUSH2 0x254 SWAP1 PUSH2 0x11AC JUMP JUMPDEST DUP1 ISZERO PUSH2 0x29F JUMPI DUP1 PUSH1 0x1F LT PUSH2 0x276 JUMPI PUSH2 0x100 DUP1 DUP4 SLOAD DIV MUL DUP4 MSTORE SWAP2 PUSH1 0x20 ADD SWAP2 PUSH2 0x29F JUMP JUMPDEST DUP3 ADD SWAP2 SWAP1 PUSH0 MSTORE PUSH1 0x20 PUSH0 KECCAK256 SWAP1 JUMPDEST DUP2 SLOAD DUP2 MSTORE SWAP1 PUSH1 0x1 ADD SWAP1 PUSH1 0x20 ADD DUP1 DUP4 GT PUSH2 0x282 JUMPI DUP3 SWAP1 SUB PUSH1 0x1F AND DUP3 ADD SWAP2 JUMPDEST POP POP POP POP POP DUP2 MSTORE PUSH1 0x20 ADD PUSH1 0x1 DUP3 ADD SLOAD DUP2 MSTORE PUSH1 0x20 ADD PUSH1 0x2 DUP3 ADD DUP1 SLOAD PUSH2 0x2C2 SWAP1 PUSH2 0x11AC JUMP JUMPDEST DUP1 PUSH1 0x1F ADD PUSH1 0x20 DUP1 SWAP2 DIV MUL PUSH1 0x20 ADD PUSH1 0x40 MLOAD SWAP1 DUP2 ADD PUSH1 0x40 MSTORE DUP1 SWAP3 SWAP2 SWAP1 DUP2 DUP2 MSTORE PUSH1 0x20 ADD DUP3 DUP1 SLOAD PUSH2 0x2EE SWAP1 PUSH2 0x11AC JUMP JUMPDEST DUP1 ISZERO PUSH2 0x339 JUMPI DUP1 PUSH1 0x1F LT PUSH2 0x310 JUMPI PUSH2 0x100 DUP1 DUP4 SLOAD DIV MUL DUP4 MSTORE SWAP2 PUSH1 0x20 ADD SWAP2 PUSH2 0x339 JUMP JUMPDEST DUP3 ADD SWAP2 SWAP1 PUSH0 MSTORE PUSH1 0x20 PUSH0 KECCAK256 SWAP1 JUMPDEST DUP2 SLOAD DUP2 MSTORE SWAP1 PUSH1 0x1 ADD SWAP1 PUSH1 0x20 ADD DUP1 DUP4 GT PUSH2 0x31C JUMPI DUP3 SWAP1 SUB PUSH1 0x1F AND DUP3 ADD SWAP2 JUMPDEST POP POP POP POP POP DUP2 MSTORE PUSH1 0x20 ADD PUSH1 0x3 DUP3 ADD DUP1 SLOAD PUSH2 0x352 SWAP1 PUSH2 0x11AC JUMP JUMPDEST DUP1 PUSH1 0x1F ADD PUSH1 0x20 DUP1 SWAP2 DIV MUL PUSH1 0x20 ADD PUSH1 0x40 MLOAD SWAP1 DUP2 ADD PUSH1 0x40 MSTORE DUP1 SWAP3 SWAP2 SWAP1 DUP2 DUP2 MSTORE PUSH1 0x20 ADD DUP3 DUP1 SLOAD PUSH2 0x37E SWAP1 PUSH2 0x11AC JUMP JUMPDEST DUP1 ISZERO PUSH2 0x3C9 JUMPI DUP1 PUSH1 0x1F LT PUSH2 0x3A0 JUMPI PUSH2 0x100 DUP1 DUP4 SLOAD DIV MUL DUP4 MSTORE SWAP2 PUSH1 0x20 ADD SWAP2 PUSH2 0x3C9 JUMP JUMPDEST DUP3 ADD SWAP2 SWAP1 PUSH0 MSTORE PUSH1 0x20 PUSH0 KECCAK256 SWAP1 JUMPDEST DUP2 SLOAD DUP2 MSTORE SWAP1 PUSH1 0x1 ADD SWAP1 PUSH1 0x20 ADD DUP1 DUP4 GT PUSH2 0x3AC JUMPI DUP3 SWAP1 SUB PUSH1 0x1F AND DUP3 ADD SWAP2 JUMPDEST POP POP POP POP POP DUP2 MSTORE PUSH1 0x20 ADD PUSH1 0x4 DUP3 ADD SLOAD DUP2 MSTORE PUSH1 0x20 ADD PUSH1 0x5 DUP3 ADD SLOAD DUP2 MSTORE PUSH1 0x20 ADD PUSH1 0x6 DUP3 ADD PUSH0 SWAP1 SLOAD SWAP1 PUSH2 0x100 EXP SWAP1 DIV PUSH1 0xFF AND ISZERO ISZERO ISZERO ISZERO DUP2 MSTORE POP POP SWAP1 POP SWAP2 SWAP1 POP JUMP JUMPDEST PUSH1 0x2 PUSH1 0x20 MSTORE DUP1 PUSH0 MSTORE PUSH1 0x40 PUSH0 KECCAK256 PUSH0 SWAP2 POP SWAP1 POP DUP1 PUSH0 ADD DUP1 SLOAD PUSH2 0x426 SWAP1 PUSH2 0x11AC JUMP JUMPDEST DUP1 PUSH1 0x1F ADD PUSH1 0x20 DUP1 SWAP2 DIV MUL PUSH1 0x20 ADD PUSH1 0x40 MLOAD SWAP1 DUP2 ADD PUSH1 0x40 MSTORE DUP1 SWAP3 SWAP2 SWAP1 DUP2 DUP2 MSTORE PUSH1 0x20 ADD DUP3 DUP1 SLOAD PUSH2 0x452 SWAP1 PUSH2 0x11AC JUMP JUMPDEST DUP1 ISZERO PUSH2 0x49D JUMPI DUP1 PUSH1 0x1F LT PUSH2 0x474 JUMPI PUSH2 0x100 DUP1 DUP4 SLOAD DIV MUL DUP4 MSTORE SWAP2 PUSH1 0x20 ADD SWAP2 PUSH2 0x49D JUMP JUMPDEST DUP3 ADD SWAP2 SWAP1 PUSH0 MSTORE PUSH1 0x20 PUSH0 KECCAK256 SWAP1 JUMPDEST DUP2 SLOAD DUP2 MSTORE SWAP1 PUSH1 0x1 ADD SWAP1 PUSH1 0x20 ADD DUP1 DUP4 GT PUSH2 0x480 JUMPI DUP3 SWAP1 SUB PUSH1 0x1F AND DUP3 ADD SWAP2 JUMPDEST POP POP POP POP POP SWAP1 DUP1 PUSH1 0x1 ADD SLOAD SWAP1 DUP1 PUSH1 0x2 ADD DUP1 SLOAD PUSH2 0x4B8 SWAP1 PUSH2 0x11AC JUMP JUMPDEST DUP1 PUSH1 0x1F ADD PUSH1 0x20 DUP1 SWAP2 DIV MUL PUSH1 0x20 ADD PUSH1 0x40 MLOAD SWAP1 DUP2 ADD PUSH1 0x40 MSTORE DUP1 SWAP3 SWAP2 SWAP1 DUP2 DUP2 MSTORE PUSH1 0x20 ADD DUP3 DUP1 SLOAD PUSH2 0x4E4 SWAP1 PUSH2 0x11AC JUMP JUMPDEST DUP1 ISZERO PUSH2 0x52F JUMPI DUP1 PUSH1 0x1F LT PUSH2 0x506 JUMPI PUSH2 0x100 DUP1 DUP4 SLOAD DIV MUL DUP4 MSTORE SWAP2 PUSH1 0x20 ADD SWAP2 PUSH2 0x52F JUMP JUMPDEST DUP3 ADD SWAP2 SWAP1 PUSH0 MSTORE PUSH1 0x20 PUSH0 KECCAK256 SWAP1 JUMPDEST DUP2 SLOAD DUP2 MSTORE SWAP1 PUSH1 0x1 ADD SWAP1 PUSH1 0x20 ADD DUP1 DUP4 GT PUSH2 0x512 JUMPI DUP3 SWAP1 SUB PUSH1 0x1F AND DUP3 ADD SWAP2 JUMPDEST POP POP POP POP POP SWAP1 DUP1 PUSH1 0x3 ADD DUP1 SLOAD PUSH2 0x544 SWAP1 PUSH2 0x11AC JUMP JUMPDEST DUP1 PUSH1 0x1F ADD PUSH1 0x20 DUP1 SWAP2 DIV MUL PUSH1 0x20 ADD PUSH1 0x40 MLOAD SWAP1 DUP2 ADD PUSH1 0x40 MSTORE DUP1 SWAP3 SWAP2 SWAP1 DUP2 DUP2 MSTORE PUSH1 0x20 ADD DUP3 DUP1 SLOAD PUSH2 0x570 SWAP1 PUSH2 0x11AC JUMP JUMPDEST DUP1 ISZERO PUSH2 0x5BB JUMPI DUP1 PUSH1 0x1F LT PUSH2 0x592 JUMPI PUSH2 0x100 DUP1 DUP4 SLOAD DIV MUL DUP4 MSTORE SWAP2 PUSH1 0x20 ADD SWAP2 PUSH2 0x5BB JUMP JUMPDEST DUP3 ADD SWAP2 SWAP1 PUSH0 MSTORE PUSH1 0x20 PUSH0 KECCAK256 SWAP1 JUMPDEST DUP2 SLOAD DUP2 MSTORE SWAP1 PUSH1 0x1 ADD SWAP1 PUSH1 0x20 ADD DUP1 DUP4 GT PUSH2 0x59E JUMPI DUP3 SWAP1 SUB PUSH1 0x1F AND DUP3 ADD SWAP2 JUMPDEST POP POP POP POP POP SWAP1 DUP1 PUSH1 0x4 ADD SLOAD SWAP1 DUP1 PUSH1 0x5 ADD SLOAD SWAP1 DUP1 PUSH1 0x6 ADD PUSH0 SWAP1 SLOAD SWAP1 PUSH2 0x100 EXP SWAP1 DIV PUSH1 0xFF AND SWAP1 POP DUP8 JUMP JUMPDEST PUSH2 0x5EB PUSH2 0x9C9 JUMP JUMPDEST PUSH2 0x5F4 PUSH0 PUSH2 0xA50 JUMP JUMPDEST JUMP JUMPDEST PUSH0 DUP1 PUSH0 SWAP1 SLOAD SWAP1 PUSH2 0x100 EXP SWAP1 DIV PUSH20 0xFFFFFFFFFFFFFFFFFFFFFFFFFFFFFFFFFFFFFFFF AND SWAP1 POP SWAP1 JUMP JUMPDEST PUSH0 PUSH2 0x626 PUSH2 0x9C9 JUMP JUMPDEST PUSH0 PUSH1 0x1 PUSH0 DUP2 SLOAD DUP1 SWAP3 SWAP2 SWAP1 PUSH2 0x639 SWAP1 PUSH2 0x1209 JUMP JUMPDEST SWAP2 SWAP1 POP SSTORE SWAP1 POP TIMESTAMP DUP8 LT ISZERO PUSH2 0x682 JUMPI PUSH1 0x40 MLOAD PUSH32 0x8C379A000000000000000000000000000000000000000000000000000000000 DUP2 MSTORE PUSH1 0x4 ADD PUSH2 0x679 SWAP1 PUSH2 0x129A JUMP JUMPDEST PUSH1 0x40 MLOAD DUP1 SWAP2 SUB SWAP1 REVERT JUMPDEST PUSH0 PUSH1 0x40 MLOAD DUP1 PUSH1 0xE0 ADD PUSH1 0x40 MSTORE DUP1 DUP11 DUP2 MSTORE PUSH1 0x20 ADD DUP10 DUP2 MSTORE PUSH1 0x20 ADD DUP9 DUP2 MSTORE PUSH1 0x20 ADD DUP8 DUP2 MSTORE PUSH1 0x20 ADD DUP6 DUP2 MSTORE PUSH1 0x20 ADD DUP7 DUP2 MSTORE PUSH1 0x20 ADD PUSH1 0x1 ISZERO ISZERO DUP2 MSTORE POP SWAP1 POP DUP1 PUSH1 0x2 PUSH0 DUP5 DUP2 MSTORE PUSH1 0x20 ADD SWAP1 DUP2 MSTORE PUSH1 0x20 ADD PUSH0 KECCAK256 PUSH0 DUP3 ADD MLOAD DUP2 PUSH0 ADD SWAP1 DUP2 PUSH2 0x6E0 SWAP2 SWAP1 PUSH2 0x1455 JUMP JUMPDEST POP PUSH1 0x20 DUP3 ADD MLOAD DUP2 PUSH1 0x1 ADD SSTORE PUSH1 0x40 DUP3 ADD MLOAD DUP2 PUSH1 0x2 ADD SWAP1 DUP2 PUSH2 0x700 SWAP2 SWAP1 PUSH2 0x1455 JUMP JUMPDEST POP PUSH1 0x60 DUP3 ADD MLOAD DUP2 PUSH1 0x3 ADD SWAP1 DUP2 PUSH2 0x716 SWAP2 SWAP1 PUSH2 0x1455 JUMP JUMPDEST POP PUSH1 0x80 DUP3 ADD MLOAD DUP2 PUSH1 0x4 ADD SSTORE PUSH1 0xA0 DUP3 ADD MLOAD DUP2 PUSH1 0x5 ADD SSTORE PUSH1 0xC0 DUP3 ADD MLOAD DUP2 PUSH1 0x6 ADD PUSH0 PUSH2 0x100 EXP DUP2 SLOAD DUP2 PUSH1 0xFF MUL NOT AND SWAP1 DUP4 ISZERO ISZERO MUL OR SWAP1 SSTORE POP SWAP1 POP POP DUP2 PUSH32 0x289A97ADD868960E9E3EB95236571E2BF825C647B73AEA44B134082336ED4ED0 DUP11 PUSH1 0x40 MLOAD PUSH2 0x77D SWAP2 SWAP1 PUSH2 0x1524 JUMP JUMPDEST PUSH1 0x40 MLOAD DUP1 SWAP2 SUB SWAP1 LOG2 DUP2 SWAP3 POP POP POP SWAP7 SWAP6 POP POP POP POP POP POP JUMP JUMPDEST PUSH0 PUSH1 0x2 PUSH0 DUP5 DUP2 MSTORE PUSH1 0x20 ADD SWAP1 DUP2 MSTORE PUSH1 0x20 ADD PUSH0 KECCAK256 SWAP1 POP PUSH1 0x1 SLOAD DUP4 LT PUSH2 0x7EC JUMPI PUSH1 0x40 MLOAD PUSH32 0x8C379A000000000000000000000000000000000000000000000000000000000 DUP2 MSTORE PUSH1 0x4 ADD PUSH2 0x7E3 SWAP1 PUSH2 0x1161 JUMP JUMPDEST PUSH1 0x40 MLOAD DUP1 SWAP2 SUB SWAP1 REVERT JUMPDEST PUSH0 DUP3 GT PUSH2 0x82E JUMPI PUSH1 0x40 MLOAD PUSH32 0x8C379A000000000000000000000000000000000000000000000000000000000 DUP2 MSTORE PUSH1 0x4 ADD PUSH2 0x825 SWAP1 PUSH2 0x158E JUMP JUMPDEST PUSH1 0x40 MLOAD DUP1 SWAP2 SUB SWAP1 REVERT JUMPDEST PUSH0 DUP3 DUP3 PUSH1 0x4 ADD SLOAD PUSH2 0x83F SWAP2 SWAP1 PUSH2 0x15AC JUMP JUMPDEST LT ISZERO PUSH2 0x880 JUMPI PUSH1 0x40 MLOAD PUSH32 0x8C379A000000000000000000000000000000000000000000000000000000000 DUP2 MSTORE PUSH1 0x4 ADD PUSH2 0x877 SWAP1 PUSH2 0x1629 JUMP JUMPDEST PUSH1 0x40 MLOAD DUP1 SWAP2 SUB SWAP1 REVERT JUMPDEST DUP2 DUP2 PUSH1 0x5 ADD SLOAD PUSH2 0x890 SWAP2 SWAP1 PUSH2 0x1647 JUMP JUMPDEST CALLVALUE LT ISZERO PUSH2 0x8D2 JUMPI PUSH1 0x40 MLOAD PUSH32 0x8C379A000000000000000000000000000000000000000000000000000000000 DUP2 MSTORE PUSH1 0x4 ADD PUSH2 0x8C9 SWAP1 PUSH2 0x16D2 JUMP JUMPDEST PUSH1 0x40 MLOAD DUP1 SWAP2 SUB SWAP1 REVERT JUMPDEST DUP2 PUSH1 0x2 PUSH0 DUP6 DUP2 MSTORE PUSH1 0x20 ADD SWAP1 DUP2 MSTORE PUSH1 0x20 ADD PUSH0 KECCAK256 PUSH1 0x4 ADD PUSH0 DUP3 DUP3 SLOAD PUSH2 0x8F5 SWAP2 SWAP1 PUSH2 0x15AC JUMP JUMPDEST SWAP3 POP POP DUP2 SWAP1 SSTORE POP CALLER PUSH20 0xFFFFFFFFFFFFFFFFFFFFFFFFFFFFFFFFFFFFFFFF AND DUP4 PUSH32 0x785F2865353AE960010300F584FC6C577B757A853AF69A99C769DF3C8232D3DE PUSH1 0x40 MLOAD PUSH1 0x40 MLOAD DUP1 SWAP2 SUB SWAP1 LOG3 POP POP POP JUMP JUMPDEST PUSH2 0x94D PUSH2 0x9C9 JUMP JUMPDEST PUSH0 PUSH20 0xFFFFFFFFFFFFFFFFFFFFFFFFFFFFFFFFFFFFFFFF AND DUP2 PUSH20 0xFFFFFFFFFFFFFFFFFFFFFFFFFFFFFFFFFFFFFFFF AND SUB PUSH2 0x9BD JUMPI PUSH0 PUSH1 0x40 MLOAD PUSH32 0x1E4FBDF700000000000000000000000000000000000000000000000000000000 DUP2 MSTORE PUSH1 0x4 ADD PUSH2 0x9B4 SWAP2 SWAP1 PUSH2 0xE49 JUMP JUMPDEST PUSH1 0x40 MLOAD DUP1 SWAP2 SUB SWAP1 REVERT JUMPDEST PUSH2 0x9C6 DUP2 PUSH2 0xA50 JUMP JUMPDEST POP JUMP JUMPDEST PUSH2 0x9D1 PUSH2 0xB11 JUMP JUMPDEST PUSH20 0xFFFFFFFFFFFFFFFFFFFFFFFFFFFFFFFFFFFFFFFF AND PUSH2 0x9EF PUSH2 0x5F6 JUMP JUMPDEST PUSH20 0xFFFFFFFFFFFFFFFFFFFFFFFFFFFFFFFFFFFFFFFF AND EQ PUSH2 0xA4E JUMPI PUSH2 0xA12 PUSH2 0xB11 JUMP JUMPDEST PUSH1 0x40 MLOAD PUSH32 0x118CDAA700000000000000000000000000000000000000000000000000000000 DUP2 MSTORE PUSH1 0x4 ADD PUSH2 0xA45 SWAP2 SWAP1 PUSH2 0xE49 JUMP JUMPDEST PUSH1 0x40 MLOAD DUP1 SWAP2 SUB SWAP1 REVERT JUMPDEST JUMP JUMPDEST PUSH0 DUP1 PUSH0 SWAP1 SLOAD SWAP1 PUSH2 0x100 EXP SWAP1 DIV PUSH20 0xFFFFFFFFFFFFFFFFFFFFFFFFFFFFFFFFFFFFFFFF AND SWAP1 POP DUP2 PUSH0 DUP1 PUSH2 0x100 EXP DUP2 SLOAD DUP2 PUSH20 0xFFFFFFFFFFFFFFFFFFFFFFFFFFFFFFFFFFFFFFFF MUL NOT AND SWAP1 DUP4 PUSH20 0xFFFFFFFFFFFFFFFFFFFFFFFFFFFFFFFFFFFFFFFF AND MUL OR SWAP1 SSTORE POP DUP2 PUSH20 0xFFFFFFFFFFFFFFFFFFFFFFFFFFFFFFFFFFFFFFFF AND DUP2 PUSH20 0xFFFFFFFFFFFFFFFFFFFFFFFFFFFFFFFFFFFFFFFF AND PUSH32 0x8BE0079C531659141344CD1FD0A4F28419497F9722A3DAAFE3B4186F6B6457E0 PUSH1 0x40 MLOAD PUSH1 0x40 MLOAD DUP1 SWAP2 SUB SWAP1 LOG3 POP POP JUMP JUMPDEST PUSH0 CALLER SWAP1 POP SWAP1 JUMP JUMPDEST PUSH1 0x40 MLOAD DUP1 PUSH1 0xE0 ADD PUSH1 0x40 MSTORE DUP1 PUSH1 0x60 DUP2 MSTORE PUSH1 0x20 ADD PUSH0 DUP2 MSTORE PUSH1 0x20 ADD PUSH1 0x60 DUP2 MSTORE PUSH1 0x20 ADD PUSH1 0x60 DUP2 MSTORE PUSH1 0x20 ADD PUSH0 DUP2 MSTORE PUSH1 0x20 ADD PUSH0 DUP2 MSTORE PUSH1 0x20 ADD PUSH0 ISZERO ISZERO DUP2 MSTORE POP SWAP1 JUMP JUMPDEST PUSH0 PUSH1 0x40 MLOAD SWAP1 POP SWAP1 JUMP JUMPDEST PUSH0 DUP1 REVERT JUMPDEST PUSH0 DUP1 REVERT JUMPDEST PUSH0 DUP2 SWAP1 POP SWAP2 SWAP1 POP JUMP JUMPDEST PUSH2 0xB76 DUP2 PUSH2 0xB64 JUMP JUMPDEST DUP2 EQ PUSH2 0xB80 JUMPI PUSH0 DUP1 REVERT JUMPDEST POP JUMP JUMPDEST PUSH0 DUP2 CALLDATALOAD SWAP1 POP PUSH2 0xB91 DUP2 PUSH2 0xB6D JUMP JUMPDEST SWAP3 SWAP2 POP POP JUMP JUMPDEST PUSH0 PUSH1 0x20 DUP3 DUP5 SUB SLT ISZERO PUSH2 0xBAC JUMPI PUSH2 0xBAB PUSH2 0xB5C JUMP JUMPDEST JUMPDEST PUSH0 PUSH2 0xBB9 DUP5 DUP3 DUP6 ADD PUSH2 0xB83 JUMP JUMPDEST SWAP2 POP POP SWAP3 SWAP2 POP POP JUMP JUMPDEST PUSH0 DUP2 MLOAD SWAP1 POP SWAP2 SWAP1 POP JUMP JUMPDEST PUSH0 DUP3 DUP3 MSTORE PUSH1 0x20 DUP3 ADD SWAP1 POP SWAP3 SWAP2 POP POP JUMP JUMPDEST DUP3 DUP2 DUP4 MCOPY PUSH0 DUP4 DUP4 ADD MSTORE POP POP POP JUMP JUMPDEST PUSH0 PUSH1 0x1F NOT PUSH1 0x1F DUP4 ADD AND SWAP1 POP SWAP2 SWAP1 POP JUMP JUMPDEST PUSH0 PUSH2 0xC04 DUP3 PUSH2 0xBC2 JUMP JUMPDEST PUSH2 0xC0E DUP2 DUP6 PUSH2 0xBCC JUMP JUMPDEST SWAP4 POP PUSH2 0xC1E DUP2 DUP6 PUSH1 0x20 DUP7 ADD PUSH2 0xBDC JUMP JUMPDEST PUSH2 0xC27 DUP2 PUSH2 0xBEA JUMP JUMPDEST DUP5 ADD SWAP2 POP POP SWAP3 SWAP2 POP POP JUMP JUMPDEST PUSH2 0xC3B DUP2 PUSH2 0xB64 JUMP JUMPDEST DUP3 MSTORE POP POP JUMP JUMPDEST PUSH0 DUP2 ISZERO ISZERO SWAP1 POP SWAP2 SWAP1 POP JUMP JUMPDEST PUSH2 0xC55 DUP2 PUSH2 0xC41 JUMP JUMPDEST DUP3 MSTORE POP POP JUMP JUMPDEST PUSH0 PUSH1 0xE0 DUP4 ADD PUSH0 DUP4 ADD MLOAD DUP5 DUP3 SUB PUSH0 DUP7 ADD MSTORE PUSH2 0xC75 DUP3 DUP3 PUSH2 0xBFA JUMP JUMPDEST SWAP2 POP POP PUSH1 0x20 DUP4 ADD MLOAD PUSH2 0xC8A PUSH1 0x20 DUP7 ADD DUP3 PUSH2 0xC32 JUMP JUMPDEST POP PUSH1 0x40 DUP4 ADD MLOAD DUP5 DUP3 SUB PUSH1 0x40 DUP7 ADD MSTORE PUSH2 0xCA2 DUP3 DUP3 PUSH2 0xBFA JUMP JUMPDEST SWAP2 POP POP PUSH1 0x60 DUP4 ADD MLOAD DUP5 DUP3 SUB PUSH1 0x60 DUP7 ADD MSTORE PUSH2 0xCBC DUP3 DUP3 PUSH2 0xBFA JUMP JUMPDEST SWAP2 POP POP PUSH1 0x80 DUP4 ADD MLOAD PUSH2 0xCD1 PUSH1 0x80 DUP7 ADD DUP3 PUSH2 0xC32 JUMP JUMPDEST POP PUSH1 0xA0 DUP4 ADD MLOAD PUSH2 0xCE4 PUSH1 0xA0 DUP7 ADD DUP3 PUSH2 0xC32 JUMP JUMPDEST POP PUSH1 0xC0 DUP4 ADD MLOAD PUSH2 0xCF7 PUSH1 0xC0 DUP7 ADD DUP3 PUSH2 0xC4C JUMP JUMPDEST POP DUP1 SWAP2 POP POP SWAP3 SWAP2 POP POP JUMP JUMPDEST PUSH0 PUSH1 0x20 DUP3 ADD SWAP1 POP DUP2 DUP2 SUB PUSH0 DUP4 ADD MSTORE PUSH2 0xD1A DUP2 DUP5 PUSH2 0xC5B JUMP JUMPDEST SWAP1 POP SWAP3 SWAP2 POP POP JUMP JUMPDEST PUSH0 DUP3 DUP3 MSTORE PUSH1 0x20 DUP3 ADD SWAP1 POP SWAP3 SWAP2 POP POP JUMP JUMPDEST PUSH0 PUSH2 0xD3C DUP3 PUSH2 0xBC2 JUMP JUMPDEST PUSH2 0xD46 DUP2 DUP6 PUSH2 0xD22 JUMP JUMPDEST SWAP4 POP PUSH2 0xD56 DUP2 DUP6 PUSH1 0x20 DUP7 ADD PUSH2 0xBDC JUMP JUMPDEST PUSH2 0xD5F DUP2 PUSH2 0xBEA JUMP JUMPDEST DUP5 ADD SWAP2 POP POP SWAP3 SWAP2 POP POP JUMP JUMPDEST PUSH2 0xD73 DUP2 PUSH2 0xB64 JUMP JUMPDEST DUP3 MSTORE POP POP JUMP JUMPDEST PUSH2 0xD82 DUP2 PUSH2 0xC41 JUMP JUMPDEST DUP3 MSTORE POP POP JUMP JUMPDEST PUSH0 PUSH1 0xE0 DUP3 ADD SWAP1 POP DUP2 DUP2 SUB PUSH0 DUP4 ADD MSTORE PUSH2 0xDA0 DUP2 DUP11 PUSH2 0xD32 JUMP JUMPDEST SWAP1 POP PUSH2 0xDAF PUSH1 0x20 DUP4 ADD DUP10 PUSH2 0xD6A JUMP JUMPDEST DUP2 DUP2 SUB PUSH1 0x40 DUP4 ADD MSTORE PUSH2 0xDC1 DUP2 DUP9 PUSH2 0xD32 JUMP JUMPDEST SWAP1 POP DUP2 DUP2 SUB PUSH1 0x60 DUP4 ADD MSTORE PUSH2 0xDD5 DUP2 DUP8 PUSH2 0xD32 JUMP JUMPDEST SWAP1 POP PUSH2 0xDE4 PUSH1 0x80 DUP4 ADD DUP7 PUSH2 0xD6A JUMP JUMPDEST PUSH2 0xDF1 PUSH1 0xA0 DUP4 ADD DUP6 PUSH2 0xD6A JUMP JUMPDEST PUSH2 0xDFE PUSH1 0xC0 DUP4 ADD DUP5 PUSH2 0xD79 JUMP JUMPDEST SWAP9 SWAP8 POP POP POP POP POP POP POP POP JUMP JUMPDEST PUSH0 PUSH20 0xFFFFFFFFFFFFFFFFFFFFFFFFFFFFFFFFFFFFFFFF DUP3 AND SWAP1 POP SWAP2 SWAP1 POP JUMP JUMPDEST PUSH0 PUSH2 0xE33 DUP3 PUSH2 0xE0A JUMP JUMPDEST SWAP1 POP SWAP2 SWAP1 POP JUMP JUMPDEST PUSH2 0xE43 DUP2 PUSH2 0xE29 JUMP JUMPDEST DUP3 MSTORE POP POP JUMP JUMPDEST PUSH0 PUSH1 0x20 DUP3 ADD SWAP1 POP PUSH2 0xE5C PUSH0 DUP4 ADD DUP5 PUSH2 0xE3A JUMP JUMPDEST SWAP3 SWAP2 POP POP JUMP JUMPDEST PUSH0 DUP1 REVERT JUMPDEST PUSH0 DUP1 REVERT JUMPDEST PUSH32 0x4E487B7100000000000000000000000000000000000000000000000000000000 PUSH0 MSTORE PUSH1 0x41 PUSH1 0x4 MSTORE PUSH1 0x24 PUSH0 REVERT JUMPDEST PUSH2 0xEA0 DUP3 PUSH2 0xBEA JUMP JUMPDEST DUP2 ADD DUP2 DUP2 LT PUSH8 0xFFFFFFFFFFFFFFFF DUP3 GT OR ISZERO PUSH2 0xEBF JUMPI PUSH2 0xEBE PUSH2 0xE6A JUMP JUMPDEST JUMPDEST DUP1 PUSH1 0x40 MSTORE POP POP POP JUMP JUMPDEST PUSH0 PUSH2 0xED1 PUSH2 0xB53 JUMP JUMPDEST SWAP1 POP PUSH2 0xEDD DUP3 DUP3 PUSH2 0xE97 JUMP JUMPDEST SWAP2 SWAP1 POP JUMP JUMPDEST PUSH0 PUSH8 0xFFFFFFFFFFFFFFFF DUP3 GT ISZERO PUSH2 0xEFC JUMPI PUSH2 0xEFB PUSH2 0xE6A JUMP JUMPDEST JUMPDEST PUSH2 0xF05 DUP3 PUSH2 0xBEA JUMP JUMPDEST SWAP1 POP PUSH1 0x20 DUP2 ADD SWAP1 POP SWAP2 SWAP1 POP JUMP JUMPDEST DUP3 DUP2 DUP4 CALLDATACOPY PUSH0 DUP4 DUP4 ADD MSTORE POP POP POP JUMP JUMPDEST PUSH0 PUSH2 0xF32 PUSH2 0xF2D DUP5 PUSH2 0xEE2 JUMP JUMPDEST PUSH2 0xEC8 JUMP JUMPDEST SWAP1 POP DUP3 DUP2 MSTORE PUSH1 0x20 DUP2 ADD DUP5 DUP5 DUP5 ADD GT ISZERO PUSH2 0xF4E JUMPI PUSH2 0xF4D PUSH2 0xE66 JUMP JUMPDEST JUMPDEST PUSH2 0xF59 DUP5 DUP3 DUP6 PUSH2 0xF12 JUMP JUMPDEST POP SWAP4 SWAP3 POP POP POP JUMP JUMPDEST PUSH0 DUP3 PUSH1 0x1F DUP4 ADD SLT PUSH2 0xF75 JUMPI PUSH2 0xF74 PUSH2 0xE62 JUMP JUMPDEST JUMPDEST DUP2 CALLDATALOAD PUSH2 0xF85 DUP5 DUP3 PUSH1 0x20 DUP7 ADD PUSH2 0xF20 JUMP JUMPDEST SWAP2 POP POP SWAP3 SWAP2 POP POP JUMP JUMPDEST PUSH0 DUP1 PUSH0 DUP1 PUSH0 DUP1 PUSH1 0xC0 DUP8 DUP10 SUB SLT ISZERO PUSH2 0xFA8 JUMPI PUSH2 0xFA7 PUSH2 0xB5C JUMP JUMPDEST JUMPDEST PUSH0 DUP8 ADD CALLDATALOAD PUSH8 0xFFFFFFFFFFFFFFFF DUP2 GT ISZERO PUSH2 0xFC5 JUMPI PUSH2 0xFC4 PUSH2 0xB60 JUMP JUMPDEST JUMPDEST PUSH2 0xFD1 DUP10 DUP3 DUP11 ADD PUSH2 0xF61 JUMP JUMPDEST SWAP7 POP POP PUSH1 0x20 PUSH2 0xFE2 DUP10 DUP3 DUP11 ADD PUSH2 0xB83 JUMP JUMPDEST SWAP6 POP POP PUSH1 0x40 DUP8 ADD CALLDATALOAD PUSH8 0xFFFFFFFFFFFFFFFF DUP2 GT ISZERO PUSH2 0x1003 JUMPI PUSH2 0x1002 PUSH2 0xB60 JUMP JUMPDEST JUMPDEST PUSH2 0x100F DUP10 DUP3 DUP11 ADD PUSH2 0xF61 JUMP JUMPDEST SWAP5 POP POP PUSH1 0x60 DUP8 ADD CALLDATALOAD PUSH8 0xFFFFFFFFFFFFFFFF DUP2 GT ISZERO PUSH2 0x1030 JUMPI PUSH2 0x102F PUSH2 0xB60 JUMP JUMPDEST JUMPDEST PUSH2 0x103C DUP10 DUP3 DUP11 ADD PUSH2 0xF61 JUMP JUMPDEST SWAP4 POP POP PUSH1 0x80 PUSH2 0x104D DUP10 DUP3 DUP11 ADD PUSH2 0xB83 JUMP JUMPDEST SWAP3 POP POP PUSH1 0xA0 PUSH2 0x105E DUP10 DUP3 DUP11 ADD PUSH2 0xB83 JUMP JUMPDEST SWAP2 POP POP SWAP3 SWAP6 POP SWAP3 SWAP6 POP SWAP3 SWAP6 JUMP JUMPDEST PUSH0 PUSH1 0x20 DUP3 ADD SWAP1 POP PUSH2 0x107E PUSH0 DUP4 ADD DUP5 PUSH2 0xD6A JUMP JUMPDEST SWAP3 SWAP2 POP POP JUMP JUMPDEST PUSH0 DUP1 PUSH1 0x40 DUP4 DUP6 SUB SLT ISZERO PUSH2 0x109A JUMPI PUSH2 0x1099 PUSH2 0xB5C JUMP JUMPDEST JUMPDEST PUSH0 PUSH2 0x10A7 DUP6 DUP3 DUP7 ADD PUSH2 0xB83 JUMP JUMPDEST SWAP3 POP POP PUSH1 0x20 PUSH2 0x10B8 DUP6 DUP3 DUP7 ADD PUSH2 0xB83 JUMP JUMPDEST SWAP2 POP POP SWAP3 POP SWAP3 SWAP1 POP JUMP JUMPDEST PUSH2 0x10CB DUP2 PUSH2 0xE29 JUMP JUMPDEST DUP2 EQ PUSH2 0x10D5 JUMPI PUSH0 DUP1 REVERT JUMPDEST POP JUMP JUMPDEST PUSH0 DUP2 CALLDATALOAD SWAP1 POP PUSH2 0x10E6 DUP2 PUSH2 0x10C2 JUMP JUMPDEST SWAP3 SWAP2 POP POP JUMP JUMPDEST PUSH0 PUSH1 0x20 DUP3 DUP5 SUB SLT ISZERO PUSH2 0x1101 JUMPI PUSH2 0x1100 PUSH2 0xB5C JUMP JUMPDEST JUMPDEST PUSH0 PUSH2 0x110E DUP5 DUP3 DUP6 ADD PUSH2 0x10D8 JUMP JUMPDEST SWAP2 POP POP SWAP3 SWAP2 POP POP JUMP JUMPDEST PUSH32 0x496E76616C696420666C69676874206964000000000000000000000000000000 PUSH0 DUP3 ADD MSTORE POP JUMP JUMPDEST PUSH0 PUSH2 0x114B PUSH1 0x11 DUP4 PUSH2 0xD22 JUMP JUMPDEST SWAP2 POP PUSH2 0x1156 DUP3 PUSH2 0x1117 JUMP JUMPDEST PUSH1 0x20 DUP3 ADD SWAP1 POP SWAP2 SWAP1 POP JUMP JUMPDEST PUSH0 PUSH1 0x20 DUP3 ADD SWAP1 POP DUP2 DUP2 SUB PUSH0 DUP4 ADD MSTORE PUSH2 0x1178 DUP2 PUSH2 0x113F JUMP JUMPDEST SWAP1 POP SWAP2 SWAP1 POP JUMP JUMPDEST PUSH32 0x4E487B7100000000000000000000000000000000000000000000000000000000 PUSH0 MSTORE PUSH1 0x22 PUSH1 0x4 MSTORE PUSH1 0x24 PUSH0 REVERT JUMPDEST PUSH0 PUSH1 0x2 DUP3 DIV SWAP1 POP PUSH1 0x1 DUP3 AND DUP1 PUSH2 0x11C3 JUMPI PUSH1 0x7F DUP3 AND SWAP2 POP JUMPDEST PUSH1 0x20 DUP3 LT DUP2 SUB PUSH2 0x11D6 JUMPI PUSH2 0x11D5 PUSH2 0x117F JUMP JUMPDEST JUMPDEST POP SWAP2 SWAP1 POP JUMP JUMPDEST PUSH32 0x4E487B7100000000000000000000000000000000000000000000000000000000 PUSH0 MSTORE PUSH1 0x11 PUSH1 0x4 MSTORE PUSH1 0x24 PUSH0 REVERT JUMPDEST PUSH0 PUSH2 0x1213 DUP3 PUSH2 0xB64 JUMP JUMPDEST SWAP2 POP PUSH32 0xFFFFFFFFFFFFFFFFFFFFFFFFFFFFFFFFFFFFFFFFFFFFFFFFFFFFFFFFFFFFFFFF DUP3 SUB PUSH2 0x1245 JUMPI PUSH2 0x1244 PUSH2 0x11DC JUMP JUMPDEST JUMPDEST PUSH1 0x1 DUP3 ADD SWAP1 POP SWAP2 SWAP1 POP JUMP JUMPDEST PUSH32 0x496E76616C6964204465706172747572652054696D6500000000000000000000 PUSH0 DUP3 ADD MSTORE POP JUMP JUMPDEST PUSH0 PUSH2 0x1284 PUSH1 0x16 DUP4 PUSH2 0xD22 JUMP JUMPDEST SWAP2 POP PUSH2 0x128F DUP3 PUSH2 0x1250 JUMP JUMPDEST PUSH1 0x20 DUP3 ADD SWAP1 POP SWAP2 SWAP1 POP JUMP JUMPDEST PUSH0 PUSH1 0x20 DUP3 ADD SWAP1 POP DUP2 DUP2 SUB PUSH0 DUP4 ADD MSTORE PUSH2 0x12B1 DUP2 PUSH2 0x1278 JUMP JUMPDEST SWAP1 POP SWAP2 SWAP1 POP JUMP JUMPDEST PUSH0 DUP2 SWAP1 POP DUP2 PUSH0 MSTORE PUSH1 0x20 PUSH0 KECCAK256 SWAP1 POP SWAP2 SWAP1 POP JUMP JUMPDEST PUSH0 PUSH1 0x20 PUSH1 0x1F DUP4 ADD DIV SWAP1 POP SWAP2 SWAP1 POP JUMP JUMPDEST PUSH0 DUP3 DUP3 SHL SWAP1 POP SWAP3 SWAP2 POP POP JUMP JUMPDEST PUSH0 PUSH1 0x8 DUP4 MUL PUSH2 0x1314 PUSH32 0xFFFFFFFFFFFFFFFFFFFFFFFFFFFFFFFFFFFFFFFFFFFFFFFFFFFFFFFFFFFFFFFF DUP3 PUSH2 0x12D9 JUMP JUMPDEST PUSH2 0x131E DUP7 DUP4 PUSH2 0x12D9 JUMP JUMPDEST SWAP6 POP DUP1 NOT DUP5 AND SWAP4 POP DUP1 DUP7 AND DUP5 OR SWAP3 POP POP POP SWAP4 SWAP3 POP POP POP JUMP JUMPDEST PUSH0 DUP2 SWAP1 POP SWAP2 SWAP1 POP JUMP JUMPDEST PUSH0 PUSH2 0x1359 PUSH2 0x1354 PUSH2 0x134F DUP5 PUSH2 0xB64 JUMP JUMPDEST PUSH2 0x1336 JUMP JUMPDEST PUSH2 0xB64 JUMP JUMPDEST SWAP1 POP SWAP2 SWAP1 POP JUMP JUMPDEST PUSH0 DUP2 SWAP1 POP SWAP2 SWAP1 POP JUMP JUMPDEST PUSH2 0x1372 DUP4 PUSH2 0x133F JUMP JUMPDEST PUSH2 0x1386 PUSH2 0x137E DUP3 PUSH2 0x1360 JUMP JUMPDEST DUP5 DUP5 SLOAD PUSH2 0x12E5 JUMP JUMPDEST DUP3 SSTORE POP POP POP POP JUMP JUMPDEST PUSH0 SWAP1 JUMP JUMPDEST PUSH2 0x139A PUSH2 0x138E JUMP JUMPDEST PUSH2 0x13A5 DUP2 DUP5 DUP5 PUSH2 0x1369 JUMP JUMPDEST POP POP POP JUMP JUMPDEST JUMPDEST DUP2 DUP2 LT ISZERO PUSH2 0x13C8 JUMPI PUSH2 0x13BD PUSH0 DUP3 PUSH2 0x1392 JUMP JUMPDEST PUSH1 0x1 DUP2 ADD SWAP1 POP PUSH2 0x13AB JUMP JUMPDEST POP POP JUMP JUMPDEST PUSH1 0x1F DUP3 GT ISZERO PUSH2 0x140D JUMPI PUSH2 0x13DE DUP2 PUSH2 0x12B8 JUMP JUMPDEST PUSH2 0x13E7 DUP5 PUSH2 0x12CA JUMP JUMPDEST DUP2 ADD PUSH1 0x20 DUP6 LT ISZERO PUSH2 0x13F6 JUMPI DUP2 SWAP1 POP JUMPDEST PUSH2 0x140A PUSH2 0x1402 DUP6 PUSH2 0x12CA JUMP JUMPDEST DUP4 ADD DUP3 PUSH2 0x13AA JUMP JUMPDEST POP POP JUMPDEST POP POP POP JUMP JUMPDEST PUSH0 DUP3 DUP3 SHR SWAP1 POP SWAP3 SWAP2 POP POP JUMP JUMPDEST PUSH0 PUSH2 0x142D PUSH0 NOT DUP5 PUSH1 0x8 MUL PUSH2 0x1412 JUMP JUMPDEST NOT DUP1 DUP4 AND SWAP2 POP POP SWAP3 SWAP2 POP POP JUMP JUMPDEST PUSH0 PUSH2 0x1445 DUP4 DUP4 PUSH2 0x141E JUMP JUMPDEST SWAP2 POP DUP3 PUSH1 0x2 MUL DUP3 OR SWAP1 POP SWAP3 SWAP2 POP POP JUMP JUMPDEST PUSH2 0x145E DUP3 PUSH2 0xBC2 JUMP JUMPDEST PUSH8 0xFFFFFFFFFFFFFFFF DUP2 GT ISZERO PUSH2 0x1477 JUMPI PUSH2 0x1476 PUSH2 0xE6A JUMP JUMPDEST JUMPDEST PUSH2 0x1481 DUP3 SLOAD PUSH2 0x11AC JUMP JUMPDEST PUSH2 0x148C DUP3 DUP3 DUP6 PUSH2 0x13CC JUMP JUMPDEST PUSH0 PUSH1 0x20 SWAP1 POP PUSH1 0x1F DUP4 GT PUSH1 0x1 DUP2 EQ PUSH2 0x14BD JUMPI PUSH0 DUP5 ISZERO PUSH2 0x14AB JUMPI DUP3 DUP8 ADD MLOAD SWAP1 POP JUMPDEST PUSH2 0x14B5 DUP6 DUP3 PUSH2 0x143A JUMP JUMPDEST DUP7 SSTORE POP PUSH2 0x151C JUMP JUMPDEST PUSH1 0x1F NOT DUP5 AND PUSH2 0x14CB DUP7 PUSH2 0x12B8 JUMP JUMPDEST PUSH0 JUMPDEST DUP3 DUP2 LT ISZERO PUSH2 0x14F2 JUMPI DUP5 DUP10 ADD MLOAD DUP3 SSTORE PUSH1 0x1 DUP3 ADD SWAP2 POP PUSH1 0x20 DUP6 ADD SWAP5 POP PUSH1 0x20 DUP2 ADD SWAP1 POP PUSH2 0x14CD JUMP JUMPDEST DUP7 DUP4 LT ISZERO PUSH2 0x150F JUMPI DUP5 DUP10 ADD MLOAD PUSH2 0x150B PUSH1 0x1F DUP10 AND DUP3 PUSH2 0x141E JUMP JUMPDEST DUP4 SSTORE POP JUMPDEST PUSH1 0x1 PUSH1 0x2 DUP9 MUL ADD DUP9 SSTORE POP POP POP JUMPDEST POP POP POP POP POP POP JUMP JUMPDEST PUSH0 PUSH1 0x20 DUP3 ADD SWAP1 POP DUP2 DUP2 SUB PUSH0 DUP4 ADD MSTORE PUSH2 0x153C DUP2 DUP5 PUSH2 0xD32 JUMP JUMPDEST SWAP1 POP SWAP3 SWAP2 POP POP JUMP JUMPDEST PUSH32 0x496E76616C6964207469636B657420636F756E74000000000000000000000000 PUSH0 DUP3 ADD MSTORE POP JUMP JUMPDEST PUSH0 PUSH2 0x1578 PUSH1 0x14 DUP4 PUSH2 0xD22 JUMP JUMPDEST SWAP2 POP PUSH2 0x1583 DUP3 PUSH2 0x1544 JUMP JUMPDEST PUSH1 0x20 DUP3 ADD SWAP1 POP SWAP2 SWAP1 POP JUMP JUMPDEST PUSH0 PUSH1 0x20 DUP3 ADD SWAP1 POP DUP2 DUP2 SUB PUSH0 DUP4 ADD MSTORE PUSH2 0x15A5 DUP2 PUSH2 0x156C JUMP JUMPDEST SWAP1 POP SWAP2 SWAP1 POP JUMP JUMPDEST PUSH0 PUSH2 0x15B6 DUP3 PUSH2 0xB64 JUMP JUMPDEST SWAP2 POP PUSH2 0x15C1 DUP4 PUSH2 0xB64 JUMP JUMPDEST SWAP3 POP DUP3 DUP3 SUB SWAP1 POP DUP2 DUP2 GT ISZERO PUSH2 0x15D9 JUMPI PUSH2 0x15D8 PUSH2 0x11DC JUMP JUMPDEST JUMPDEST SWAP3 SWAP2 POP POP JUMP JUMPDEST PUSH32 0x536F72727921206E6F7420656E6F756768207365617473206C65667400000000 PUSH0 DUP3 ADD MSTORE POP JUMP JUMPDEST PUSH0 PUSH2 0x1613 PUSH1 0x1C DUP4 PUSH2 0xD22 JUMP JUMPDEST SWAP2 POP PUSH2 0x161E DUP3 PUSH2 0x15DF JUMP JUMPDEST PUSH1 0x20 DUP3 ADD SWAP1 POP SWAP2 SWAP1 POP JUMP JUMPDEST PUSH0 PUSH1 0x20 DUP3 ADD SWAP1 POP DUP2 DUP2 SUB PUSH0 DUP4 ADD MSTORE PUSH2 0x1640 DUP2 PUSH2 0x1607 JUMP JUMPDEST SWAP1 POP SWAP2 SWAP1 POP JUMP JUMPDEST PUSH0 PUSH2 0x1651 DUP3 PUSH2 0xB64 JUMP JUMPDEST SWAP2 POP PUSH2 0x165C DUP4 PUSH2 0xB64 JUMP JUMPDEST SWAP3 POP DUP3 DUP3 MUL PUSH2 0x166A DUP2 PUSH2 0xB64 JUMP JUMPDEST SWAP2 POP DUP3 DUP3 DIV DUP5 EQ DUP4 ISZERO OR PUSH2 0x1681 JUMPI PUSH2 0x1680 PUSH2 0x11DC JUMP JUMPDEST JUMPDEST POP SWAP3 SWAP2 POP POP JUMP JUMPDEST PUSH32 0x496E73756666696369656E7420616D6F756E7400000000000000000000000000 PUSH0 DUP3 ADD MSTORE POP JUMP JUMPDEST PUSH0 PUSH2 0x16BC PUSH1 0x13 DUP4 PUSH2 0xD22 JUMP JUMPDEST SWAP2 POP PUSH2 0x16C7 DUP3 PUSH2 0x1688 JUMP JUMPDEST PUSH1 0x20 DUP3 ADD SWAP1 POP SWAP2 SWAP1 POP JUMP JUMPDEST PUSH0 PUSH1 0x20 DUP3 ADD SWAP1 POP DUP2 DUP2 SUB PUSH0 DUP4 ADD MSTORE PUSH2 0x16E9 DUP2 PUSH2 0x16B0 JUMP JUMPDEST SWAP1 POP SWAP2 SWAP1 POP JUMP INVALID LOG2 PUSH5 0x6970667358 0x22 SLT KECCAK256 0xD6 DUP5 SWAP6 CODESIZE 0x1E TSTORE 0xB1 JUMPI BLOCKHASH 0xED TIMESTAMP 0x1F SWAP13 0xED INVALID TSTORE 0xF6 0xD2 0xCA SWAP7 0xA6 ORIGIN 0xE1 MSIZE 0xF9 PUSH23 0x849578739A5E64736F6C634300081A0033000000000000 "
				},
				"gasEstimates": {
					"creation": {
						"codeDepositCost": "1185200",
						"executionCost": "infinite",
						"totalCost": "infinite"
					},
					"external": {
						"createFlight(string,uint256,string,string,uint256,uint256)": "infinite",
						"flightDetails(uint256)": "infinite",
						"getFlightDetails(uint256)": "infinite",
						"owner()": "2515",
						"purchaseTicket(uint256,uint256)": "infinite",
						"renounceOwnership()": "infinite",
						"transferOwnership(address)": "infinite"
					}
				},
				"methodIdentifiers": {
					"createFlight(string,uint256,string,string,uint256,uint256)": "a3138a9b",
					"flightDetails(uint256)": "3f90b8fd",
					"getFlightDetails(uint256)": "18535008",
					"owner()": "8da5cb5b",
					"purchaseTicket(uint256,uint256)": "bdbbb0cb",
					"renounceOwnership()": "715018a6",
					"transferOwnership(address)": "f2fde38b"
				}
			},
			"storageLayout": {
				"storage": [
					{
						"astId": 8,
						"contract": "contracts/1_AirlineTickets.sol:AirlineTicket",
						"label": "_owner",
						"offset": 0,
						"slot": "0",
						"type": "t_address"
					},
					{
						"astId": 200,
						"contract": "contracts/1_AirlineTickets.sol:AirlineTicket",
						"label": "totalFlightsCreated",
						"offset": 0,
						"slot": "1",
						"type": "t_uint256"
					},
					{
						"astId": 205,
						"contract": "contracts/1_AirlineTickets.sol:AirlineTicket",
						"label": "flightDetails",
						"offset": 0,
						"slot": "2",
						"type": "t_mapping(t_uint256,t_struct(Flight)197_storage)"
					}
				],
				"types": {
					"t_address": {
						"encoding": "inplace",
						"label": "address",
						"numberOfBytes": "20"
					},
					"t_bool": {
						"encoding": "inplace",
						"label": "bool",
						"numberOfBytes": "1"
					},
					"t_mapping(t_uint256,t_struct(Flight)197_storage)": {
						"encoding": "mapping",
						"key": "t_uint256",
						"label": "mapping(uint256 => struct AirlineTicket.Flight)",
						"numberOfBytes": "32",
						"value": "t_struct(Flight)197_storage"
					},
					"t_string_storage": {
						"encoding": "bytes",
						"label": "string",
						"numberOfBytes": "32"
					},
					"t_struct(Flight)197_storage": {
						"encoding": "inplace",
						"label": "struct AirlineTicket.Flight",
						"members": [
							{
								"astId": 184,
								"contract": "contracts/1_AirlineTickets.sol:AirlineTicket",
								"label": "flightNumber",
								"offset": 0,
								"slot": "0",
								"type": "t_string_storage"
							},
							{
								"astId": 186,
								"contract": "contracts/1_AirlineTickets.sol:AirlineTicket",
								"label": "departureTime",
								"offset": 0,
								"slot": "1",
								"type": "t_uint256"
							},
							{
								"astId": 188,
								"contract": "contracts/1_AirlineTickets.sol:AirlineTicket",
								"label": "source",
								"offset": 0,
								"slot": "2",
								"type": "t_string_storage"
							},
							{
								"astId": 190,
								"contract": "contracts/1_AirlineTickets.sol:AirlineTicket",
								"label": "destination",
								"offset": 0,
								"slot": "3",
								"type": "t_string_storage"
							},
							{
								"astId": 192,
								"contract": "contracts/1_AirlineTickets.sol:AirlineTicket",
								"label": "availableSeats",
								"offset": 0,
								"slot": "4",
								"type": "t_uint256"
							},
							{
								"astId": 194,
								"contract": "contracts/1_AirlineTickets.sol:AirlineTicket",
								"label": "price",
								"offset": 0,
								"slot": "5",
								"type": "t_uint256"
							},
							{
								"astId": 196,
								"contract": "contracts/1_AirlineTickets.sol:AirlineTicket",
								"label": "isActive",
								"offset": 0,
								"slot": "6",
								"type": "t_bool"
							}
						],
						"numberOfBytes": "224"
					},
					"t_uint256": {
						"encoding": "inplace",
						"label": "uint256",
						"numberOfBytes": "32"
					}
				}
			},
			"userdoc": {
				"kind": "user",
				"methods": {},
				"version": 1
			}
		}
	}
}